:020000040800F2
:10000000F8080020CD000008811300080510000842
:1000100000000000000000000000000000000000E0
:10002000000000000000000000000000C5160008ED
:100030000000000000000000DB000008DD000008F8
:10004000DF00000800000000DF000008DF000008FB
:10005000DF000008DF000008DF0000087D0E000858
:1000600000000000610B0008CD0B0008D70B000852
:10007000F5070008DF0000083D1A00080000000036
:10008000291C000800000000000000008D18000876
:10009000ED18000851190008191A0008DF000008BF
:1000A000DF000008DF000008DF000008F52100087D
:1000B000192200080448854600F046FB0048004726
:1000C00061230008C046C046F80800200448804765
:1000D00004480047FEE7FEE7FEE7FEE7FEE7FEE72F
:1000E00011180008B5000008F8B502464A40D40FC0
:1000F00042004B0052085B089A4202D20246084670
:1001000011464A0023D0C30D4A00DDB2120EAD1ACB
:10011000202D35DA49020126490AF6058A19002CF4
:1001200000D0524220214F1B1146B9402A411018DD
:10013000C20D9A4221D0002C17D0012D08DCDA051F
:10014000801AD20F8019D207DBB200F065FAF8BD31
:10015000DA05801A012340001B06C01880185A4295
:100160008018CA0F1043490007E04908C20711432D
:10017000DA05801A80194008801800F045FAF8BDA9
:1001800061000122511A001BF7E70122D2075140FA
:10019000AAE70122D2075040A6E7024670B54A40BE
:1001A000D30FDB0740002DD04A002AD0010E140ED9
:1001B000000212020919400A520A8418E501044695
:1001C0005443000A120A2E045043A4194219200C69
:1001D000C543AA18120C0125AD03521C5219120472
:1001E0007F39240400D0521C104301D44000491E22
:1001F000C2B20C06C0092018401C4008802A02D058
:1002000003E0002070BD40084000002900DA002013
:10021000184370BD70B502464A40D50F40004A00F1
:10022000ED0740085208002814D0002A12D0C40D4F
:10023000D30D41020120C0055202490A520AE41AB4
:10024000091812187D34914201D3641C00E0490062
:10025000002C01DA002070BD0023914201D3891ADD
:100260000343400849000028F7D100290AD09142F1
:1002700002D10121C90705E0914201D2012101E02B
:100280000121C943E005C018401900F0BDF970BD57
:10029000F0B507460846584087B0C00F04904800A4
:1002A0000E46590040084908BC1A884105D2384614
:1002B00031461E4617460B4602465800400810437A
:1002C0004DD0300D039040055900400D490D05906B
:1002D000401A0290402873DA18030121000B090527
:1002E0000843019004980092002806D01146019A14
:1002F00049420020904100910190029840210A1A41
:100300000199009800F04CF905460C466B4607CB66
:1003100000F067F9C0197141039A0E0D0023D71739
:1003200056401A467A40164344D0049A002A2DD0EB
:10033000029A012A039A15DC1205C01A914101267E
:100340003605001C7141D20F059ED2070093019221
:1003500002962A46234600F0A5F907B0F0BD3846BC
:100360003146FAE71605234A0F46B218C01AB741BC
:1003700001210905001C4F4100187F411146181842
:100380007941E20F10436D19644113E0E2076D08F3
:1003900015436408C2071443039A01261205C01AC4
:1003A00091413605001C7141CE0740083043490891
:1003B000C01851412A46234600F067F9CDE7FFE710
:1003C000049801224000C117121A00238B4104989F
:1003D0003146C417381AA141EEE730B40124E407CE
:1003E000634030BC54E730B40124E407614030BCC2
:1003F0004EE700000000E0FFF0B51FB488B00B9995
:100400000998002448400999C00F490049080991FA
:10041000C0070B990090490049080B910999089869
:10042000A64608431CD00B990A98084318D009988F
:1004300001244000420D4800410D099824050003A5
:10044000000B204309900B980003000B20430B90F6
:1004500050181C494018002201901446104605E02F
:10046000002001460DB0F0BD032801DA034600E08C
:1004700003239C46C11A0AAE0AE05F0008ADED5B9B
:100480004F00F75B7D430027AA187C41491C5B1E87
:100490006145F2DD410004AB5A522104120C0A43BB
:1004A000240C401C0828DFDB01980290009970465C
:1004B00001910090059B049A0799069800F0F2F8C4
:1004C000D0E700000DFCFFFFC217C10F504010B570
:1004D0004018CA079623002100F09EF810BD10B501
:1004E00000229623114600F097F810BD0EB505497D
:1004F0000291002100910A460B46019100F0D2F8CA
:1005000003B000BD33040000C20F410040020123CC
:10051000400ADB05D207090EC0187F2901DA002046
:100520007047962903DC9623591AC84001E0963992
:100530008840002AF4D04042704741004002012226
:10054000400AD205090E80187F2901DA0020704781
:10055000962903DC9622511AC84070479639884084
:10056000704700004A0009030123090B1B051943CA
:10057000094B10B5520D9A4201DA002010BD064B0E
:1005800034339A4203DC9A1A00F01AF810BD03497A
:100590005118884010BD0000FF030000CDFBFFFF95
:1005A00010B5202A04DB0146203A9140002010BDFE
:1005B000914020239C1A0346E3401943904010BD0C
:1005C00010B5202A04DB0846203AD040002110BD97
:1005D0000B46D340D0402024A21A9140084319462C
:1005E00010BD10B5202A06DBCB170846203A104173
:1005F000C1170B4306E00B461341D0402024A21A3A
:1006000091400843194610BD002904DA401C4900F6
:1006100001D140084000704770B40024050C05D19A
:100620001024000402D1002921D01124050E01D18B
:1006300000020834050F01D10001241D850F01D1EE
:100640008000A41C002801DB4000641C002908D0A5
:1006500020252E1B0D46F540A14000D00121294345
:10066000084301061B1B000ADB1D02D5002070BCDD
:100670007047DB05181880180029F8DA401C49007B
:10068000F5D170BC40084000704710B5002B08DA67
:100690000024401C614192185B411A4301D140087B
:1006A000400010BDF0B51FB482B005460C0003D069
:1006B000084601F021FE02E001F01EFE2030024655
:1006C000009021462846FFF76BFF049B059A0446DD
:1006D0000F4618431143084314D0184610431BD04B
:1006E000009840210A1A18460599FFF769FF054648
:1006F0000E46009A05990498FFF752FF084305D06B
:10070000012004E02046394607B0F0BD0020C117A3
:1007100005430E432C43374300990E986305401A56
:100720007905E40A00220C43FD0A0A3002D50020B4
:100730000146E9E70105101969410C9C0D9D00195E
:100740006941FFF7A2FFDFE7064C0125064E05E0F1
:10075000E36807CC2B430C3C98471034B442F7D3E2
:10076000FFF7ACFC8C230008AC23000800B58DB06B
:100770000121084600F098FE1B4800F065FA1B486E
:1007800002901B4803900020049005200590002053
:10079000069080200790400008908000099020205B
:1007A0000A9000020B9000200C9002A90E4800F065
:1007B0003BFB022000F02AFA022000F017FA012287
:1007C0000221094800F026FB0121074800F02EFA1B
:1007D000092168460171012181710321417101A83C
:1007E00000F0D0FD0DB000BD0800024040240140E3
:1007F0006000002010B50421044800F005F900282D
:1008000003D00421014800F00FF810BD002401407E
:1008100010B50B460021846A1C43846200BF0C465D
:1008200014432146416110BD01607047002904D086
:10083000826801231A43826003E0826802231A431C
:100840008260704700B587B00122D1072C4800F0C4
:1008500003F92C4800F00CFE0121480200F044FE90
:10086000274800F067F801A800F013F90020019074
:100870006946087201208002039040200490002005
:100880000590069001A91E4800F0D0F801211C48EF
:1008900000F0ECF8072220211948FFF7B9FF0722E2
:1008A00040211748FFF7B4FF072280211448FFF7C3
:1008B000AFFF0722FF2101311148FFF7A9FF0722EF
:1008C000012149020E48FFF7A3FF0D4800F066F82A
:1008D00001210B48FFF7AAFF00BF0B49084800F0B1
:1008E0007BF80028F9D00121054800F00FF802211B
:1008F000034800F017F8024800F0C6F807B000BD42
:10090000002401400040000101000001002904D042
:10091000C26801231A43C26003E0C2685208520051
:10092000C2607047C26802239A43C260C2680A4329
:10093000C260704710B504460548844207D10121C2
:10094000401500F0E1FD0021601500F0DDFD10BD57
:10095000002401401CB50121480400F0A5FD01213F
:10096000880400F0A1FDE020009003216846017199
:100970000021C17169460920C00600F09FFA0320DA
:1009800000900321684601710021C1716946024847
:1009900000F094FA1CBD00000004004830B5014688
:1009A0000020002200238C680125ED072C438C6079
:1009B00000BF8C68E30FDB07521C0F242403A24204
:1009C00001D0002BF5D18C68E40FE407002C01D195
:1009D000086C00E0002030BD30B502460020002346
:1009E000012424060C40002C05D0946801252D0616
:1009F000AC43234600E013681C460C40002C01D099
:100A0000012000E0002030BD10B502460020002388
:100A100054680C40234614680C40002C03D0002B73
:100A200001D0012000E0002010BD000010B5002220
:100A3000C268084B1A400C7964030B6823438C6826
:100A40002343CC6823430C6923434C6923431A4353
:100A5000C26010BD03D2FFFF002A03D003690B431D
:100A6000036102E003698B4303617047002905D0ED
:100A7000C26801231B031A43C26004E0C268012359
:100A80001B039A43C260704781680422114381604E
:100A900070470021016001718160C16001614161A5
:100AA000704770B5024600231AE0002012E085006E
:100AB00055598600B6187668B54209D9850054594B
:100AC0008500AD186D68860095518500AD186C6085
:100AD000451CE8B24D1EED1A8542E8DC5D1CEBB208
:100AE0008B42E2DB70BD000070B501F02DF901F022
:100AF0005BF901F089F901F047F901F075F901F0AE
:100B0000A3F91348134948638863C8633C2000F085
:100B1000ABF9FF202D30104948800121C90209207E
:100B2000C00600F035FA0446012109030920C00679
:100B300000F02EFA05464021084800F029FA064642
:100B4000B0006900401800190349087070BD00002A
:100B5000B80B0000002C0140AC0400200014004839
:100B6000FEB5022000F03CF9002820D0022000F061
:100B70004DF80F490888FFF7B9FC04460D4A0E4BA3
:100B8000FFF73AFC06460D4A0D4BFFF781FB01913A
:100B90000090FFF7E7FC0B490881054880880A4967
:100BA00088800348C0880880014800894880FEBDCD
:100BB000600000200C022B8716D9E6BF85EB51B8E8
:100BC0001E659440AC0400204400002010B50220B3
:100BD00000F0ECF810BD10B50120400300F000F962
:100BE0000120400300F0E2F810BD000001210907D8
:100BF0000140002902D00349486001E002494860F1
:100C00007047000000040240000002400121090773
:100C10000140002902D00349486001E002494860D0
:100C2000704700000004024000000240002904D088
:100C3000026801231A43026003E00268014B1A4074
:100C400002607047FEFF00000168554A11400160D4
:100C50000021016041608160C1605249884208D131
:100C60005049083949680F2211434E4A083A5160E9
:100C700094E04C491431884208D14A4908394968FE
:100C8000F0221143474A083A516087E0454928312C
:100C9000884209D14349083949680F221202114399
:100CA000404A083A516079E03E493C31884209D1D6
:100CB0003C49083949680F2212031143394A083A5E
:100CC00051606BE037495031884209D135490839C4
:100CD00049680F2212041143324A083A51605DE01C
:100CE00030496431884209D12E49083949680F22B8
:100CF000120511432B4A083A51604FE029497831D7
:100D0000884209D12749083949680F221206114340
:100D1000244A083A516041E02349884208D12249D7
:100D2000083949680F2211431F4A083A516035E0DB
:100D30001D491431884208D11B4908394968F022FD
:100D40001143194A083A516028E01749283188426E
:100D500009D11549083949680F2212021143124A74
:100D6000083A51601AE010493C31884209D10E49D5
:100D7000083949680F22120311430B4A083A51609F
:100D80000CE009495031884208D1074908394968BF
:100D90000F2212041143044A083A516070470000C0
:100DA000FEFF000008000240080402400146002047
:100DB000002201231B070B40002B02D0064B1A68B0
:100DC00001E0064B1A6813460B40002B01D00120AE
:100DD00000E00020704700000004024000000240D4
:100DE00001460020002201231B070B40002B02D0EC
:100DF000064B1A6801E0064B1A6813460B40002B9D
:100E000001D0012000E000207047000000040240F3
:100E100000000240002A03D003680B43036002E095
:100E200003688B430360704710B5002202680D4BC6
:100E30001A400C6A8B6823430C6923434C69234393
:100E40008C692343CC6923434C6A23438C6A234334
:100E50001A430260CB6843600B6883604B68C360D1
:100E600010BD00000F80FFFF0349088000BF02494A
:100E700009880029FBD1704720000020704700003E
:100E80001CB50121880400F00FFB04200090012113
:100E90006846017100218171C17103214171694668
:100EA000034800F00BF80421014800F07BF81CBD5A
:100EB0000004004810B500F0AFF810BDF0B50A46C8
:100EC00000210023002400BF3DE001258D402B467A
:100ED00015681D402C469C4234D11579012D02D055
:100EE0001579022D16D185684F000326BE40B54303
:100EF000856055794E00B5408668354385608588A4
:100F000001268E40B5438580858896798E40B6B29D
:100F10003543858005684F000326BE40B543056014
:100F200015794E00B540066835430560C5684F0029
:100F30000326BE40B543C560D5794E00B540C668AE
:100F40003543C560491C1029BFD3F0BDF0B500235F
:100F500000244D07EE0E1546B5402B46CD10AE00D1
:100F600005462035AD594E07F70E0F26BE40B54356
:100F7000CE10B60007462037BD51CD10AE003D461D
:100F8000AD591D432C46CD10AD003E467451F0BD09
:100F900002460020138A0B40002B01D0012000E004
:100FA000002070470185704710B500F08FFD00F0FC
:100FB00049FEFFF7CFFC00F003F8FFF761FF10BD1B
:100FC0001CB50121480400F06FFA0121880500F0EA
:100FD0006BFA0320C002009000216846C1710171C4
:100FE00069460920C006FFF769FF402000900021F4
:100FF0006846C171017169460148FFF75FFF1CBD7A
:101000000014004800BFFEE701480249086070472D
:10101000CCCC000000300040014802490860704715
:10102000AAAA000000300040014948607047000053
:1010300000300040014988607047000000300040E7
:101040000149086070470000003000407047000010
:1010500010B5194800881949884210DC16484088A4
:101060007D21C90088420ADB134840881349884221
:1010700005DC114800887D21C900884217DA0E4836
:10108000C088401C0C49C8800846C088FF212D310B
:1010900088420FDD00200849C880094988688047D8
:1010A00000200549487201200549087002E000202F
:1010B0000149C88010BD000044000020B80B0000AA
:1010C0000000002010B5114880881149884204DDD5
:1010D0000E4880880F49884214DB0F480078401C76
:1010E0000D4908700846007832280EDB0020087091
:1010F0000A4988688047002004490872012007498E
:10110000087002E000200449087010BD440000206F
:10111000AA050000240E00005C0000200000002052
:1011200010B536480078030001F0FDF80765051595
:1011300025354555650000F007FE00F055FE00F02E
:1011400073FE2E4840882E4948632E4888632B48FA
:101150004088C86350E000F057FE00F015FE00F034
:1011600033FE28482649486324484088886323483A
:101170004088C86340E000F017FE00F005FE00F074
:1011800053FE20481E4948631C48408888631B481A
:101190004088C86330E000F007FE00F055FE00F024
:1011A000E3FD164840881649486314484088886320
:1011B0001448C86320E000F027FE00F015FE00F0A0
:1011C000D3FD0E4840880E4948630E4888630B489B
:1011D0004088C86310E000F0B7FD00F035FE00F075
:1011E000F3FD064840880649486304484088886300
:1011F0000448C86300E000BF00BF10BDAC0400207D
:10120000002C0140B80B000010B5364800780300F0
:1012100001F089F80765051525354555650000F08D
:1012200093FD00F011FE00F0CFFD2E4840882E49BE
:1012300048632C48408888632C48C86350E000F01D
:10124000E3FD00F0D1FD00F08FFD264840882649DF
:1012500048632648886323484088C86340E000F01C
:10126000A3FD00F0F1FD00F07FFD1E4840881E49FF
:1012700048631C48408888631C48C86330E000F01D
:1012800093FD00F081FD00F0CFFD1848164948633A
:1012900014484088886313484088C86320E000F001
:1012A000B3FD00F071FD00F08FFD10480E4948635A
:1012B0000C48408888630B484088C86310E000F001
:1012C00043FD00F091FD00F0AFFD0648408806495F
:1012D00048630648886303484088C86300E000BF4D
:1012E00000BF10BDAC040020002C0140B80B000072
:1012F000002803D10021034A517002E00121014A74
:10130000517070470000002010B506484078002852
:1013100003D10449C868804702E002490869804750
:1013200010BD00000000002010B5FFF7DDFB0549EF
:10133000C868804704480078034948700020014984
:10134000087010BD00000020AC04002010B500F0B3
:10135000FBFC00F029FD00F057FD00200549486323
:101360008863C863012004490870FF202D300349B9
:10137000488010BD002C014000000020AC0400207B
:101380007047000000218278002A27D0184A0323E2
:101390001B02D21803789B109B00D1580278920749
:1013A000D30EFF229A400B46934319464278920788
:1013B000120E03789B07DB0E9A4011430C4A03235D
:1013C0001B02D21803789B109B00D1500278D306E1
:1013D000DB0E01229A40064B1A6007E00278D30622
:1013E000DB0E01229A40024B80331A6070470000E6
:1013F00000E100E0F0B585B006460F46F41B20463C
:10140000FFF762F80090134841680098FEF7C5FEA8
:10141000104902908968601AFFF761F800900D4842
:1014200001680098FEF7B9FE01900299FEF75CFE94
:101430000390FFF769F805460A2D01DD0A2504E04F
:101440000920C043854200DA0546024884602846E8
:1014500005B0F0BDE80400200348044948600020BE
:101460000860886070470000CDCCCC3DE8040020C7
:101470000C4949680122920391430A4A516011467E
:10148000496882B21143074A51601146096B9215AF
:101490009143044A11631146096B020C1143014A3E
:1014A0001163704700100240002905D0054A5269B7
:1014B0000243044B5A6104E0024A52698243014BE1
:1014C0005A61704700100240002905D0054AD269D0
:1014D0000243044BDA6104E0024AD2698243014BC1
:1014E000DA61704700100240002905D0054A926970
:1014F0000243044B9A6104E0024A92698243014B21
:101500009A61704700100240002905D0054AD26850
:101510000243044BDA6004E0024AD2688243014B82
:10152000DA607047001002400348406A0121090652
:1015300008430149486270470010024010B5024656
:101540000021002300205111002902D10C4C2368F6
:101550000BE0012902D10A4C236A06E0022902D1DC
:10156000074C636A01E0064C636BD106C90E012487
:101570008C401C40002C01D0012000E0002010BD58
:1015800000100240074A52687B23DB039A43054B55
:101590005A601A46526803460B431A43014B5A607D
:1015A000704700000010024001460020044A5068C5
:1015B0008008800002460A431046014A5060704786
:1015C00000100240F8B50121C9020920C006FFF74A
:1015D000DFFC0546012109030920C006FFF7D8FCFE
:1015E000044640212D48FFF7D3FC0646B0006100B9
:1015F000401840192A4908700846007849788842FE
:101600004BD028480078002847D12749087027493F
:10161000486AFEF764FF07463846FEF78EFF244906
:101620000A780978491C224B19709100214A5050C0
:1016300018460078042818DB002019460870042199
:101640001046FFF72EFA1B4949681A4A9268891812
:101650004800FEF744FF074639461748FEF7DAFD13
:101660000090FEF76AFF0E49C88000200F494862CB
:1016700012480078401C114908700846007810494B
:101680000978884209DD00200C490870054948693D
:1016900080470348007802494870F8BD00140048AC
:1016A000AC040020000000201F00002000200040AB
:1016B0001E000020C00400208096184A1C00002054
:1016C0001D000020704700001CB500200190009014
:1016D000454800680121090488434349086000BF68
:1016E0004148006801214904084000900198401CCD
:1016F00001900098002804D105210903019888422F
:10170000EED139480068012149040840002802D080
:101710000120009001E000200090009801283AD1BB
:10172000112032490860304840682F494860084617
:1017300040684860084640687F21C90388432A49B9
:10174000486008464068112109040843264948605A
:10175000084600680121090608432349086000BFC4
:10176000214800680121490608400028F8D01E4899
:101770004068800880001C49486008464068022193
:1017800008431949486000BF174840680C210840C9
:101790000828F9D127E01120144908601248406850
:1017A000114948600846406848600521C904002086
:1017B000FFF7E8FE0C4800680121090608430A49C2
:1017C000086000BF08480068012149060840002859
:1017D000F8D00220FFF7E8FE00BF034840680C2164
:1017E00008400828F9D11CBD00100240002002402A
:1017F000002006490881C880087048700871FF20E1
:101800002D3048800020C88108827047AC04002039
:1018100010B51B48006801210843194908600846B3
:10182000406818490840164948600846006816494B
:10183000084013490860084600680121890488436C
:101840000F490860084640683F21090488430C4955
:1018500048600846C06A00090001C8620846006B7B
:10186000FF2154318843064908630846406B40080D
:101870004000486300208860FFF726FF10BD00008D
:10188000001002400CB8FFF8FFFFF6FE10B5012172
:10189000054800F018FB002805D00121024800F09F
:1018A000E6FA00F003F810BD002000407047000089
:1018B0000EB501210802FFF707FE182168460180D6
:1018C0000021418007480190684601816946064829
:1018D00000F044FC0020044948620121024800F065
:1018E000C9FA0EBDFFFF00000020004010B5012125
:1018F000044800F0DEFA002803D00121014800F07E
:10190000B3FA10BD004001400EB501210804FFF7F5
:10191000EBFD0D49684601800021418009200190BE
:101920006846018181726946084800F017FC202151
:10193000064800F009FC0121044800F095FA012155
:10194000024800F097FA0EBDBF12000000400140AF
:1019500010B50121054800F0B6FA002805D0012194
:10196000024800F084FA00F003F810BD0044014082
:1019700010B511480088401E0F4908800F480088A4
:10198000401C0E490880084600887D2109018842D4
:1019900002DB002009490880FFF78CFA08484089DB
:1019A000401C074948810846C089401CC881084638
:1019B000008A401C088210BD200000202A00002060
:1019C000AC0400201FB501214804FFF78DFD10492C
:1019D000684681800021C18009200290684681818B
:1019E000817301A90B4800F0B9FB1521684601700D
:1019F0000021417001218170FFF7C4FC01221146D2
:101A0000044800F073FA0121024800F033FA1FBDC8
:101A1000BF1200000044014010B50121054800F04C
:101A200052FA002805D00121024800F020FA00F007
:101A300003F810BD004801407047000010B51021A8
:101A40001E4800F040FA002836D010211B4800F054
:101A50000EFAFFF7B7FD1A48007800282CD1194874
:101A6000007A002828D11748407A401C154948724E
:101A70000846407A32281FDD00204872124AD18879
:101A80001089FFF7B7FC0F4948600F4840888988E4
:101A900040180D49488008464088AF210901884216
:101AA00003DD08460849488006E007484088C82802
:101AB00002DAC8200449488010BD0000002C014013
:101AC0000000002038000020AC0400201CB50121DB
:101AD0004804FFF7E9FC01218804FFF7E5FC022236
:101AE00008210920C006FFF731FA02220921C806A1
:101AF000FFF72CFA02220A210920C006FFF726FA76
:101B000002220D211248FFF721FA02220E2110486D
:101B1000FFF71CFA02220F210D48FFF717FA0720E2
:101B20000002009002216846C171017169460920D6
:101B3000C006FFF7C3F90720400300900221684662
:101B4000C171017169460248FFF7B8F91CBD000078
:101B50000004004800B58DB00121C802FFF7C4FCA5
:101B600000216846018541852D480B906846018615
:101B700008A881740AA92B4800F0F0FA00216846F1
:101B80008180C180FF21013101813C2141810021FF
:101B90008181C181018201A9224800F0C5F860213C
:101BA000684681820121C1820421018300200790BF
:101BB0000021684601844184FF2101318184C18470
:101BC00005A9184800F09CF905A9164800F0E2F9AB
:101BD00005A9144800F034FAF02007900021684667
:101BE000018305A90F4800F077FA20210D4800F085
:101BF000ABFA012210210B4800F078F90E2168465B
:101C00000170012141708170FFF7BCFB0121054883
:101C100000F030F90121034800F03AF90DB000BDA1
:101C2000B80B0000002C014010B50121044800F061
:101C30004AF9002803D00121014800F018F910BD2D
:101C4000000400401CB501218804FFF72DFC01228F
:101C500005210948FFF77AF9202000900221684603
:101C6000017103214171002181710121C171694616
:101C70000148FFF723F91CBD0004004800B589B0F6
:101C800001210220FFF720FC0021684601834183E7
:101C9000154807906846018408A8817006A9134872
:101CA00000F05CFA6021684681800121C18000213A
:101CB0000181018208214182490181820021C18282
:101CC0000020039001A9094800F064F901210748A8
:101CD00000F0D0F80121054800F0DAF84B200001AF
:101CE0000249886309B000BD5F090000000400409C
:101CF0000EB501211020FFF7E7FB2F216846018078
:101D0000074801900021684641800181817269463F
:101D1000044800F023FA0121024800F0ABF80EBDA0
:101D2000FFFF0000001000400A884B881A438B8890
:101D30001A43CB881A430B891A434B891A438B8960
:101D40001A4344231A52704706480088400840004E
:101D50000449088008460088042188430149088016
:101D600070470000202C01400648008801210843EC
:101D70000449088008460088042108430149088076
:101D800070470000202C01400648008840084000B1
:101D90000449088008460088042108430149088056
:101DA00070470000202C014006480088102188431D
:101DB000044908800846008840218843014908807A
:101DC00070470000202C014006480088102108437D
:101DD00004490880084600884021084301490880DA
:101DE00070470000202C01400648008810218843DD
:101DF00004490880084600884021084301490880BA
:101E000070470000202C014006480088FF21013166
:101E10008843044908800846008809158843014919
:101E200008807047202C014006480088FF210131BE
:101E300008430449088008460088091508430149F9
:101E400008807047202C014006480088FF2101319E
:101E50008843044908800846008809150843014959
:101E600008807047202C0140CA4302827047CA4351
:101E700002827047002904D0028801231A4302809D
:101E800003E00288014B1A4002807047FEFF000009
:101E9000002907D04422125A0123DB031A434423AA
:101EA0001A5205E04422125A53045B0C4422135286
:101EB000704702460020138A0B40002B01D00120FE
:101EC00000E00020704730B50246002000230024C7
:101ED000158A0D402B4695890D402C46002B03D0CA
:101EE000002C01D0012000E0002030BD002A03D0EA
:101EF00083890B43838102E083898B43838170470D
:101F000070B5002400220023058C1C4E354005844A
:101F1000028C8388048B194D6F3D2C40B51E2C40DC
:101F20000D882C43751E2A408D892A434D882A43EB
:101F3000134DA84208D0134DA84205D0124DA84217
:101F400002D0124DA84212D10C4DED1F2A40CD896E
:101F50002A430A4DED1E2A408D882A43074DFF3D36
:101F60002B400B4D2B400D8A2B434D8A2B438380F6
:101F700004838D684563028470BD0000FEFF00008D
:101F8000002C014000400140004401400048014055
:101F9000FFFD000070B5002400220023058C214EB7
:101FA00035400584028C8388048B1F4D2C401F4DC7
:101FB0002C400D782D062D0C2C431A4D103D2A4037
:101FC0008D892D052D0C2A434D882D052D0C2A4376
:101FD000174DA84202D0174DA8421CD1164D2B40D8
:101FE0000D8AAD042D0C2B43114DA84213D10D4D7C
:101FF000703D2A40CD892D052D0C2A43094D303DD9
:102000002A408D882D052D0C2A430C4D2B404D8ADE
:10201000AD042D0C2B43838004838D68856302847B
:1020200070BD0000EFFF0000FF8F0000FFFC00000C
:10203000002C014000400140FFFB0000FFF70000C2
:1020400070B5002400220023058C1C4E3540058409
:10205000028C8388848B194D90352C40174DFD35AB
:102060002C400D882C43164D2A400D7B2D062D0C3F
:102070002A438D782D062D0C2A43124DA84217D1E4
:10208000114D2A408D7B2D062D0C2A430F4D2A40E1
:102090000D792D062D0C2A430D4D2B400D4D2B4057
:1020A0000D8A2D052D0C2B434D8A2D052D0C2B4310
:1020B000838084838D68C563028470BDFFFE000049
:1020C000FFFD0000002C0140FFF70000FFFB0000B7
:1020D000FFEF0000FFDF000070B5002200230024A6
:1020E000058C134E35400584038C8488828B114DFA
:1020F0002A40114D2A400D782D062D0C2A430F4DF4
:102100002B400D7B2D072D0C2B438D782D072D0C8F
:102110002B430B4DA84205D10A4D2C400D8AAD052D
:102120002D0C2C43848082838D680564038470BDEC
:10213000FFEF0000FF8F0000FFFC0000FFDF00004A
:10214000002C0140FFBF00008288034B1A408280B0
:1021500082880A43828070478FFF00000022028835
:10216000154B984206D001239B07984202D0134B8F
:10217000984203D1124B1A404B881A43114B984294
:1021800003D0114B1A400B891A4302804B68C3627B
:102190000B880385084B984208D00C4B984205D019
:1021A0000B4B984202D00B4B984201D18B7A03869D
:1021B0000123838270470000002C0140000400408E
:1021C0008FFF000000100040FFFC000000400140B5
:1021D000004401400048014010B5FFF7BBFCFFF789
:1021E0004DFDFFF785FDFFF763FBFFF78DFBFFF765
:1021F000E9FB10BD10B50649064800F020F800289C
:1022000005D000F043F80249024800F00FF810BD75
:10221000040104000038014010B50249024800F0F2
:102220000EF810BD040104000044004010B5002366
:1022300000220B0C01249C402246026210BD70B5A6
:1022400002460B4600240021002500201E04350E06
:10225000D9B201268E403146012D02D11668314097
:1022600006E0022D02D15668314001E09668314007
:102270001C0C0126A6403446D6693440002903D000
:10228000002C01D0012000E0002070BD00200A4990
:10229000C969C8B2084920318988C8B20749496B61
:1022A000C8B2FF21081A0649C8800021054A115406
:1022B000012203494A707047003801400000024083
:1022C0006C0200206C00002010B55D20FFF736F98D
:1022D000002801D0FFF728F90648FEF7B1FE0320D9
:1022E000FEF7A2FE7D20FEF7A5FEFEF795FEFEF7A7
:1022F0008BFE10BD555500002021020C01D010218D
:102300001046020A01D010460839020901D01046D1
:10231000091F820801D01046891E420801D0881E7C
:102320007047081A704730B47446641E2578641CE0
:10233000AB4204D3635D5B00E31830BC18471D4615
:10234000F8E702E008C8121F08C1002AFAD1704756
:102350007047002001E001C1121F002AFBD1704725
:10236000FEF770FAFEF702FAFFF742FAFEF71CFEDC
:10237000FFF772F8FFF730FFFFF7A6FF0249486842
:10238000804700BFFEE7000000000020AC230008EB
:102390000000002060000000422300080C24000818
:1023A000600000209808000052230008010100008E
:1023B000291300084D130008091200082111000814
:1023C00009130008F11200080000000000000000DE
:1023D00000000000000000000000000000000000FD
:1023E00000000000000000010000000001000000EB
:1023F000010001000100000001010100511000086E
:0C240000C51000084D100008000000008E
:04000005080000B53A
:00000001FF
