:020000040800F2
:1000000078050020010100084F1C0008E7190008CE
:100010004D1C0008010500087921000800000000BF
:10002000000000000000000000000000731C000839
:100030007705000800000000711C0008751C00080E
:100040001B0100081B0100081B0100081B01000820
:100050001B0100081B0100081B0100081B01000810
:100060001B0100081B0100081B01000841050008D6
:100070001B0100081B0100081B0100081B010008F0
:100080001B0100081B0100081B0100081B010008E0
:100090001B0100081B0100081B0100081B010008D0
:1000A0001B010008251D00081B0100081B0100089A
:1000B0001B0100081B0100081B0100081B010008B0
:1000C0001B0100081B0100081B0100081B010008A0
:1000D0001B0100081B0100081B0100081B01000890
:1000E000790500081B0100081B010008DFF80CD08F
:1000F00000F05CF900480047B921000878050020AD
:100100000648804706480047FEE7FEE7FEE7FEE7B1
:10011000FEE7FEE7FEE7FEE7FEE7FEE7DD1C000880
:10012000ED000008D2B201E000F8012B491EFBD21D
:1001300070470022F6E710B513460A4604461946F2
:10014000FFF7F0FF204610BDF0B480EA0102D40FA3
:100150004200B2EB410F02D20246084611464A0065
:1001600042D0C30DDDB2C1F3C752AD1A202D35DA2E
:10017000C1F3160141F4000204B15242C5F1200658
:1001800002FA06F12A411044B3EBD05F23D0C4B188
:10019000012DA0EBC35009DCF0BC4FF0004202EA95
:1001A000C352DBB200F5000000F0D1B8400000F10E
:1001B000807000EBC350A0F1807040EAD17049001C
:1001C00009E0490841EAC071A0EBC35000F5000006
:1001D000400800EBC350F0BC00F0B0B8614201220F
:1001E00002EB4101001BF6E7F0BC704781F00041D3
:1001F000AAE780F00040A7E780EA010210B502F00C
:100200000043400022D04A001FD0010E01EB1261D2
:10021000C0F35600C2F3560240F4000042F400025C
:10022000A0FB022000047F39140400D0401C50EAD7
:10023000124001D44000491EC2B20C0604EBD0109B
:10024000401C4008802A02D003E0002010BD20F0AE
:100250000100002900DA0020184310BD30B480EA04
:10026000010202F0004530F0004221F0004013D0BE
:1002700090B1C30DD40DC2F31601C0F31600E41AF9
:1002800041F4000140F400027D34914201D3641C2A
:1002900000E04900002C02DA30BC002070474FF427
:1002A00000000023914201D3891A034340084FEA1A
:1002B0004101F7D151B1914202D14FF0004105E027
:1002C00002D24FF0010101E06FF0010103EBC450D5
:1002D000284430BC00F032B8C10F80EAE070084416
:1002E000CA079623002100F032B820F00040C10D6B
:1002F000C0F3160040F400007F2901DA00207047A7
:10030000962903DCC1F19601C840704796398840B0
:1003100070470000002801DBC0F10040002901DB2C
:10032000C1F1004181427047002801DBC0F100406B
:10033000002901DBC1F10041884270470029A8BFB4
:100340007047401C490008BF20F00100704710B4FE
:10035000B0FA80FC00FA0CF050EA010404BF10BCB3
:10036000704749B1CCF1200421FA04F411FA0CF1E0
:1003700018BF012121430843A3EB0C01CB1D4FEA19
:1003800000614FEA102042BF002010BC704700EB14
:10039000C35010440029A4BF10BC7047401C490042
:1003A00008BF20F0010010BC70470000064C074D4C
:1003B00006E0E06840F0010394E807009847103435
:1003C000AC42F6D3FFF796FE14230008342300084E
:1003D00070B5044600688168C943C9071CD18168AB
:1003E00021F00101816000F0BFFC05460FE000BF75
:1003F00000F0BAFC401B022809D9A06A40F01000A6
:10040000A062E06A40F00100E062012070BD206857
:100410008068C043C007EBD0002070BD10B5014616
:10042000406A826A12F0500F05D0006A026BBDE884
:10043000104008461047816A41F4007181620168EA
:100440008968C1F3424107290CD1C16851B9816A59
:1004500021F480718162816AC90403D4816A41F008
:100460000101816200F00CF910BD10B5406A816A8B
:1004700041F040018162C16A41F00401C16200F0B3
:1004800001F910BD10B5406A00F0FBF810BD000086
:10049000F8B500260446009600688168C943C9077C
:1004A00028D0816841F00101816013481349006838
:1004B000B0FBF1F000E0401E00900028FBD100F0FE
:1004C00053FC054611E000BF00F04EFC401B022823
:1004D0000BD9A06A40F01000A062E06A40F0010071
:1004E000E06284F824600120F8BD20688068C04381
:1004F000C007E9D10020F8BD4000002040420F00B5
:10050000FEE7F0B54FF6FF731AB100244AF2010678
:1005100010E0002310E0055D6B400025DF0702D0EE
:1005200086EA530300E05B086D1CADB2082DF5D3DD
:10053000641CA4B29442EED30B70180A4870F0BD4C
:10054000014800F0FDB90000B400002030B590F87B
:1005500040500124AC40C56B6C6004686360436824
:10056000102B036803D099600068C26030BD9A60A8
:100570000068C16030BD70474FF4005000F004BB0C
:1005800070470000F8B50024009490F82420254618
:10059000012A12D0012280F824204A681F23072A4A
:1005A0000DD20668776B521E02EB820293409F4386
:1005B0000B6893401F43776319E00220F8BD06687B
:1005C0000D2A0AD2376BD21F02EB820293409F435F
:1005D0000B6893401F43376309E0F76A0D3A02EB5B
:1005E000820293409F430B6893401F43F7620A685F
:1005F000072306680A2A0AD3F7680A3A02EB42027E
:1006000093409F438B6893401F43F76008E037692E
:1006100002EB420293409F438B6893401F43376134
:100620000A68102A01D0112A20D1124B02689A427E
:1006300017D193681B0219D4936843F400039360A5
:100640000968102912D10C490C4A0968B1FBF2F172
:1006500001EB8101490000E0491E00910029FBD116
:1006600004E0816A41F020018162012480F8245075
:100670002046F8BD002401404000002040420F0009
:1006800070477047704700002DE9F0414FF00007B8
:1006900004003D467ED0A06A002628B9E66284F8B0
:1006A0002460204600F07EF82046FFF791FEA16A04
:1006B000C90600D420B1A06A40F01000A06269E031
:1006C000A16A21F4885141F00201A1626268E169E6
:1006D000E3680A4347EA43010A43A1684FF480777D
:1006E000B94209D0012907D05FF00001D4F814C045
:1006F000BCF1010F02D00AE03946F7E7F3B1A36A73
:1007000043F02003A362E36A43F00103E36223683A
:10071000D3F804C02CF4694C4CEA010CC3F804C0B3
:1007200021688B68DFF870C003EA0C0313438B6009
:10073000A168B9420BD0012909D00CE0DFF85CC0F8
:10074000A3690CEB43330B4343F40061DFE7218AD9
:100750000D05A5F580152168CB6A23F470032B43A2
:10076000CB62216889680E4B1940914208D1E6623C
:10077000A16A21F0020141F00101A162BDE8F0810E
:10078000A06A20F0020040F01000A062E06A40F091
:100790000100E0620120F1E7FDF7E1FF00E0FFFF6B
:1007A000FE0E1FFF70B586B0002506460095019528
:1007B0000295039500681A4988422ED11949886923
:1007C00040F400708861886900F4007004908869C2
:1007D00040F0100088618869694600F010000490BC
:1007E00002200090032001900F4800F0D9F9104C2E
:1007F0000E48C4E900058020C4E902504000206191
:10080000800060612020C4E90605204600F042F91E
:1008100008B1FFF7B5FE3462666206B070BD000035
:100820000024014000100240001001400800024076
:10083000B40000202DE9F047894604463B49006892
:100840003B4F0E1D9046884201D0B84207D1306818
:1008500010F4702F03D001252846BDE8F08794F8E6
:10086000240001280CD0012084F824002046FFF742
:100870000FFE05004FF0000004D084F82400EBE7E1
:100880000220EAE7A16A40F60162914341F48071D7
:10089000A1622168B94218D1326812F4702F14D0C5
:1008A000A16A41F48011A1623168490505D5A16AA8
:1008B00021F4005141F48051A162A16AC9040AD512
:1008C000E16A21F00601E16206E0A26A22F48012E8
:1008D000A2624968E9E7E06284F82400216A1548C9
:1008E0008862216A1448C862216A14480863216832
:1008F0006FF0020008602068816841F480718160B7
:10090000216843464A464C31206A00F0F1F82068DD
:100910008168C1F342410729816803D041F4801105
:10092000816099E741F4A001FAE70000002401404A
:10093000002801401D040008850400086B0400081D
:100940002DE9F05FC16B0C6801680B68D0F840C0FE
:10095000042202FA0CF2494DDFF824A1494E4A4F15
:10096000DFF828B1DFF828E122422CD05A072AD537
:100970000A68920603D40A6822F004020A60016839
:10098000A94201D1042219E0514501D1402215E0CC
:10099000B14202D14FF4806210E0B94202D14FF46B
:1009A00080420BE0594502D14FF4802206E07145A8
:1009B00002D14FF4800201E04FF080622F490839E4
:1009C0004A60C16A3BE04FF0020808FA0CF818EAE6
:1009D000040F4FF000094FF0010235D05FEA837831
:1009E00032D50B689B0605D40B6823F00A030B6015
:1009F00080F821200168A94201D1022219E0514565
:100A000001D1202215E0B14202D14FF4007210E072
:100A1000B94202D14FF400520BE0594502D14FF4D4
:100A2000003206E0714502D14FF4001201E04FF0B0
:100A30000072124908394A6080F82090816A0029C2
:100A40001AD0BDE8F05F0847082505FA0CF52542E5
:100A500012D01B0710D50B6823F00E030B6090F823
:100A60004010C36B02FA01F15960826380F82120C3
:100A700080F82090016BE2E7BDE8F09F080002409B
:100A80001C00024030000240440002405800024076
:100A90006C00024030B528B308C813491422194429
:100AA000B1FBF2F18900C1631049816302214177F2
:100AB0001A6843F6F0718A43D0E900142143D0E963
:100AC00002452C432143046921434469214384693D
:100AD00021431143196000214163012242770177CC
:100AE000084630BD012030BDF8FFFDBF00000240C8
:100AF00070B5044690F82000002501280CD0012094
:100B000084F8200094F821600020012E06D084F89B
:100B100020000225284670BD022070BD022684F800
:100B20002160A0632068066826F001060660204662
:100B3000FFF70CFDE06A00282068016802D041F050
:100B40000E0106E021F0040101602068016841F017
:100B50000A0101602068016841F001010160D9E7E4
:100B600070B5044600F000F90546601C02D0044848
:100B70000078044400F0F8F8401BA042FAD370BD9E
:100B80003400002070470000044910B50A68024292
:100B900002D00860FFF7F6FF10BD0000140401400A
:100BA0002DE9F84FDFF890A100220AF1040B14465A
:100BB00001274FF00F090BF1040E00BF0B6807FA75
:100BC00004F52B40AB4274D1DFF870C14E68A6EB40
:100BD0000C0866452BD00DDC032E34D005DC36B373
:100BE000012E19D0022E2FD11BE0112E16D0122E5D
:100BF0002AD119E0B8F5881F19D006DCB8F5803F76
:100C000015D0B8F5801F1FD111E0B8F5001F0ED028
:100C1000B8F5041F18D10AE0CA6815E0CA68121DA9
:100C200012E0CA6808320FE0CA680C320CE08A6829
:100C30002AB1012A4FF0080203D0456104E00422E2
:100C400002E0056100E00022FF2B01D8064601E02A
:100C500000F104064FEA840501D9A5F12005D6F874
:100C600000C009FA05F82CEA080C02FA05F54CEA6E
:100C7000050CC6F800C04D68ED0057D5304DAE6983
:100C800046F00106AE61AD6924F0030605F00105EA
:100C900000952C4D06EB050CDCF80850A6074FEA32
:100CA000167809FA08F6B543274EB04202D100265D
:100CB00010E03BE0254EB04201D101260AE0244E6F
:100CC000B04201D1022605E0224EB04201D10326F6
:100CD00000E0042606FA08F62E43CCF808604D68BA
:100CE000DAF80060ED03554601D51E4300E09E434F
:100CF0002E604D68DBF80060AD035D4601D51E43F4
:100D000000E09E432E604D68DEF80060ED027546FF
:100D100001D51E4300E09E432E604D68AD020E4D8E
:100D20002E6801D51E4300E09E432E60641C102CEB
:100D3000FFF444AFBDE8F88F00040140000011103B
:100D4000001002400000014000080140000C01407A
:100D500000100140001401400C0401400AB101617F
:100D600070470904FBE700000148806870470000F5
:100D70003400002002488168027811448160704785
:100D800034000020074810B5016841F010010160EF
:100D9000032000F073F8012000F006F800F024F8BA
:100DA000002010BD0020024070B50D4D04464FF4E8
:100DB0007A712878B1FBF0F00A490968B1FBF0F0CC
:100DC00000F072FB48B9102C07D200222146501EB9
:100DD00000F034F800206C6070BD012070BD000090
:100DE00034000020400000200C4808B5816941F023
:100DF00001018161816901F001010091C16941F046
:100E00008051C161C06900F0805000900448416881
:100E100021F0E06141F00071416008BD0010024026
:100E20000000014000F01F020121914040098000B4
:100E300000F1E020C0F8001170470000F0B40E4B44
:100E40001B680C46C3F30223C3F10705042D00D928
:100E50000425191D072901D2002300E0DB1E01260D
:100E600006FA05F1491E214099409E40761E164023
:100E70003143F0BC00F0ECBE0CED00E0064900F0A0
:100E8000070208684FF6FF03184040EA0220034AB1
:100E900010430860704700000CED00E00000FA0508
:100EA0002DE9F84305460078354CC00754D0E06979
:100EB0000026C00008D4E06940F08050E061E0699D
:100EC000012600F0805000902E480168C90512D418
:100ED0000168804641F480710160FFF745FF0746D5
:100EE00005E000BFFFF740FFC01B642823D8D8F8F7
:100EF0000000C005F6D5206A10F4407021D0A98802
:100F000001F4407181421CD0206A1F49012220F463
:100F100040700A6000220A602062C00711D0FFF70B
:100F200023FF074641F2883808E000BFFFF71CFFA7
:100F3000C11B414502D90320BDE8F883206A800720
:100F4000F4D5206A696820F44070084320621EB11D
:100F5000E06920F08050E0612878800705D560685E
:100F6000A96820F44040084360602878C00605D591
:100F70006068E96820F48000084360600020DBE7D7
:100F80000010024000700040400442422DE9F0474A
:100F9000DFF8548105460E46D8F8000000F007003F
:100FA000B0420CD2D8F8001021F007013143C8F844
:100FB0000010D8F8000000F00700B0426FD1286898
:100FC0004A4C810712D5400703D5606840F4E060C1
:100FD00060602878000703D5606840F46050606066
:100FE0006068A96820F0F000084360602878C007B6
:100FF00044D06868012816D02168022816D08907D5
:1010000000294CDA616821F0030101436160FFF7B8
:10101000ABFE6968074641F2883001290ED00229EB
:10102000814618D026E021688903E9E78901E7E7CE
:10103000FFF79AFEC11B494501D918E08146606857
:10104000C0F381000128F3D118E000BFFFF78CFE48
:10105000C11B49450BD86068C0F381000228F5D157
:101060000CE000BFFFF780FEC11B494502D90320F9
:10107000BDE8F087606810F00C0FF3D1D8F80010CD
:10108000404601F00701B1420BD9016821F0070188
:1010900031430160006800F00700B04201D0012038
:1010A000E6E72878400705D56068E96820F4E06045
:1010B000084360602878000706D56068296920F435
:1010C000605040EAC100606000F036F86168084A8C
:1010D000C1F30311515CC840064908600120FFF7C5
:1010E00063FE0020C4E70000002002400010024020
:1010F000FC220008400000200448054900684968B7
:10110000044AC1F30221515CC840704740000020EE
:10111000001002400C230008044805490068496893
:10112000044AC1F3C221515CC8407047400000200E
:10113000001002400C23000812A185B00FC98DE8F1
:101140000F0014A0144A006804905168134801F07D
:101150000C03042B10D0082B0ED1C1F38343C90319
:101160001DF803000AD5516804AAC1F34041515C3F
:101170000A4A5043B0FBF1F005B0704708494843B4
:10118000FAE7000002030405060708090A0B0C0D24
:101190000E0F1010010200000010024000127A0031
:1011A00000093D002DE9F84F04460078B94DC0070D
:1011B00048D06868C0F38100012807D06868C0F390
:1011C0008100022809D16868C00306D52868800319
:1011D00038D5606800286FD034E06068B0F5803F93
:1011E0000BD010B1B0F5A02F11D0286820F48030BA
:1011F0002860286820F4802002E0286840F48030CD
:101200002860606888B1FFF7AFFD064609E02868EE
:1012100040F480202860F0E7FFF7A6FD801B6428DB
:1012200075D828688003F7D50CE0FFF79DFD0646CA
:1012300005E000BFFFF798FD801B6428F0D8286800
:101240008003F7D42078944E80074FF001094FF0C7
:1012500000083BD5686810F00C0F07D06868C0F331
:101260008100022809D16868C00306D42868800775
:1012700014D5206901281FD110E02069B0B1C6F84B
:101280000090FFF771FD074605E000BFFFF76CFD1A
:10129000C01B0228C4D828688007F7D52868616970
:1012A00020F0F80040EAC10028600FE0C6F8008096
:1012B000FFF75AFD074606E0E9E000BFFFF754FDDF
:1012C000C01B022823D828688007F7D4207800079D
:1012D0002CD57248A169D9B1C0F80090FFF744FD40
:1012E000074604E0FFF740FDC01B02280FD8686ADC
:1012F0008007F7D56A484FF4FA510068B0FBF1F067
:10130000009000BF0098411E0091FAD20EE080E0EC
:10131000C0F80080FFF728FD074604E0FFF724FD32
:10132000C01B022875D8686A8007F7D42078400768
:1013300060D5E8690027C00008D4E86940F0805013
:10134000E861E869012700F0805000905548016885
:10135000C90513D40168834641F480710160FFF729
:1013600003FD824606E000BFFFF7FEFCA0EB0A008B
:1013700064284ED8DBF80000C005F5D5E0680128E8
:101380000AD008B1052813D0286A20F0010028628D
:10139000286A20F0040002E0286A40F00100286278
:1013A000E06841F2883B98B1FFF7DEFC82460BE033
:1013B000286A40F004002862EEE700BFFFF7D4FC83
:1013C000A0EB0A0159455AD8286A8007F6D50CE0E7
:1013D000FFF7CAFC824605E0FFF7C6FCA0EB0A0156
:1013E00059454CD8286A8007F6D41FB1E86920F027
:1013F0008050E861E06988B36968C1F3810102291E
:1014000045D00228C6F8608004D0FFF7ADFC044642
:1014100038E034E0FFF7A8FC074604E0FFF7A4FC3F
:10142000C01B02282BD828688001F7D4206AB0F5A9
:10143000803F05D16868A16820F4003008436860E7
:10144000D4E908010843696821F47411084368600D
:10145000C6F86090FFF788FC044606E015E000BF80
:10146000FFF782FC001B022809D828688001F7D505
:101470000BE000BFFFF778FC001B022802D9032015
:10148000BDE8F88F28688001F4D40020F8E7012037
:10149000F6E7000000100240000042428004424291
:1014A000400000200070004010B5401EB0F1807F69
:1014B00001D3012010BD4FF0E02460610F216017BF
:1014C00000F0C6FB0020A06107202061002010BDB5
:1014D00010B590F83C20012A25D0012280F83C204C
:1014E000CA688C6822F4407222434C6822F48062FD
:1014F00022430C6822F4006222430C6922F48052D9
:1015000022434C6922F4005222438C6922F4804227
:10151000224322F40041026800232143516480F8F1
:101520003C30002010BD022010BD30B590F83C20AA
:10153000012A20D0012280F83C20022380F83D308F
:1015400003685C6824F070045C6003685C680D6884
:101550002C435C6003689C6824F080049C600368F2
:101560009C6849680C439C6080F83D20002180F80D
:101570003C10084630BD022030BD10B5040003D039
:1015800094F83D0010B107E0012010BD002084F860
:101590003C00204600F00CF8022084F83D00211D9C
:1015A000206800F0E5FB012084F83D00002010BD1C
:1015B00038B5044600680D49884215D10C48816948
:1015C00041F4006181618069002200F400600090B4
:1015D00011461920FFF732FC1920FFF723FC206881
:1015E000C16841F00101C16038BD0000002C01401C
:1015F0000010024070B5044690F83C00012817D056
:10160000012584F83C50022084F83D00206882685F
:1016100022F0770222F47F4282600868502837D097
:101620000DDC202859D005DC88B3102841D151E0C9
:10163000022070BD302853D040283AD13FE06028C6
:101640002ED070280BD0B0F5805F03D0B0F5005FCE
:101650002FD110E02068816821F0070115E0CB68E8
:10166000D1E90121206800F0C4FB2168886840F0BE
:10167000770088601DE0CB68D1E90121206800F087
:10168000B8FB2068816841F48041816011E01EE070
:10169000CA684968206800F061FC5021206806E0B3
:1016A000CA684968206800F06AFC6021206800F080
:1016B000AAFB84F83D50002084F83C0070BDCA6845
:1016C0004968206800F04AFC40212068EFE70021CB
:1016D0002068ECE710212068E9E720212068E6E790
:1016E00030212068E3E7000000B585B000210091BB
:1016F00001910291039100680B49884212D10B4875
:10170000816941F0040181618069694600F004004B
:1017100004904FF440700090022001900390044820
:10172000FFF73EFA05B000BD002C0140001002405A
:101730000008014070B5044690F83C000D460128B1
:101740000DD0012684F83C60022084F83D0042B1AF
:10175000042A18D0082A2AD00C2A4DD139E00220B8
:1017600070BD206800F058FB2068816941F00801D5
:1017700081612068816921F00401816120688169AB
:101780002A69114311E0206800F06EFB206881692E
:1017900041F4006181612068816921F48061816187
:1017A000206881692A6941EA0221816124E0206878
:1017B00000F086FB2068C16941F00801C161206822
:1017C000C16921F00401C1612068C1692A6911431E
:1017D00011E0206800F0A0FB2068C16941F40061BD
:1017E000C1612068C16921F48061C1612068C1695B
:1017F0002A6941EA0221C16184F83D60002084F831
:101800003C0070BD10B5040003D094F83D0010B149
:1018100007E0012010BD002084F83C00204600F0C5
:101820000CF8022084F83D00211D206800F0A0FA89
:10183000012084F83D00002010BD704710B504461B
:101840000068012200F0CAFA07492068884203D1E3
:10185000416C41F4004141642068016841F001019C
:101860000160002010BD0000002C014070B5040094
:1018700004D094F83900002510B106E0012070BDB5
:1018800084F83850204600F023F8242084F83900EA
:101890002068C16821F40051C160204600F082FB3D
:1018A0002068016921F4904101612068416921F0BB
:1018B0002A0141612068C16841F40051C160E563BB
:1018C000202084F8390084F83A00002070BD000020
:1018D00000B585B00021009101910291039100684B
:1018E0000F49884219D10F48C16941F40031C161E3
:1018F000C16901F400310491816941F00401816101
:101900008069694600F0040004900C2000900220D9
:10191000019003900448FFF743F905B000BD0000B3
:101920000044004000100240000801402DE9F84347
:10193000044690F839001F4616460D46202850D11F
:10194000A5B19EB194F8380001284AD0012084F84E
:1019500038004FF00008C4F83C80212084F839009A
:10196000FFF702FAA6848146E68426E00120BDE85E
:10197000F883E08C401EE084A0684B46B0F5805FA1
:101980004FF000024FF080012046009703D000F096
:10199000C1FBE8B90DE000F0BDFBC8B9288821689B
:1019A000C0F308004860206908B16D1C05E0AD1C5B
:1019B00003E0216815F8010B4860E08C0028D8D1BD
:1019C0004B46002240212046009700F0A3FB08B1BF
:1019D0000320CCE7202084F8390084F838800020E8
:1019E000C5E70220C3E7FEE73EB50021114800919C
:1019F00001910F4A029102600124C0E90214416181
:101A00004FF460220461C2614160FEF73DFE08B1FF
:101A1000FEF7B6FD0B20CDE90004694605480294A7
:101A2000FEF7B0FD002801D0FEF7AAFD3EBD000084
:101A30000024014084000020094808B5416941F0B4
:101A4000010141614069002200F00100009011464F
:101A50000B20FFF7F3F9BDE808400B20FFF7E2B9D0
:101A6000001002402DE9F04385B000242E48009478
:101A7000019402940394816941F0100181618169AC
:101A800001F010010491816941F0200181618169B7
:101A900001F020010491816941F0040181618169B3
:101AA00001F004010491816941F0080181618069BC
:101AB000DFF8788000F008000490002220214046E2
:101AC000FFF74CF9DFF868904FF440670022394681
:101AD0004846FFF743F94FF4005000901548CDE910
:101AE000010469464846FFF75BF8202001250226DD
:101AF000CDE90005CDE9024669464046FFF750F8BA
:101B000000970396CDE9015469464846FFF748F827
:101B1000002211462820FFF791F92820FFF782F9CB
:101B200005B0BDE8F083000000100240000801404D
:101B3000001001400000111010B594B000240E9464
:101B40000F941094119412941C2168461394FEF77C
:101B5000F0FA1C2107A8FEF7ECFA2D482B4901608A
:101B60000221C0E9011440F2E731C0E90314012168
:101B7000C0E90514FFF701FD08B1FEF701FD4FF4C0
:101B800080500E900EA92248FFF734FD08B1FEF7F1
:101B9000F7FC1F48FFF736FE08B1FEF7F1FC129480
:101BA00012A91B481394FFF7C0FC08B1FEF7E8FC2C
:101BB0006020CDE90004029403940494059400226B
:101BC000694613480694FFF7B5FD08B1FEF7D8FC47
:101BD000042269460E48FFF7ADFD08B1FEF7D0FCC0
:101BE0000794089409944FF400500A94CDE90B40EF
:101BF00007A907480D94FFF76BFC08B1FEF7C0FC7E
:101C00000348FFF771FD14B010BD0000002C014027
:101C1000F80000200C4810B50A4901604FF4E1318A
:101C20004160002181600C22C160C0E90412816121
:101C3000C161FFF71BFE002803D0BDE81040FEF78E
:101C40009FBC10BD0044004038010020FEE77047F3
:101C50000907090E002806DA00F00F0000F1E02065
:101C600080F8141D704700F1E02080F800147047E0
:101C700070477047FFF77EB830B593B028216846AB
:101C8000FEF757FA14210AA8FEF753FA00240F941E
:101C90001094119401204FF4A02112948DE81300A8
:101CA000049002250004CDE907504FF4E01009909C
:101CB0006846FFF777FA0F20CDE90A056802CDE9FB
:101CC0000C4002210AA80E94FFF760F9A8031190B6
:101CD0000F950FA8FFF7E4F813B030BD0D48016869
:101CE00041F00101016041680B4A11404160016807
:101CF0000A4A11400160016821F4802101604168B5
:101D000021F4FE0141604FF41F0181600449C003CA
:101D100008607047001002400000FFF8FFFFF6FE69
:101D200008ED00E070B50E4C20680169C943C90791
:101D300015D1891E016100F02FFAFEF7CDFA09498D
:101D4000FEF78CFA084D6860284600F0A7FA0749AC
:101D5000A868FEF751FAFEF7C8FA2168486370BD1B
:101D6000F800002000F07F450000002000007A44C9
:101D7000F0B50268164B174C174D4FF0804798424C
:101D800005D0B84203D0A04201D0A84203D122F02E
:101D900070064A683243984205D0B84203D0A04248
:101DA00001D0A84203D122F44074CA68224322F031
:101DB00080044A69224302608A68C2620A688262B9
:101DC000984201D10969016301214161F0BD000020
:101DD000002C0140000400400008004010B5012321
:101DE000046A8B409C430462036A8A401343036283
:101DF00010BD10B5846842EA032224F47F440A43EC
:101E00002243826010BD826822F070020A4342F0D1
:101E1000070181607047000030B5026A22F00102BC
:101E20000262026A4368846924F073050C682C43DB
:101E300022F002058A682A430A4DA8420BD122F0FB
:101E40000805CA6823F440732A434D6922F004024E
:101E50001D438B692B43436084614968416302627F
:101E600030BD0000002C014030B5026A22F01002A3
:101E70000262026A436884690D6824F4E64444EA15
:101E800005248D6822F0200242EA05120B4DA8427B
:101E90000ED1CD6822F0800242EA05124D6923F48A
:101EA000406343EA85038D6922F0400243EA8503DB
:101EB0004360846149688163026230BD002C014047
:101EC00030B5026A22F480720262036A4268C46911
:101ED00023F4007324F073050C682C438D6843EAE7
:101EE00005230C4DA8420ED1CD6823F4006343EACC
:101EF00005234D6922F4405242EA05128D6923F40C
:101F0000806342EA05124260C4614968C1630362AA
:101F100030BD0000002C014030B5026A22F480522E
:101F20000262046A4268C3690D6823F4E64343EA27
:101F300005238D6824F4005444EA0534064DA84274
:101F400004D14D6922F4804242EA85124260C361A5
:101F500049680164046230BD002C014010B5036A79
:101F6000046A24F001040462846924F0F00444EA61
:101F7000021423F00A020A438461026210BD10B504
:101F8000036A23F0100303628369046A23F4704335
:101F900043EA023224F0A00343EA011182610162A4
:101FA00010BD00002DE9F041044600680169E268B7
:101FB00021F44051114301612169A068084361691E
:101FC00008432168CA6841F20C639A430243CA601D
:101FD00020684169A26921F44071114341614C4973
:101FE00020686425322688423CD1FFF795F800EB43
:101FF000C00101EB001061688900B0FBF1F7FFF749
:102000008BF800EBC00101EB00106168B04689005D
:10201000B0FBF1F0B0FBF5F06FF01801484307EBAF
:10202000800106EB0110B0FBF5F000F0F006FFF7C1
:1020300073F800EBC00101EB001061688900B0FB90
:10204000F1F0B0FBF5F006EB0016FFF765F800EBDA
:10205000C00101EB001061688900B0FBF1F7FFF7E8
:102060005BF83BE0FFF748F800EBC00101EB001024
:1020700061688900B0FBF1F7FFF73EF800EBC001A3
:1020800001EB00106168B0468900B0FBF1F0B0FBD5
:10209000F5F06FF01801484307EB800106EB0110E3
:1020A000B0FBF5F000F0F006FFF726F800EBC001FA
:1020B00001EB001061688900B0FBF1F0B0FBF5F0B6
:1020C00006EB0016FFF718F800EBC00101EB00105B
:1020D00061688900B0FBF1F7FFF70EF800EBC00173
:1020E00001EB001061688900B0FBF1F0B0FBF5F086
:1020F0006FF01801484307EB800108EB0110B0FBBB
:10210000F5F0216800F00F0030448860BDE8F081F0
:10211000003801402DE9F041984617460E46044626
:10212000069D1DE0681C1BD02DB1FEF71DFEA0EB27
:102130000800A84214D92068C16821F4D071C16098
:102140002068416921F001014161202084F83900B3
:1021500084F83A00002084F838000320BDE8F081BC
:102160002068006836EA000004D00020B842D9D0C8
:102170000020F3E70120F9E7FEE702E008C8121F9C
:1021800008C1002AFAD170477047002001E001C160
:10219000121F002AFBD170470021064A084600BFE3
:1021A00032F81030401CC0B219442028F8D3C1F3D3
:1021B0004F107047440000200EB5FEF7E3FDFFF717
:1021C0005BFDFFF74FFCFFF737FCFFF723FDFFF741
:1021D000B3FCFFF709FC202226492748FEF72AFB1B
:1021E00000212648FFF72AFB04212448FFF726FB9D
:1021F000234C012291022046FEF7B0FD0122D102BC
:102200002046FEF7ABFD1D490020096888631D4C80
:102210004FF07C501E4EE0601B48206160611B48FF
:102220001C4F02AD206031462068FDF7E5FFFEF748
:102230005CF8ADF8000031466068FDF7DDFFFEF7A1
:1022400054F8ADF802003946A068FDF7D5FFFEF757
:102250004CF8ADF80400082229466846FEF751F90B
:102260000A231A4669460C48FFF760FB0220FEF776
:1022700077FCD8E74400002084000020F80000200C
:1022800000100140000000206F12833A810C483C8E
:1022900000F07F4500007A443801002010B5044664
:1022A000D4E90001FDF7A2FF2062A16AA068FEF751
:1022B00031F807D1216A2069FDF79EFFE16AFDF739
:1022C00043FF00E0E06A6062E062226A0146104675
:1022D000FDF73AFFE168FDF78FFFA062A169FEF705
:1022E00023F801D2A06907E0E169A06AFEF712F8BD
:1022F00001D2E06900E0A06AA06010BD000000000B
:1023000000000000010203040607080900000000A5
:1023100001020304342300080000002044000000F0
:102320007A210008782300084400002034050000CA
:102330008A210008000000000000000000000000EA
:102340000000803F00000000000000000000803F0F
:10235000000080BF0000000000000000000000003E
:10236000000000000000803F01000000100000009D
:082370000000000000A24A0475
:04000005080000ED02
:00000001FF
