:020000040800F2
:10000000B8080020050100087F1E00081F1A00081C
:100010007D1E0008E1040008AD2200080000000079
:10002000000000000000000000000000831E000827
:100030002105000800000000811E0008851E000840
:100040001F0100081F0100081F0100081F01000810
:100050001F0100081F0100081F0100081F01000800
:100060001F0100081F0100081F0100081F010008F0
:100070001F0100081F0100081F0100081F010008E0
:100080001F0100081F010008710100081F0100087E
:100090001F0100081F0100081F0100081F010008C0
:1000A0001F0100081F0100081F0100081F010008B0
:1000B000351F0008551F00081F0100081F01000818
:1000C0001F0100081F0100081F0100081F01000890
:1000D0001F0100081F0100081F0100081F01000880
:1000E000230500081F0100081F010008DFF810D0D9
:1000F00000F02CF800480047ED220008AFF3008024
:10010000B80800200648804706480047FEE7FEE79B
:10011000FEE7FEE7FEE7FEE7FEE7FEE7FEE7FEE7B7
:10012000ED1E0008ED000008D2B201E000F8012B3E
:10013000491EFBD270470022F6E710B513460A4667
:1001400004461946FFF7F0FF204610BD064C074D48
:1001500006E0E06840F0010394E807009847103497
:10016000AC42F6D3FFF7C6FF9C240008BC2400086D
:100170002DE9F04F38480568686800066AD5286898
:10018000400767D5354E30683649354A0B7822F836
:10019000130035480068354A0B7822F813000878B8
:1001A000C822401CB0FBF2F302FB13000870304879
:1001B000827A032A4BD12F4A92F800C00746DFF813
:1001C000B890FA89DFF8B0B0A2F1280354082832B9
:1001D0001FFA82F8294AFF8A4FF0000AA9F12C0978
:1001E0004FF0804E9BB2BCF1000F16D094461278AF
:1001F0006AB33268C82A2AD88CF800A0CBF800402D
:10020000D9F8006046F00106C9F80060CEF824A0D5
:100210000A78974216D9C38119E092F800C0BCF160
:10022000000F14D03668C82E11D382F800A0CBF886
:100230000040D9F8004044F00104C9F80040CEF86D
:1002400024A0E5E709788F4201D2A0F80E806FF074
:100250000C002860BDE8F08F580300203C240140CA
:1002600038000020000000203C280140C801002088
:100270000E000020040000202C040040020000209A
:1002800070B5044600688168C943C9071CD18168FC
:1002900021F00101816000F069FD05460FE000BF1B
:1002A00000F064FD401B022809D9A06A40F010004C
:1002B000A062E06A40F00100E062012070BD2068A9
:1002C0008068C043C007EBD0002070BDF8B50026A1
:1002D0000446009600688168C943C90728D0816830
:1002E00041F001018160134813490068B0FBF1F04F
:1002F00000E0401E00900028FBD100F037FD0546CD
:1003000011E000BF00F032FD401B02280BD9A06AAB
:1003100040F01000A062E06A40F00100E06284F862
:1003200024600120F8BD20688068C043C007E9D17F
:100330000020F8BD2800002040420F00F0B4857A6C
:1003400003240021334A4FF08043042D60D2DFE8BC
:1003500005F0020733518089D8625962F0BC7047BA
:10036000D38832339BB2D3808F2B14D22A48C268F1
:1003700022F4E052C260294A1360121D1160121D5E
:100380001160264A40F21111143A1160C16841F41B
:10039000E051C160E2E7847084896425A4F50054CB
:1003A0008D3C94FBF5F4048241820224847284889B
:1003B00014818380D180D1E7C5894FF47A76B5FB6B
:1003C000F6F7B0F812C06744BFB24782642F0AD272
:1003D000028ADC6A6243B2FBF6F2AA1A92B2C281C6
:1003E000DA62596203E04182847211898180F0BC33
:1003F00001F0B2BF0A4C24684FF461756C43558913
:1004000005EB14346434640854818480C289E7E7BE
:100410008172A3E70200002000100140342C01404B
:100420004028014070B504460D461F4800F080F991
:100430001E4800F07DF91C480068816B21F44011D2
:100440008163816B21F4782141F4D021816381683B
:1004500041F00101816015480068816841F00101A7
:1004600081604FF47A70854201DDA08007E010487A
:10047000854201DAA08004E0A580002D01DD012085
:1004800000E00020607001202070A189E181A0724D
:100490000848016841F40041016006484438016899
:1004A00041F00101016070BD580300208803002065
:1004B00018FCFFFF442C01400021818001700421C1
:1004C00081720648016821F4004101600348443804
:1004D000016821F00101016070470000442C0140D7
:1004E000FEE7F0B54FF6FF731AB100244AF2010699
:1004F00010E0002310E0055D6B400025DF0702D00F
:1005000086EA530300E05B086D1CADB2082DF5D3FD
:10051000641CA4B29442EED30B70180A4870F0BD6C
:1005200070474FF4005000F01FBB70470749062387
:10053000CA7848B1B2FBF3F003FB1020401CC8702E
:100540000348C978405C7047121DF3E702000020A1
:100550007C240008F8B50022009290F824408368BB
:100560001646012C1CD0012480F82440D3B14D68DC
:100570000B691F249D4226D81F055B1BC3F1030393
:100580000D6803EB83039D40A7F580172F439C4024
:10059000036844F440159C6BAC4327439F631EE003
:1005A0000220F8BD4B68012B05D0826A42F0200280
:1005B0008262012213E003689C6B0D686FF31504DF
:1005C00044EAC5340AE05B1BC3F1030303EB830376
:1005D0009C40036844F440159C6BAC439C630368E7
:1005E0009C68E443E40706D09C6847F20105AC43ED
:1005F0008D692C439C604B7D012B08D18B69B3F531
:10060000E04F08D0826A42F02002826201220B7D14
:10061000012B06D00CE003685C6844F480645C60E5
:10062000F5E74B7DA3B1826A42F02002826201228B
:100630000B68072405680A2B10D3EF680A3B03EB0D
:1006400043039C40A7438C689C402743EF600EE027
:1006500003685C6844F480545C60E9E72F6903EB4D
:1006600043039C40A7438C689C4027432F610B6841
:10067000102B01D0112B04D103689C6844F40004B2
:100680009C604B68012B10D0022B16D0032B036803
:100690001BD01C6ACD686FF30B042C431C620B68E3
:1006A000102B19D0112B17D037E003685C69CD6887
:1006B0006FF30B042C435C61F1E703689C69CD6820
:1006C0006FF30B042C439C61E9E7DC69CD686FF3A1
:1006D0000B042C43DC61E2E7124C0368A34217D100
:1006E0009C68240219D49C6844F400049C60096846
:1006F000102912D10C490D4B0968B1FBF3F101EB44
:100700008101490000E0491E00910029FBD104E06D
:10071000816A41F020018162012280F82460104644
:10072000F8BD0000002401402800002040420F00D6
:1007300070B5044690F8240001280DD0012084F8FB
:1007400024002046FFF7C2FD01004FF0000005D055
:1007500084F82400084670BD022070BDA26A42F2EF
:1007600001039A4342F48052A262194A2568194B48
:1007700095421AD11E6816F4702F16D0A66A46F458
:100780008016A662A66AF60500D4E06284F824000A
:100790006FF004002860206844686405DAD4846837
:1007A000C4F30234072C04D009E0A66A26F48016AC
:1007B000E7E7904208D11A6812F4702F04D08268DB
:1007C00042F400428260C5E7826842F40212F9E70F
:1007D0000028014004240140F8B50024009490F85A
:1007E00024202546012A12D0012280F824204A68BC
:1007F0001F23072A0DD20668776B521E02EB820276
:1008000093409F430B6893401F43776319E0022096
:10081000F8BD06680D2A0AD2376BD21F02EB82029E
:1008200093409F430B6893401F43376309E0F76A87
:100830000D3A02EB820293409F430B6893401F43A3
:10084000F7620A68072306680A2A0AD3F7680A3A91
:1008500002EB420293409F438B6893401F43F76033
:1008600008E0376902EB420293409F438B68934054
:100870001F4337610A68102A01D0112A20D1124B78
:1008800002689A4217D193681B0219D4936843F403
:10089000000393600968102912D10C490C4A0968B9
:1008A000B1FBF2F101EB8101490000E0491E00912A
:1008B0000029FBD104E0816A41F02001816201241A
:1008C00080F824502046F8BD002401402800002074
:1008D00040420F002DE9F0414FF0000704003D4673
:1008E0007ED0A06A002628B9E66284F824602046FB
:1008F00000F07EF82046FFF7C3FCA16AC90600D4C9
:1009000020B1A06A40F01000A06269E0A16A21F461
:10091000885141F00201A1626268E169237B0A43C8
:1009200047EA43010A43A1684FF48077B94209D0EE
:10093000012907D05FF0000194F814C0BCF1010F49
:1009400002D00AE03946F7E7F3B1A36A43F0200387
:10095000A362E36A43F00103E3622368D3F804C0AF
:100960002CF4694C4CEA010CC3F804C021688B6874
:10097000DFF870C003EA0C0313438B60A168B9422F
:100980000BD0012909D00CE0DFF85CC0A3690CEBA7
:1009900043330B4343F40061DFE7218A0D05A5F5DE
:1009A00080152168CB6A23F470032B43CB62216846
:1009B00089680E4B1940914208D1E662A16A21F084
:1009C000020141F00101A162BDE8F081A06A20F0BE
:1009D000020040F01000A062E06A40F00100E06216
:1009E0000120F1E7FDF7E1FF00E0FFFFFE0E1FFF32
:1009F00070B586B0054600200090019002900390EB
:100A00003D4B2A683D4903243D483E4E9A4242D11F
:100A10008A6942F400728A618A6902F4007204925F
:100A20008A6942F010028A618A6902F01002049217
:100A30008A6942F004028A618A6902F0040204921F
:100A40008A6942F008028A61896901F0080104910B
:100A50000821CDE90014694600F092F88020CDE924
:100A600000046946284800F08BF80120CDE9000415
:100A70006946304600F084F800220121122000F07F
:100A8000E1F9122000F0D0F92868416841F08001B6
:100A9000416006B070BD1D4B9A42FAD18A6942F49A
:100AA00080628A618A6902F4806204928A6942F0F3
:100AB00010028A618A6902F0100204928A6942F087
:100AC00008028A618969022501F00801CDE9005414
:100AD0000491694600F054F8CDE900546946304667
:100AE00000F04EF800220121122000F0ABF9122094
:100AF00000F09AF9CDE70000002401400010024008
:100B000000100140000C0140000801400028014095
:100B100070B5044600F02AF90546601C02D004486E
:100B20000078044400F022F9401BA042FAD370BDC3
:100B30002C00002010B5B0F5005F11D13220FFF776
:100B4000E7FF0848007820B1BDE810400548FFF7EE
:100B5000B3BCBDE810404FF47A710248FFF762BCA5
:100B600010BD00000E000020044910B50A680242C2
:100B700002D00860FFF7DEFF10BD00001404014042
:100B80002DE9F84FDFF8B891002409F1040A0AF1C1
:100B9000040B23460F270BF1040EC9E00125A540E5
:100BA0002A40AA427DD1674ED1F804C0ACEB0608BA
:100BB000B44532D014DCBCF1030F3AD009DCBCF1EF
:100BC000000F2AD0BCF1010F1CD0BCF1020F31D1B3
:100BD0001DE0BCF1110F17D0BCF1120F2AD119E0A2
:100BE000B8F5881F19D006DCB8F5803F15D0B8F5E8
:100BF000801F1FD111E0B8F5001F0ED0B8F5041FFB
:100C000018D10AE0CB6815E0CB681B1D12E0CB6859
:100C100008330FE0CB680C330CE08B682BB1012B51
:100C20004FF0080303D0456104E0042302E00561AE
:100C300000E00023FF2A01D8064601E000F1040687
:100C40004FEA840501D9A5F12005D6F8008007FAFE
:100C500005FC28EA0C0803FA05F548EA0508C6F879
:100C600000804D68ED0062D5374DAE6946F0010653
:100C7000AE61AD6924F0030605F001050095334D22
:100C800006EB050CDCF80850A607360F07FA06F845
:100C900025EA0805DFF8B880404503D14FF0000889
:100CA00017E044E0DFF8AC80404502D14FF0010886
:100CB0000FE0DFF8A480404502D14FF0020808E0C1
:100CC000DFF89880404502D14FF0030801E04FF073
:100CD000040808FA06F848EA0508CCF808804D68C8
:100CE000D9F80060ED034D4601D5164300E0964368
:100CF0002E604D68DAF80060AD03554601D5164305
:100D000000E096432E604D68DBF80060ED025D4622
:100D100001D5164300E096432E604D68DEF8006072
:100D2000AD02754601D5164300E096432E60641C63
:100D30000D682A46E5407FF431AFBDE8F88F00002A
:100D400000040140000011100010024000000140AA
:100D500000080140000C0140001001400014014057
:100D60000AB1016170470904FBE70000014880688F
:100D7000704700002C00002002488168027811446E
:100D8000816070472C000020074810B5016841F0D1
:100D900010010160032000F075F8002000F006F853
:100DA00000F024F8002010BD0020024070B50D4D69
:100DB00004464FF47A712878B1FBF0F00A490968CB
:100DC000B1FBF0F000F062FB48B9102C07D2002212
:100DD0002146501E00F036F800206C6070BD0120E6
:100DE00070BD00002C000020280000200C4808B531
:100DF000816941F001018161816901F00101009186
:100E0000C16941F08051C161C06900F0805000901B
:100E10000448416821F0E06141F00071416008BD83
:100E20000010024000000140002809DB00F01F0212
:100E3000012191404009800000F1E020C0F800113C
:100E400070470000F0B40E4B1B680C46C3F302233E
:100E5000C3F10705042D00D90425191D072901D266
:100E6000002300E0DB1E012606FA05F1491E2140A1
:100E700099409E40761E16403143F0BC01F017BAEF
:100E80000CED00E0064900F0070208684FF6FF038A
:100E9000184040EA0220034A1043086070470000EF
:100EA0000CED00E00000FA052DE9F8430546007856
:100EB000354CC00754D0E0690026C00008D4E06972
:100EC00040F08050E061E069012600F08050009021
:100ED0002E480168C90512D40168804641F480712A
:100EE0000160FFF743FF074605E000BFFFF73EFF45
:100EF000C01B642823D8D8F80000C005F6D5206AA6
:100F000010F4407021D0A98801F4407181421CD0B6
:100F1000206A1F49012220F440700A6000220A6002
:100F20002062C00711D0FFF721FF074641F2883841
:100F300008E000BFFFF71AFFC11B414502D903209B
:100F4000BDE8F883206A8007F4D5206A696820F438
:100F50004070084320621EB1E06920F08050E061DB
:100F60002878800705D56068A96820F440400843C8
:100F700060602878C00605D56068E96820F48000C4
:100F8000084360600020DBE7001002400070004072
:100F9000400442422DE9F0470F46050061D0434E20
:100FA000306800F00700B84209D2306820F007002E
:100FB00038433060306800F00700B84251D12868EB
:100FC0003B4C810712D5400703D5606840F4E060D0
:100FD00060602878000703D5606840F46050606066
:100FE0006068A96820F0F000084360602878C007B6
:100FF00028D06868012810D02168022810D08907FD
:1010000000292EDA616821F0030101436160FFF7D6
:10101000ADFE804641F288390DE021688903EFE793
:101020008901EDE7FFF7A2FEA0EB0801494502D9CF
:101030000320BDE8F0876068696800F00C00B0EB41
:10104000810FEFD1306800F00700B8420BD930684B
:1010500020F0070038433060306800F00700B842E5
:1010600001D00120E5E72878400705D56068E968E8
:1010700020F4E060084360602878000706D56068C7
:10108000296920F4605040EAC100606000F038F83F
:101090006168084AC1F30311515CC8400649086001
:1010A00006480068FFF782FE0020C2E700200240E9
:1010B0000010024084240008280000203000002096
:1010C0000448054900684968044AC1F30221515C9B
:1010D000C8407047280000200010024094240008F7
:1010E0000448054900684968044AC1F3C221515CBB
:1010F000C8407047280000200010024094240008D7
:1011000012A185B00FC98DE80F0014A0144A006821
:1011100004905168134801F00C03042B10D0082BE5
:101120000ED1C1F38343C9031DF803000AD55168EA
:1011300004AAC1F34041515C0A4A5043B0FBF1F0AC
:1011400005B0704708494843FAE700000203040568
:10115000060708090A0B0C0D0E0F10100102000003
:101160000010024000127A0000093D002DE9F84FFE
:10117000040070D02078C04DC00749D06868C0F323
:101180008100012807D06868C0F38100022809D1D6
:101190006868C00306D52868800339D560680028D0
:1011A000E7D035E06068B0F5803F0BD010B1B0F506
:1011B000A02F11D0286820F480302860286820F4FF
:1011C000802002E0286840F480302860606890B198
:1011D000FFF7CCFD06460AE0286840F4802028602E
:1011E000F0E700BFFFF7C2FD801B642873D82868B2
:1011F0008003F7D50CE0FFF7B9FD064605E000BF18
:10120000FFF7B4FD801B6428F0D828688003F7D46A
:1012100020789A4E80074FF001094FF0000839D529
:10122000686810F00C0F07D06868C0F381000228CE
:1012300009D16868C00306D42868800714D52069DE
:10124000012808D110E02069B0B1C6F80090FFF77E
:101250008DFD074605E00AE1FFF788FDC01B022867
:10126000C4D828688007F7D52868616920F0F8009D
:1012700040EAC10028600DE0C6F80080FFF776FD67
:10128000074604E0FFF772FDC01B022823D8286838
:101290008007F7D4207800072CD57948A169D9B107
:1012A000C0F80090FFF762FD074604E0FFF75EFD1F
:1012B000C01B02280FD8686A8007F7D571484FF421
:1012C000FA510068B0FBF1F0009000BF0098411E99
:1012D0000091FAD20EE080E0C0F80080FFF746FDF2
:1012E000074604E0FFF742FDC01B022875D8686A74
:1012F0008007F7D42078400760D5E8690027C00050
:1013000008D4E86940F08050E861E869012700F0FE
:10131000805000905C480168C90513D40168834679
:1013200041F480710160FFF721FD824606E000BFB5
:10133000FFF71CFDA0EB0A0064284ED8DBF8000084
:10134000C005F5D5E06801280AD008B1052813D0FA
:10135000286A20F001002862286A20F0040002E0D8
:10136000286A40F001002862E06841F2883B98B1A9
:10137000FFF7FCFC82460BE0286A40F0040028627C
:10138000EEE700BFFFF7F2FCA0EB0A0159455AD87F
:10139000286A8007F6D50CE0FFF7E8FC824605E0F6
:1013A000FFF7E4FCA0EB0A0159454CD8286A8007F6
:1013B000F6D41FB1E86920F08050E861E06988B395
:1013C0006968C1F38101022944D00228C6F860800F
:1013D00004D0FFF7CBFC044638E034E0FFF7C6FC4E
:1013E000074604E0FFF7C2FCC01B02282BD8286880
:1013F0008001F7D4206AB0F5803F05D16868A16804
:1014000020F4003008436860D4E9080108436968A3
:1014100021F4741108436860C6F86090FFF7A6FCD9
:10142000044606E025E000BFFFF7A0FC001B0228F1
:1014300009D828688001F7D51BE000BFFFF796FCAC
:10144000001B022802D90320BDE8F88F286880011C
:10145000F4D40EE00128F7D06868226A00F48031E5
:10146000914204D1616A00F47010884201D00120D9
:10147000EAE70020E8E700000010024000004242D6
:1014800080044242280000200070004010B5401E39
:10149000B0F1807F01D3012010BD4FF0E0246061E6
:1014A0000F21601700F003FF0020A06107202061DA
:1014B000002010BD10B590F83C20012A22D0012256
:1014C00080F83C20CA688C6822F4407222434C6841
:1014D00022F4806222430C6822F4006222430C69E9
:1014E00022F4805222434C6922F400522243C969FB
:1014F000002322F480420A4301684A6480F83C30A9
:10150000002010BD022010BD70B590F83C20012ACB
:1015100019D0012400F83C4F0222427050F83C3CA4
:101520005A689D6822F070060A684968324325F0BF
:10153000800529435A6050F83C2C9160447000218A
:101540000170084670BD022070BD10B5040003D0C4
:1015500094F83D0010B107E0012010BD002084F890
:101560003C00204600F00CF8022084F83D00211DCC
:10157000206800F0FFFC012084F83D00002010BD31
:1015800038B504460068134A1349904208D1886967
:1015900040F400608861886900F40060009038BD04
:1015A000B0F1804FFBD1C86940F00100C861C86943
:1015B000002200F00100009003211C20FFF742FCF4
:1015C0001C20FFF731FC2068C16841F00101C160B7
:1015D00038BD0000002C01400010024070B50446E8
:1015E00090F83C00012817D0012584F83C500220D7
:1015F00084F83D002068826822F0770222F47F425E
:1016000082600868502830D00DDC20284DD005DCE1
:1016100098B310283BD148E0022070BD302844D058
:10162000402834D139E0602828D0702806D0B0F5A1
:10163000805F2CD0B0F5005F29D10AE0CB68D1E9FA
:101640000121206800F0CCFC2068816841F077011E
:1016500009E0CB68D1E90121206800F0C1FC2068D5
:10166000816841F48041816011E0CA68496820685E
:1016700000F06AFD5021206807E016E0CA6849685A
:10168000206800F072FD6021206800F0B3FC84F84F
:101690003D50002084F83C0070BDCA68496820684D
:1016A00000F052FD40212068EFE722680146104615
:1016B000EBE7000000B585B0002100910191029197
:1016C000039100680B49884212D10B48816941F0AF
:1016D000040181618069694600F0040004904FF4C0
:1016E000E06000900220019003900448FFF748FA60
:1016F00005B000BD002C0140001002400008014070
:1017000070B50D46040003D094F83D0010B107E019
:10171000012070BD002084F83C00204600F016F83F
:10172000022084F83D00211D206800F023FC206881
:10173000016821F008010160206801682943016007
:10174000012084F83D00002070BD000038B504463B
:1017500000680F4988421AD10E48C16941F0020160
:10176000C161C069002200F00200009002211D202A
:10177000FFF768FB1D20FFF757FB07496FF00100DB
:10178000096808612068C16841F00101C16038BD85
:1017900000040040001002403804002070B50446E8
:1017A00090F83C000D4601280DD0012684F83C60DD
:1017B000022084F83D0042B1042A18D0082A2AD019
:1017C0000C2A4DD139E0022070BD206800F01AFCCF
:1017D0002068816941F0080181612068816921F0F8
:1017E00004018161206881692A69114311E0206840
:1017F00000F030FC2068816941F40061816120685B
:10180000816921F480618161206881692A6941EAE6
:101810000221816124E0206800F048FC2068C16951
:1018200041F00801C1612068C16921F00401C16172
:101830002068C1692A69114311E0206800F062FC48
:101840002068C16941F40061C1612068C16921F467
:101850008061C1612068C1692A6941EA0221C161D0
:1018600084F83D60002084F83C0070BD10B5040091
:1018700003D094F83D0010B107E0012010BD002016
:1018800084F83C00204600F00CF8022084F83D006B
:10189000211D206800F06EFB012084F83D0000202F
:1018A00010BD704770B5040004D094F839000025CD
:1018B00010B106E0012070BD84F83850204600F0D9
:1018C00023F8242084F839002068C16821F40051ED
:1018D000C160204600F05CFC2068016921F4904161
:1018E00001612068416921F02A0141612068C168D5
:1018F00041F40051C160E563202084F8390084F888
:101900003A00002070BD000000B585B000210091B4
:1019100001910291039100680F49884219D10F4843
:10192000C16941F40031C161C16901F40031049120
:10193000816941F0040181618069694600F0040019
:1019400004900C2000900220019003900448FFF7BF
:1019500017F905B000BD000000440040001002402F
:10196000000801402DE9F843044690F839001F466D
:1019700016460D46202850D1A5B19EB194F83800E6
:1019800001284AD0012084F838004FF00008C4F83C
:101990003C80212084F83900FFF7E8F9A6848146CD
:1019A000E68426E00120BDE8F883E08C401EE08458
:1019B000A0684B46B0F5805F4FF000024FF0800109
:1019C0002046009703D000F03FFCE8B90DE000F09E
:1019D0003BFCC8B928882168C0F30800486020692A
:1019E00008B16D1C05E0AD1C03E0216815F8010B82
:1019F0004860E08C0028D8D14B4600224021204688
:101A0000009700F021FC08B10320CCE7202084F8E7
:101A1000390084F838800020C5E70220C3E7FEE7DC
:101A200070B5154A0024917014490B689D6825F023
:101A300001059D6009688B6B23F4782343EAC0306D
:101A4000886320460E4B0F4D05E000BF35F810604F
:101A5000401C344480B21E78B042F7D3187894FB0F
:101A6000F0F00020187090785070886840F0010005
:101A700088600120107070BD020000205803002013
:101A8000000000203800002070B58AB000240794C0
:101A900008941C2168460994FEF74DFB244823490D
:101AA00001250160891581600473047505614FF497
:101AB00060214460C161FEF70DFF08B1FEF735FDFE
:101AC0000D26CDE9076507A919480995FEF784FE9B
:101AD00008B1FEF72AFDCDE900650226F0020325D4
:101AE00006908DF81540029604958DF814406946CD
:101AF0000F480394FEF72EFD08B1FEF716FD0820EF
:101B0000CDE9000669460A48FEF724FD08B1FEF754
:101B10000CFD0720CDE9000569460548FEF71AFDD2
:101B2000002801D0FEF701FD0AB070BD002401407D
:101B30005803002070B58AB00024079408941C2133
:101B400068460994FEF7F7FA1E481D490125016011
:101B5000891581600473047505614FF46021446048
:101B6000C161FEF7B7FE08B1FEF7DFFCCDE908540E
:101B70000B2607A913480796FEF72EFE08B1FEF7BD
:101B8000D4FCCDE9006502258DF815400495029539
:101B900006948DF8144069460A480394FEF7DAFC6F
:101BA00008B1FEF7C2FC0920CDE9000569460548E9
:101BB000FEF7D0FC002801D0FEF7B7FC0AB070BDDC
:101BC00000280140880300202DE9F04186B0002460
:101BD00030480094019402940394816941F010010B
:101BE0008161816901F010010491816941F0200156
:101BF0008161816901F020010491816941F0040152
:101C00008161816901F004010491816941F0080159
:101C100081618069204F00F008000490002220219B
:101C20003846FFF79DF8DFF87480012251024046E4
:101C3000FFF796F800224FF4E0514046FFF790F886
:101C4000781400901648CDE9010469464046FEF735
:101C500097FF202001250226CDE90005CDE90246A7
:101C600069463846FEF78CFF4FF4F050CDE9000589
:101C7000CDE9024669464046FEF782FF0022072171
:101C80002820FFF7DFF82820FFF7CEF806B0BDE8E0
:101C9000F0810000001002400008014000100140E7
:101CA0000000111030B595B000240F9410941194D9
:101CB000129413941C2168461494FEF73CFA2021D8
:101CC00007A8FEF738FA3748354940F2CF220160BD
:101CD00001212025C260C0E90115C0E904418461E9
:101CE000FFF733FC08B1FEF720FC4FF480500F9053
:101CF0000FA92C48FFF772FC08B1FEF716FC294823
:101D0000FFF7B4FD08B1FEF710FC8020CDE91350B9
:101D100013A92448FFF7F8FB08B1FEF706FC602082
:101D200000906420CDE901040394049405940022FA
:101D300069461C480694FFF731FD08B1FEF7F5FB34
:101D4000042269461748FFF729FD08B1FEF7EDFBAD
:101D5000082269461348FFF721FD08B1FEF7E5FBAD
:101D600040F2C62001900C2269460E48FFF716FD8E
:101D700008B1FEF7DAFB0794089409944FF4005079
:101D80000A94CDE90B4007A906480E94FFF792FB91
:101D900008B1FEF7CAFB0348FFF78CFC15B030BD55
:101DA000002C0140B803002010B586B0002416486E
:101DB000009401940294039404944FF0804105949C
:101DC00001604721C0E9011447F23051C0E9031412
:101DD0008461FFF7BAFB08B1FEF7A7FB4FF4805010
:101DE000009069460848FFF7F9FB08B1FEF79DFB34
:101DF000049404A904480594FFF786FB002801D049
:101E0000FEF793FB06B010BDF80300200C4810B598
:101E10000A49016047214160002143F69822C0E948
:101E20000212016181610821FFF76AFC002803D0DA
:101E3000BDE81040FEF779BB10BD00000004004073
:101E4000380400200C4810B50A4901604FF4E13114
:101E50004160002181600C22C160C0E904128161EF
:101E6000C161FFF71FFD002803D0BDE81040FEF759
:101E70005CBB10BD0044004078040020FEE77047C2
:101E800070477047FEF778BF30B593B02821684699
:101E9000FEF751F914210AA8FEF74DF900240F941A
:101EA0001094119401204FF4A02112948DE8130096
:101EB000049002250004CDE907504FF4E01009908A
:101EC0006846FFF753F90F20CDE90A056802CDE90E
:101ED0000C4002210AA80E94FFF75CF8A8031190A9
:101EE0000F950FA8FEF7E0FF13B030BD0D48016855
:101EF00041F00101016041680B4A114041600168F5
:101F00000A4A11400160016821F4802101604168A2
:101F100021F4FE0141604FF41F0181600449C003B8
:101F200008607047001002400000FFF8FFFFF6FE57
:101F300008ED00E0054800680169C943C90704D1FC
:101F4000891E01610248FEF7F9B97047F8030020C5
:101F50000E000020054800680169C943C90704D183
:101F6000891E01610248FEF7E9B970473804002074
:101F70000E000020F0B50268164B174C174D4FF0BD
:101F80008047984205D0B84203D0A04201D0A84271
:101F900003D122F070064A683243984205D0B84215
:101FA00003D0A04201D0A84203D122F44074CA68F1
:101FB00022434C6922F08002224302608A68C26296
:101FC0000A688262984201D1096901630121416175
:101FD000F0BD0000002C014000040040000800405B
:101FE00010B5846842EA032224F47F440A43224362
:101FF000826010BD826822F070020A4342F007013D
:102000008160704730B5026A22F001020262026A02
:102010004368846924F073050C682C4322F00205A0
:102020008A682A430A4DA8420BD122F00805CA68E3
:1020300023F440732A434D6922F004021D438B6947
:102040002B434360846149684163026230BD0000F4
:10205000002C014030B5026A22F010020262026ACE
:10206000436884690D6824F4E64444EA05248D68D5
:1020700022F0200242EA05120B4DA8420ED1CD6893
:1020800022F0800242EA05124D6923F4406343EADC
:1020900085038D6922F0400243EA85034360846131
:1020A00049688163026230BD002C014030B5026A8C
:1020B00022F480720262036A4268C46923F40073E6
:1020C00024F073050C682C438D6843EA05230C4DFE
:1020D000A8420ED1CD6823F4006343EA05234D697D
:1020E00022F4405242EA05128D6923F4806342EAE9
:1020F00005124260C4614968C163036230BD0000DB
:10210000002C014030B5026A22F480520262046A57
:102110004268C3690D6823F4E64343EA05238D68EA
:1021200024F4005444EA0534064DA84204D14D6914
:1021300022F4804242EA85124260C3614968016428
:10214000046230BD002C014010B5036A046A24F01B
:1021500001040462846924F0F00444EA021423F0C8
:102160000A020A438461026210BD10B5036A23F0BB
:10217000100303628369046A23F4704343EA023262
:1021800024F0A00343EA01118261016210BD000046
:102190002DE9F041044600680169E26821F44051EC
:1021A000114301612169A0680843616908432168FE
:1021B000CA6841F20C639A430243CA6020684169CD
:1021C000A26921F44071114341611E4920686425D0
:1021D0003226884202D1FEF783FF01E0FEF770FF4E
:1021E00000EBC00101EB001160686FF01807800080
:1021F000B1FBF0F2B2FBF5F2B1FBF0F37A4303EB83
:102200008202B1FBF0F306EB0212B2FBF5F2B3FB74
:10221000F5F302F0F00202EB0312B1FBF0F3B1FBB5
:10222000F0F0B0FBF5F0784303EB800006EB001014
:10223000B0FBF5F0216800F00F0010448860BDE8A5
:10224000F0810000003801402DE9F0419846174622
:102250000E460446069D1DE0681C1BD02DB1FEF7FE
:1022600085FDA0EB0800A84214D92068C16821F4BC
:10227000D071C1602068416921F0010141612020D5
:1022800084F8390084F83A00002084F838000320EC
:10229000BDE8F0812068006836EA000004D0002024
:1022A000B842D9D00020F3E70120F9E7FEE709079B
:1022B000090E002804DB00F1E02080F800147047CC
:1022C00000F00F0000F1E02080F8141D704702E0DC
:1022D00008C8121F08C1002AFAD1704770470020B1
:1022E00001E001C1121F002AFBD170470EB5FEF7B5
:1022F0004BFDFFF7C9FDFFF767FCFFF7A3FDFFF7F5
:10230000D1FCFFF751FDFFF7BFFBFFF713FCFFF711
:102310007DFD0D480068016841F0010101600B4D31
:102320000B4E02AC2868ADF800003068ADF8020032
:10233000082221466846FEF7D4F80A231A46694661
:102340000448FFF70FFBEDE7F80300203C240140B1
:102350003C28014078040020F0B50446B0F90400A0
:10236000002800DA404240F2CF2148434FF47A710E
:1023700090FBF1F085B26078FEF7D8F8A070E089A4
:102380005021B0FBF1F03A4AE0822078111D0B1D7C
:1023900018B115600D601D6003E00020106008603A
:1023A0001860344DA078297988422DD03249C86808
:1023B00020F4E050C8602E4867781438002FA778C2
:1023C00041F2100241F201034FF488561DD0072F4D
:1023D00018D2DFE807F0170E0412080A06000260A0
:1023E00032E0036037E003603CE0066017E00D2058
:1023F00006E006601AE0082002E002601DE0072007
:10240000FFF70EFBA0782871F0BD072FFAD2DFE8A6
:1024100007F0040C1A1328052100F3E70260C868CE
:1024200040F4C050C8600121E1E70360C86840F48F
:10243000A050C8600021DEE70360C86840F4406037
:10244000C8600121DBE70660C86840F4C050C8607E
:102450000021CCE70660C86840F4A050C8600121A4
:10246000C9E70260C86840F44060C8600021C6E760
:10247000342C01400200002000100140000501033F
:10248000020604070000000000000000010203042F
:10249000060708090000000001020304BC2400082C
:1024A0000000002038000000CE220008F4240008BC
:1024B0003800002080080000DE2200080000010033
:1024C0000003000000000000000000000000000009
:1024D000000000000000983A00000000000000002A
:1024E0000000000000A24A040100000010000000EB
:0424F00000000000E8
:04000005080000ED02
:00000001FF
