:020000040800F2
:1000000018050020050100088B15000835130008AD
:1000100089150008C70100087918000800000000D1
:100020000000000000000000000000008F15000824
:10003000C9010008000000008D1500089115000896
:100040001F0100081F0100081F0100081F01000810
:100050001F0100081F0100081F0100081F01000800
:100060001F0100081F0100081F0100081F010008F0
:100070001F0100081F0100081F0100081F010008E0
:100080001F0100081F0100081F0100081F010008D0
:100090001F0100081F0100081F0100081F010008C0
:1000A0001F0100081F0100081F0100081F010008B0
:1000B0001F01000815160008000000001F010008BD
:1000C0001F01000800000000000000001F010008E0
:1000D000000000001F0100081F01000800000000D0
:1000E0001F0100081F0100081F010008DFF810D0E1
:1000F00000F02CF800480047B9180008AFF3008062
:10010000180500200648804706480047FEE7FEE73E
:10011000FEE7FEE7FEE7FEE7FEE7FEE7FEE7FEE7B7
:1001200011160008ED000008D2B201E000F8012B22
:10013000491EFBD270470022F6E710B513460A4667
:1001400004461946FFF7F0FF204610BD064C074D48
:1001500006E0E06840F0010394E807009847103497
:10016000AC42F6D3FFF7C6FFF018000810190008DC
:1001700070B5044600688168C943C90717D1816812
:1001800021F00101816000F051FA05460AE000BF4C
:1001900000F04CFA401B022804D920688068C04354
:1001A000C00706D020688068C043C007F0D0002098
:1001B00070BDA06A40F01000A062E06A40F001004B
:1001C000E062012070BDFEE7704772B6FEE70000F6
:1001D000F8B50024009490F824202546012A12D076
:1001E000012280F824204A681F23072A0DD20668BE
:1001F000776B521E02EB820293409F430B68934041
:100200001F43776319E00220F8BD06680D2A0AD261
:10021000376BD21F02EB820293409F430B689340DF
:100220001F43376309E0F76A0D3A02EB82029340FD
:100230009F430B6893401F43F7620A6807230668D1
:100240000A2A0AD3F7680A3A02EB420293409F4314
:100250008B6893401F43F76008E0376902EB420266
:1002600093409F438B6893401F4337610A68102A6D
:1002700001D0112A20D1124B02689A4217D19368FB
:100280001B0219D4936843F4000393600968102992
:1002900012D10C490C4A0968B1FBF2F101EB810162
:1002A000490000E0491E00910029FBD104E0816A69
:1002B00041F020018162012480F824502046F8BDDD
:1002C000002401400C00002040420F002DE9F041C5
:1002D0004FF0000704003D467ED0A06A002628B9F2
:1002E000E66284F82460204600F07EF82046FFF79E
:1002F0003FFFA16AC90600D420B1A06A40F01000F7
:10030000A06269E0A16A21F4885141F00201A16272
:100310006268E169237B0A4347EA43010A43A16813
:100320004FF48077B94209D0012907D05FF000016E
:1003300094F814C0BCF1010F02D00AE03946F7E787
:10034000F3B1A36A43F02003A362E36A43F001031D
:10035000E3622368D3F804C02CF4694C4CEA010C26
:10036000C3F804C021688B68DFF870C003EA0C038F
:1003700013438B60A168B9420BD0012909D00CE06E
:10038000DFF85CC0A3690CEB43330B4343F400611B
:10039000DFE7218A0D05A5F580152168CB6A23F4D6
:1003A00070032B43CB62216889680E4B1940914240
:1003B00008D1E662A16A21F0020141F00101A162C7
:1003C000BDE8F081A06A20F0020040F01000A062B9
:1003D000E06A40F00100E0620120F1E7FDF7E1FF93
:1003E00000E0FFFFFE0E1FFF10B586B00021009158
:1003F00001910291039100681549884225D1154861
:10040000816941F400718161816901F40071049195
:10041000816941F004018161816901F00401049165
:10042000816941F0080181618069032400F00800BE
:100430000490009469460194074800F011F8009474
:1004400069460648019400F00BF806B010BD0000A4
:10045000002401400010024000080140000C01404F
:100460002DE9F84FDFF89C91002409F1040A0AF104
:10047000040B23460F270BF1040EBBE00125A5401A
:100480002A40AA4276D1DFF880C14E68A6EB0C085C
:1004900066452BD00DDC032E34D005DC36B3012E9F
:1004A00019D0022E2FD11BE0112E16D0122E2AD1D8
:1004B00019E0B8F5881F19D006DCB8F5803F15D0D3
:1004C000B8F5801F1FD111E0B8F5001F0ED0B8F5A8
:1004D000041F18D10AE0CB6815E0CB681B1D12E0A1
:1004E000CB6808330FE0CB680C330CE08B682BB182
:1004F000012B4FF0080303D0456104E0042302E020
:10050000056100E00023FF2A01D8064601E000F162
:1005100004064FEA840501D9A5F12005D6F800802C
:1005200007FA05FC28EA0C0803FA05F548EA05086D
:10053000C6F800804D68ED005BD5344DAE6946F0DD
:100540000106AE61AD6924F0030605F001050095D2
:100550002F4D06EB050CDCF80850A607360F07FAFE
:1005600006F825EA0805DFF8AC80404503D14FF0D6
:10057000000810E03DE0DFF8A080404502D14FF0D8
:10058000010808E0DFF89480404502D14FF00208EE
:1005900001E04FF0030808FA06F848EA0508CCF82D
:1005A00008804D68D9F80060ED034D4601D516432B
:1005B00000E096432E604D68DAF80060AD035546C2
:1005C00001D5164300E096432E604D68DBF80060CD
:1005D000ED025D4601D5164300E096432E604D685E
:1005E000DEF80060AD02754601D5164300E0964383
:1005F0002E60641C0A6832FA04F57FF43FAFBDE850
:10060000F88F0000000401400000111000100240AB
:100610000000014000080140000C014000100140B2
:100620000AB1016170470904FBE7000001488068D6
:1006300070470000000000200248816802781144E1
:100640008160704700000020074810B5016841F044
:1006500010010160032000F075F80F2000F006F88B
:1006600000F024F8002010BD0020024070B50D4DB0
:1006700004464FF47A712878B1FBF0F00A49096812
:10068000B1FBF0F000F062FB48B9102C07D2002259
:100690002146501E00F036F800206C6070BD01202D
:1006A00070BD0000000000200C0000200C4808B5C0
:1006B000816941F001018161816901F001010091CD
:1006C000C16941F08051C161C06900F08050009063
:1006D0000448416821F0E06141F00071416008BDCB
:1006E0000010024000000140002809DB00F01F025A
:1006F000012191404009800000F1E020C0F8001184
:1007000070470000F0B40E4B1B680C46C3F3022385
:10071000C3F10705042D00D90425191D072901D2AD
:10072000002300E0DB1E012606FA05F1491E2140E8
:1007300099409E40761E16403143F0BC01F09DB8B2
:100740000CED00E0064900F0070208684FF6FF03D1
:10075000184040EA0220034A104308607047000036
:100760000CED00E00000FA052DE9F843054600789D
:10077000354CC00754D0E0690026C00008D4E069B9
:1007800040F08050E061E069012600F08050009068
:100790002E480168C90512D40168804641F4807171
:1007A0000160FFF743FF074605E000BFFFF73EFF8C
:1007B000C01B642823D8D8F80000C005F6D5206AED
:1007C00010F4407021D0A98801F4407181421CD0FE
:1007D000206A1F49012220F440700A6000220A604A
:1007E0002062C00711D0FFF721FF074641F2883889
:1007F00008E000BFFFF71AFFC11B414502D90320E3
:10080000BDE8F883206A8007F4D5206A696820F47F
:100810004070084320621EB1E06920F08050E06122
:100820002878800705D56068A96820F4404008430F
:1008300060602878C00605D56068E96820F480000B
:10084000084360600020DBE70010024000700040B9
:10085000400442422DE9F0470F46050061D0434E67
:10086000306800F00700B84209D2306820F0070075
:1008700038433060306800F00700B84251D1286832
:100880003B4C810712D5400703D5606840F4E06017
:1008900060602878000703D5606840F460506060AD
:1008A0006068A96820F0F000084360602878C007FD
:1008B00028D06868012810D02168022810D0890744
:1008C00000292EDA616821F0030101436160FFF71E
:1008D000ADFE804641F288390DE021688903EFE7DB
:1008E0008901EDE7FFF7A2FEA0EB0801494502D917
:1008F0000320BDE8F0876068696800F00C00B0EB89
:10090000810FEFD1306800F00700B8420BD9306892
:1009100020F0070038433060306800F00700B8422C
:1009200001D00120E5E72878400705D56068E9682F
:1009300020F4E060084360602878000706D560680E
:10094000296920F4605040EAC100606000F038F886
:100950006168084AC1F30311515CC8400649086048
:1009600006480068FFF782FE0020C2E70020024030
:1009700000100240D61800080C00002004000020DF
:100980000448054900684968044AC1F30221515CE2
:10099000C84070470C00002000100240E618000814
:1009A0000448054900684968044AC1F3C221515C02
:1009B000C84070470C00002000100240E6180008F4
:1009C00012A185B00FC98DE80F0014A0144A006869
:1009D00004905168134801F00C03042B10D0082B2D
:1009E0000ED1C1F38343C9031DF803000AD5516832
:1009F00004AAC1F34041515C0A4A5043B0FBF1F0F4
:100A000005B0704708494843FAE7000002030405AF
:100A1000060708090A0B0C0D0E0F1010010200004A
:100A20000010024000127A0000093D002DE9F84F45
:100A3000040070D02078C04DC00749D06868C0F36A
:100A40008100012807D06868C0F38100022809D11D
:100A50006868C00306D52868800339D56068002817
:100A6000E7D035E06068B0F5803F0BD010B1B0F54D
:100A7000A02F11D0286820F480302860286820F446
:100A8000802002E0286840F480302860606890B1DF
:100A9000FFF7CCFD06460AE0286840F48020286075
:100AA000F0E700BFFFF7C2FD801B642873D82868F9
:100AB0008003F7D50CE0FFF7B9FD064605E000BF5F
:100AC000FFF7B4FD801B6428F0D828688003F7D4B2
:100AD00020789A4E80074FF001094FF0000839D571
:100AE000686810F00C0F07D06868C0F38100022816
:100AF00009D16868C00306D42868800714D5206926
:100B0000012808D110E02069B0B1C6F80090FFF7C5
:100B10008DFD074605E00AE1FFF788FDC01B0228AE
:100B2000C4D828688007F7D52868616920F0F800E4
:100B300040EAC10028600DE0C6F80080FFF776FDAE
:100B4000074604E0FFF772FDC01B022823D828687F
:100B50008007F7D4207800072CD57948A169D9B14E
:100B6000C0F80090FFF762FD074604E0FFF75EFD66
:100B7000C01B02280FD8686A8007F7D571484FF468
:100B8000FA510068B0FBF1F0009000BF0098411EE0
:100B90000091FAD20EE080E0C0F80080FFF746FD39
:100BA000074604E0FFF742FDC01B022875D8686ABB
:100BB0008007F7D42078400760D5E8690027C00097
:100BC00008D4E86940F08050E861E869012700F046
:100BD000805000905C480168C90513D401688346C1
:100BE00041F480710160FFF721FD824606E000BFFD
:100BF000FFF71CFDA0EB0A0064284ED8DBF80000CC
:100C0000C005F5D5E06801280AD008B1052813D041
:100C1000286A20F001002862286A20F0040002E01F
:100C2000286A40F001002862E06841F2883B98B1F0
:100C3000FFF7FCFC82460BE0286A40F004002862C3
:100C4000EEE700BFFFF7F2FCA0EB0A0159455AD8C6
:100C5000286A8007F6D50CE0FFF7E8FC824605E03D
:100C6000FFF7E4FCA0EB0A0159454CD8286A80073D
:100C7000F6D41FB1E86920F08050E861E06988B3DC
:100C80006968C1F38101022944D00228C6F8608056
:100C900004D0FFF7CBFC044638E034E0FFF7C6FC95
:100CA000074604E0FFF7C2FCC01B02282BD82868C7
:100CB0008001F7D4206AB0F5803F05D16868A1684B
:100CC00020F4003008436860D4E9080108436968EB
:100CD00021F4741108436860C6F86090FFF7A6FC21
:100CE000044606E025E000BFFFF7A0FC001B022839
:100CF00009D828688001F7D51BE000BFFFF796FCF4
:100D0000001B022802D90320BDE8F88F2868800163
:100D1000F4D40EE00128F7D06868226A00F480312C
:100D2000914204D1616A00F47010884201D0012020
:100D3000EAE70020E8E7000000100240000042421D
:100D4000800442420C0000200070004010B5401E9C
:100D5000B0F1807F01D3012010BD4FF0E02460612D
:100D60000F21601700F089FD0020A061072020619D
:100D7000002010BD7047704710B590F83C20012A44
:100D800022D0012280F83C20CA688C6822F440728C
:100D900022434C6822F4806222430C6822F40062F1
:100DA00022430C6922F4805222434C6922F40052FF
:100DB0002243C969002322F480420A4301684A643D
:100DC00080F83C30002010BD022010BD70B590F8B6
:100DD0003C20012A23D0012480F83C40022280F8E4
:100DE0003D2003685A689D6822F070060A68324305
:100DF0005A600C4B02689A4205D0B2F1804F02D083
:100E0000094B9A4204D1496825F080031943916047
:100E100080F83D40002180F83C10084670BD02205B
:100E200070BD0000002C0140000400402DE9F0419D
:100E30000D46040003D094F83D0018B108E00120ED
:100E4000BDE8F081002084F83C00204600F040F826
:100E5000022084F83D002068816844F20702914333
:100E60008160211D206800F0DBFB22689068916999
:100E7000166A2B68AF69034340F20330814341EAAD
:100E80000721A868EF6908434FF6FC418843E968E9
:100E900040EA0720014328692F6A000140EA073031
:100EA000084369686D6926F0220646EA051529435C
:100EB00093602268906154F8460B0162012004F8A7
:100EC0001F09E0752076E0762077A0750020B7E74F
:100ED00000B585B000210091019102910391006855
:100EE000114988421ED11148C16941F00201C16116
:100EF000C16901F002010491816941F0040181613D
:100F00008069694600F004000490C0200090084801
:100F1000FFF7A6FA002211461D20FFF7F3FB1D2064
:100F2000FFF7E2FB05B000BD0004004000100240E6
:100F300000080140704770B50446006801694FF031
:100F40000005C943890715D4C168C943890711D46D
:100F5000E91E016101202077206880698007204612
:100F600002D0FFF7E7FF04E000F0D2F8204600F0DF
:100F700075F9257720680169C943490717D4C16805
:100F8000C943490713D46FF004010161022020779F
:100F90002068806910F4407F204602D0FFF7CAFF26
:100FA00004E000F0B5F8204600F058F925772068F5
:100FB0000169C943090716D4C168C943090712D496
:100FC0006FF008010161042020772068C069800764
:100FD000204602D0FFF7AEFF04E000F099F820466B
:100FE00000F03CF9257720680169C943C90617D488
:100FF000C168C943C90613D46FF01001016108200C
:1010000020772068C06910F4407F204602D0FFF7A7
:1010100091FF04E000F07CF8204600F01FF92577EE
:1010200020680169C943C90708D1C168C943C90714
:1010300004D1891E0161204600F011F92068016980
:10104000C943090609D4C168C943090605D46FF02C
:10105000800101612046FFF78DFE20680169C943C8
:10106000490609D4C168C943490605D46FF0400157
:101070000161204600F0F4F820680169C94389063F
:101080000BD4C168C943890607D46FF02001016100
:101090002046BDE87040FFF76EBE70BD10B586B04B
:1010A0000021009101910291039100681449884246
:1010B00023D11448816941F008018161816901F0FF
:1010C00008010491816941F0040181618069022471
:1010D00000F0040004904FF46040CDE9000469463C
:1010E00009480394FFF7BCF94FF4E060CDE9000430
:1010F000694606480394FFF7B3F906B010BD000037
:10110000002C014000100240000C0140000801408A
:10111000704770B5044690F83C000D4601280AD08F
:10112000012084F83C0042B1042A18D0082A2AD0B1
:101130000C2A4DD139E0022070BD206800F09EFAE3
:101140002068816941F0080181612068816921F08E
:1011500004018161206881692A69114311E02068D6
:1011600000F0B4FA2068816941F40061816120686F
:10117000816921F480618161206881692A6941EA7D
:101180000221816124E0206800F0CCFA2068C16966
:1011900041F00801C1612068C16921F00401C16109
:1011A0002068C1692A69114311E0206800F0E6FA5D
:1011B0002068C16941F40061C1612068C16921F4FE
:1011C0008061C1612068C1692A6941EA0221C16167
:1011D000002084F83C0070BD10B5040003D094F8E2
:1011E0003D0010B107E0012010BD002084F83C0054
:1011F000204600F01FF8022084F83D00211D2068E1
:1012000000F00EFA012084F8460084F83E0084F8CD
:101210003F0084F8400084F8410084F8420084F8DC
:10122000430084F8440084F8450084F83D00002021
:1012300010BD000008B500680649884208D106487C
:10124000816941F400618161806900F4006000906F
:1012500008BD0000002C014000100240704770479C
:10126000704770B5040004D094F83D00002510B11B
:1012700006E0012070BD84F83C50204600F022F8C2
:10128000242084F83D002068C16821F40051C16029
:10129000204600F095FA2068016921F4904101612F
:1012A0002068416921F02A0141612068C16841F448
:1012B0000051C1602564202084F83D0084F83E0080
:1012C000002070BD30B585B00024009401940294D4
:1012D000039400681449884223D11448C16941F439
:1012E0000031C161C16901F400310491816941F0AB
:1012F0000401816180690E4D00F004000490042017
:101300000090022001900320039069462846FFF7D1
:10131000A7F80820CDE90004694628460294FFF7A3
:101320009FF805B030BD00000044004000100240AE
:1013300000080140FEE700003EB50024104800947C
:10134000019402940D4984600160047304750125C1
:1013500005614FF460214460C161FEF7B7FF08B139
:10136000FEF733FFCDE90045694605480294FEF7D4
:101370002FFF002801D0FEF728FF3EBD00240140CA
:10138000100000202DE9F04186B00024234800948D
:10139000019402940394816941F020018161816983
:1013A00001F020010491816941F0040181618169AA
:1013B00001F004010491816941F0080181618069B3
:1013C000012200F00800164FD6030490314638463B
:1013D000FFF726F9DFF84C80012278214046FFF71D
:1013E0001FF9302001258DE8310069463846FFF7A6
:1013F00037F8CDE900650226CDE902466946384650
:10140000FFF72EF87820CDE90005CDE902466946C0
:101410004046FFF725F806B0BDE8F0810010024015
:1014200000080140000C014010B592B000240F9458
:101430001C2168461094FEF77EFE202107A8FEF7C7
:101440007AFE28482649C0E900144FF6FF71C0E92A
:101450000241046144618461FFF7BEFE08B1FEF7FA
:10146000B4FE0F940FA91F481094FFF7AFFC08B10A
:10147000FEF7ABFE6020CDE90004029403940494CF
:1014800005940022694617480694FFF742FE08B10A
:10149000FEF79BFE042269461248FFF73AFE08B1A8
:1014A000FEF793FE082269460E48FFF732FE08B1A8
:1014B000FEF78BFE0794089409944FF400500A94A9
:1014C000CDE90B4007A907480E94FFF755FC08B17A
:1014D000FEF77BFE0348FFF7E1FD12B010BD0000F0
:1014E000002C01404000002010B58CB0242168463B
:1014F000FEF721FE00241548099413490A94C0E917
:1015000000144FF6FF71C0E90241046184610120BB
:10151000CDE90004CDE902040494CDE90540079427
:1015200069460A480894FFF781FC08B1FEF74DFEB2
:10153000099409A905480A94FFF748FC002801D03E
:10154000FEF743FE0CB010BD0004004088000020F0
:101550000C4810B50A4901604FF4E13141600021A7
:1015600081600C22C160C0E904128161C161FFF792
:1015700078FE002803D0BDE81040FEF726BE10BD5F
:1015800000440040D0000020FEE7FEE770477047AF
:10159000FFF752B830B593B028216846FEF7CBFD6F
:1015A00014210AA8FEF7C7FD00250F951095119587
:1015B00001204FF4A02112958DE82300049002240D
:1015C0000004CDE907404FF4E01009906846FFF7AA
:1015D0002DFA08B172B6FEE70AA90F2081E83100A2
:1015E0004FF48060CDE90D0502210AA8FFF732F91A
:1015F00008B172B6FEE74FF4004011900F940FA8A7
:10160000FFF7B2F8002801D072B6FEE713B030BD84
:10161000704700000148FFF78EBC000088000020E2
:1016200070B50268134B144C4FF08046984203D0BB
:10163000B04201D0A04203D122F070054A682A438B
:10164000984203D0B04201D0A04203D122F44074AA
:10165000CA6822434C6922F08002224302608A68F1
:10166000C2620A688262984201D10969016301215C
:10167000416170BD002C01400004004030B5026A99
:1016800022F001020262026A4368846924F0730551
:101690000C682C4322F002058A682A430A4DA842AE
:1016A0000BD122F00805CA6823F440732A434D6920
:1016B00022F004021D438B692B4343608461496817
:1016C0004163026230BD0000002C014030B5026A67
:1016D00022F010020262026A436884690D6824F4F1
:1016E000E64444EA05248D6822F0200242EA05120D
:1016F0000B4DA8420ED1CD6822F0800242EA0512BD
:101700004D6923F4406343EA85038D6922F040026A
:1017100043EA85034360846149688163026230BDA6
:10172000002C014030B5026A22F480720262036A22
:101730004268C46923F4007324F073050C682C43D9
:101740008D6843EA05230C4DA8420ED1CD6823F4E1
:10175000006343EA05234D6922F4405242EA051230
:101760008D6923F4806342EA05124260C4614968CE
:10177000C163036230BD0000002C014030B5026A35
:1017800022F480520262046A4268C3690D6823F43D
:10179000E64343EA05238D6824F4005444EA053403
:1017A000064DA84204D14D6922F4804242EA8512D6
:1017B0004260C36149680164046230BD002C01408D
:1017C00070B5044600680169E26821F44051114394
:1017D00001612169A0680843616908432168CA68FA
:1017E00041F20C639A430243CA6020684169A269CE
:1017F00021F44071114341611E492068884202D1A1
:10180000FFF7CEF801E0FFF7BBF800EBC00101EBFA
:101810000012606864218000B2FBF0F3B3FBF1F3C7
:101820006FF018067343B2FBF0F5B2FBF0F605EB70
:101830008305322303EB0515B5FBF1F5B6FBF1F695
:1018400005F0F00505EB0615B2FBF0F6B2FBF0F083
:10185000B0FBF1F06FF01802504306EB800003EB91
:101860000010B0FBF1F0216800F00F002844886000
:1018700070BD000000380140FEE70907090E00288E
:1018800004DB00F1E02080F80014704700F00F0046
:1018900000F1E02080F8141D704702E008C8121F14
:1018A00008C1002AFAD170477047002001E001C149
:1018B000121F002AFBD17047FEF7C6FEFFF76AFE33
:1018C000FFF760FDFFF710FEFFF736FDFFF7ACFDF9
:1018D000FFF73EFEFEE700000000000000000102EE
:1018E00003040607080900000000010203040000C9
:1018F0001019000800000020100000009A180008CD
:10190000201900081000002008050000AA1800088F
:101910000100000010000000000000000024F4009E
:04000005080000ED02
:00000001FF
