:020000040800F2
:1000000070050020050100087F190008311500085F
:100010007D190008C7010008511F000800000000FA
:100020000000000000000000000000007B1B000832
:10003000C901000800000000791B0008F11B00083E
:100040001F0100081F0100081F0100081F01000810
:100050001F0100081F0100081F0100081F01000800
:100060001F0100081F0100081F0100081F010008F0
:100070001F0100081F0100081F0100081F010008E0
:100080001F0100081F0100081F0100081F010008D0
:100090001F0100081F0100081F0100081F010008C0
:1000A0001F0100081F0100081F0100081F010008B0
:1000B000751C0008811C0008000000001F010008DA
:1000C0001F01000800000000000000001F010008E0
:1000D000000000001F0100081F01000800000000D0
:1000E0001F0100081F0100081F010008DFF810D0E1
:1000F00000F02CF800480047A51F0008AFF300806F
:10010000700500200648804706480047FEE7FEE7E6
:10011000FEE7FEE7FEE7FEE7FEE7FEE7FEE7FEE7B7
:10012000711C0008ED000008D2B201E000F8012BBC
:10013000491EFBD270470022F6E710B513460A4667
:1001400004461946FFF7F0FF204610BD064C074D48
:1001500006E0E06840F0010394E807009847103497
:10016000AC42F6D3FFF7C6FF282B0008482B000847
:1001700070B5044600688168C943C90717D1816812
:1001800021F00101816000F08BFA05460AE000BF12
:1001900000F086FA401B022804D920688068C0431A
:1001A000C00706D020688068C043C007F0D0002098
:1001B00070BDA06A40F01000A062E06A40F001004B
:1001C000E062012070BDFEE7704772B6FEE70000F6
:1001D00070B504460078002500B125702079094EDD
:1001E00020B125711021304600F04DFA607920B120
:1001F00065712021304600F046FAA078002800D032
:10020000A57070BD000C0140F8B50024009490F872
:1002100024202546012A12D0012280F824204A6891
:100220001F23072A0DD20668776B521E02EB82024B
:1002300093409F430B6893401F43776319E002206C
:10024000F8BD06680D2A0AD2376BD21F02EB820274
:1002500093409F430B6893401F43376309E0F76A5D
:100260000D3A02EB820293409F430B6893401F4379
:10027000F7620A68072306680A2A0AD3F7680A3A67
:1002800002EB420293409F438B6893401F43F76009
:1002900008E0376902EB420293409F438B6893402A
:1002A0001F4337610A68102A01D0112A20D1124B4E
:1002B00002689A4217D193681B0219D4936843F4D9
:1002C000000393600968102912D10C490C4A09688F
:1002D000B1FBF2F101EB8101490000E0491E009100
:1002E0000029FBD104E0816A41F0200181620124F0
:1002F00080F824502046F8BD002401401000002062
:1003000040420F002DE9F0414FF0000704003D4648
:100310007ED0A06A002628B9E66284F824602046D0
:1003200000F07EF82046FFF723FFA16AC90600D43B
:1003300020B1A06A40F01000A06269E0A16A21F437
:10034000885141F00201A1626268E169237B0A439E
:1003500047EA43010A43A1684FF48077B94209D0C4
:10036000012907D05FF0000194F814C0BCF1010F1F
:1003700002D00AE03946F7E7F3B1A36A43F020035D
:10038000A362E36A43F00103E3622368D3F804C085
:100390002CF4694C4CEA010CC3F804C021688B684A
:1003A000DFF870C003EA0C0313438B60A168B94205
:1003B0000BD0012909D00CE0DFF85CC0A3690CEB7D
:1003C00043330B4343F40061DFE7218A0D05A5F5B4
:1003D00080152168CB6A23F470032B43CB6221681C
:1003E00089680E4B1940914208D1E662A16A21F05A
:1003F000020141F00101A162BDE8F081A06A20F094
:10040000020040F01000A062E06A40F00100E062EB
:100410000120F1E7FDF7E1FF00E0FFFFFE0E1FFF07
:1004200010B586B0002100910191029103910068FE
:100430001549884225D11548816941F400718161CF
:10044000816901F400710491816941F004018161C5
:10045000816901F004010491816941F00801816121
:100460008069032400F00800049000946946019418
:10047000074800F023F8009469460648019400F00C
:100480001DF806B010BD000000240140001002401D
:1004900000080140000C014070B5044600F000F96E
:1004A0000546601C02D004480078044400F0F8F8C7
:1004B000401BA042FAD370BD040000202DE9F84F84
:1004C000DFF89C91002409F1040A0AF1040B234689
:1004D0000F270BF1040EBBE00125A5402A40AA42DC
:1004E00076D1DFF880C14E68A6EB0C0866452BD0AC
:1004F0000DDC032E34D005DC36B3012E19D0022ECC
:100500002FD11BE0112E16D0122E2AD119E0B8F5EA
:10051000881F19D006DCB8F5803F15D0B8F5801FCC
:100520001FD111E0B8F5001F0ED0B8F5041F18D187
:100530000AE0CB6815E0CB681B1D12E0CB680833DE
:100540000FE0CB680C330CE08B682BB1012B4FF024
:10055000080303D0456104E0042302E0056100E0E4
:100560000023FF2A01D8064601E000F104064FEA05
:10057000840501D9A5F12005D6F8008007FA05FC0D
:1005800028EA0C0803FA05F548EA0508C6F80080D1
:100590004D68ED005BD5344DAE6946F00106AE61A5
:1005A000AD6924F0030605F0010500952F4D06EB1B
:1005B000050CDCF80850A607360F07FA06F825EAFE
:1005C0000805DFF8AC80404503D14FF0000810E08B
:1005D0003DE0DFF8A080404502D14FF0010808E07F
:1005E000DFF89480404502D14FF0020801E04FF05F
:1005F000030808FA06F848EA0508CCF808804D68B0
:10060000D9F80060ED034D4601D5164300E096434E
:100610002E604D68DAF80060AD03554601D51643EB
:1006200000E096432E604D68DBF80060ED025D4609
:1006300001D5164300E096432E604D68DEF8006059
:10064000AD02754601D5164300E096432E60641C4A
:100650000A6832FA04F57FF43FAFBDE8F88F000076
:100660000004014000001110001002400000014091
:1006700000080140000C0140001001408068084063
:1006800000D001207047C26821EA02030A4043EA11
:100690000241016170470AB1016170470904FBE73B
:1006A000014880687047000004000020024881680B
:1006B000027811448160704704000020074810B59B
:1006C000016841F010010160032000F075F80F206F
:1006D00000F006F800F024F8002010BD00200240D1
:1006E00070B50D4D04464FF47A712878B1FBF0F0E7
:1006F0000A490968B1FBF0F000F062FB48B9102C20
:1007000007D200222146501E00F036F800206C600F
:1007100070BD012070BD000004000020100000200A
:100720000C4808B5816941F001018161816901F0DE
:1007300001010091C16941F08051C161C06900F0BF
:10074000805000900448416821F0E06141F0007160
:10075000416008BD0010024000000140002809DB94
:1007600000F01F02012191404009800000F1E020CB
:10077000C0F8001170470000F0B40E4B1B680C4627
:10078000C3F30223C3F10705042D00D90425191D65
:10079000072901D2002300E0DB1E012606FA05F13D
:1007A000491E214099409E40761E16403143F0BCC0
:1007B00001F0D9BB0CED00E0064900F00702086823
:1007C0004FF6FF03184040EA0220034A1043086036
:1007D000704700000CED00E00000FA052DE9F84339
:1007E00005460078354CC00754D0E0690026C000AB
:1007F00008D4E06940F08050E061E069012600F033
:10080000805000902E480168C90512D401688046C6
:1008100041F480710160FFF743FF074605E000BF28
:10082000FFF73EFFC01B642823D8D8F80000C0059E
:10083000F6D5206A10F4407021D0A98801F44071E7
:1008400081421CD0206A1F49012220F440700A60B6
:1008500000220A602062C00711D0FFF721FF07467F
:1008600041F2883808E000BFFFF71AFFC11B41457D
:1008700002D90320BDE8F883206A8007F4D5206AF6
:10088000696820F44070084320621EB1E06920F0DE
:100890008050E0612878800705D56068A96820F459
:1008A0004040084360602878C00605D56068E96864
:1008B00020F48000084360600020DBE70010024065
:1008C00000700040400442422DE9F0470F46050009
:1008D00061D0434E306800F00700B84209D230685A
:1008E00020F0070038433060306800F00700B8425D
:1008F00051D128683B4C810712D5400703D5606869
:1009000040F4E06060602878000703D5606840F438
:10091000605060606068A96820F0F0000843606083
:100920002878C00728D06868012810D021680228DC
:1009300010D0890700292EDA616821F003010143F4
:100940006160FFF7ADFE804641F288390DE0216815
:100950008903EFE78901EDE7FFF7A2FEA0EB0801AD
:10096000494502D90320BDE8F0876068696800F056
:100970000C00B0EB810FEFD1306800F00700B842F7
:100980000BD9306820F0070038433060306800F041
:100990000700B84201D00120E5E72878400705D5D7
:1009A0006068E96820F4E060084360602878000728
:1009B00006D56068296920F4605040EAC100606093
:1009C00000F038F86168084AC1F30311515CC8406F
:1009D0000649086006480068FFF782FE0020C2E76B
:1009E00000200240001002403620000810000020C5
:1009F000080000200448054900684968044AC1F31A
:100A00000221515CC84070471000002000100240D5
:100A1000462000080448054900684968044AC1F3B3
:100A2000C221515CC84070471000002000100240F5
:100A30004620000812A185B00FC98DE80F0014A050
:100A4000144A006804905168134801F00C03042B09
:100A500010D0082B0ED1C1F38343C9031DF8030046
:100A60000AD5516804AAC1F34041515C0A4A504377
:100A7000B0FBF1F005B0704708494843FAE70000C1
:100A800002030405060708090A0B0C0D0E0F1010CF
:100A9000010200000010024000127A0000093D002F
:100AA0002DE9F84F040070D02078C04DC00749D020
:100AB0006868C0F38100012807D06868C0F381002E
:100AC000022809D16868C00306D52868800339D593
:100AD00060680028E7D035E06068B0F5803F0BD053
:100AE00010B1B0F5A02F11D0286820F48030286014
:100AF000286820F4802002E0286840F480302860D4
:100B0000606890B1FFF7CCFD06460AE0286840F423
:100B100080202860F0E700BFFFF7C2FD801B64283B
:100B200073D828688003F7D50CE0FFF7B9FD0646B7
:100B300005E000BFFFF7B4FD801B6428F0D82868EB
:100B40008003F7D420789A4E80074FF001094FF0C8
:100B5000000839D5686810F00C0F07D06868C0F33A
:100B60008100022809D16868C00306D4286880077C
:100B700014D52069012808D110E02069B0B1C6F869
:100B80000090FFF78DFD074605E00AE1FFF788FDBD
:100B9000C01B0228C4D828688007F7D52868616977
:100BA00020F0F80040EAC10028600DE0C6F800809F
:100BB000FFF776FD074604E0FFF772FDC01B022831
:100BC00023D828688007F7D4207800072CD57948E7
:100BD000A169D9B1C0F80090FFF762FD074604E0B3
:100BE000FFF75EFDC01B02280FD8686A8007F7D5A3
:100BF00071484FF4FA510068B0FBF1F0009000BF6B
:100C00000098411E0091FAD20EE080E0C0F800800A
:100C1000FFF746FD074604E0FFF742FDC01B022830
:100C200075D8686A8007F7D42078400760D5E869EE
:100C30000027C00008D4E86940F08050E861E86906
:100C4000012700F0805000905C480168C90513D46A
:100C50000168834641F480710160FFF721FD8246FF
:100C600006E000BFFFF71CFDA0EB0A0064284ED889
:100C7000DBF80000C005F5D5E06801280AD008B10E
:100C8000052813D0286A20F001002862286A20F085
:100C9000040002E0286A40F001002862E06841F2A6
:100CA000883B98B1FFF7FCFC82460BE0286A40F0D5
:100CB00004002862EEE700BFFFF7F2FCA0EB0A0198
:100CC00059455AD8286A8007F6D50CE0FFF7E8FCAA
:100CD000824605E0FFF7E4FCA0EB0A0159454CD839
:100CE000286A8007F6D41FB1E86920F08050E861D7
:100CF000E06988B36968C1F38101022944D0022800
:100D0000C6F8608004D0FFF7CBFC044638E034E03E
:100D1000FFF7C6FC074604E0FFF7C2FCC01B022831
:100D20002BD828688001F7D4206AB0F5803F05D120
:100D30006868A16820F4003008436860D4E90801BD
:100D40000843696821F4741108436860C6F860902C
:100D5000FFF7A6FC044606E025E000BFFFF7A0FC75
:100D6000001B022809D828688001F7D51BE000BFC6
:100D7000FFF796FC001B022802D90320BDE8F88F7C
:100D800028688001F4D40EE00128F7D06868226A50
:100D900000F48031914204D1616A00F470108842FD
:100DA00001D00120EAE70020E8E70000001002403F
:100DB00000004242800442421000002000700040C7
:100DC00010B5401EB0F1807F01D3012010BD4FF05F
:100DD000E02460610F21601701F0C5F80020A061D8
:100DE00007202061002010BD7047704710B590F8B3
:100DF0003C20012A22D0012280F83C20CA688C685D
:100E000022F4407222434C6822F4806222430C6830
:100E100022F4006222430C6922F4805222434C697E
:100E200022F400522243C969002322F480420A437B
:100E300001684A6480F83C30002010BD022010BDDB
:100E400070B590F83C20012A23D0012480F83C4062
:100E5000022280F83D2003685A689D6822F07006DF
:100E60000A6832435A600C4B02689A4205D0B2F1CC
:100E7000804F02D0094B9A4204D1496825F0800383
:100E80001943916080F83D40002180F83C100846ED
:100E900070BD022070BD0000002C01400004004025
:100EA00010B5040003D094F83D0010B107E0012014
:100EB00010BD002084F83C00204600F01FF80220FE
:100EC00084F83D00211D206800F0E0FE012084F838
:100ED000460084F83E0084F83F0084F8400084F81F
:100EE000410084F8420084F8430084F8440084F808
:100EF000450084F83D00002010BD000008B50068E2
:100F0000B0F1804F12D10A48C16941F00101C161BD
:100F1000C069002200F00100009011461C20FFF77C
:100F20002BFCBDE808401C20FFF718BC08BD0000E2
:100F30000010024070B5044690F83C00012817D01C
:100F4000012584F83C50022084F83D002068826826
:100F500022F0770222F47F4282600868502830D065
:100F60000DDC20284DD005DC98B310283BD148E09B
:100F7000022070BD302844D0402834D139E06028A8
:100F800028D0702806D0B0F5805F2CD0B0F5005F77
:100F900029D10AE0CB68D1E90121206800F0A4FE44
:100FA0002068816841F0770109E0CB68D1E901212F
:100FB000206800F099FE2068816841F480418160DA
:100FC00011E0CA684968206800F042FF502120689B
:100FD00007E016E0CA684968206800F04AFF60210F
:100FE000206800F08BFE84F83D50002084F83C001F
:100FF00070BDCA684968206800F02AFF4021206857
:10100000EFE7226801461046EBE72DE9F0410D4677
:10101000040003D094F83D0018B108E00120BDE8B9
:10102000F081002084F83C00204600F041F80220C6
:1010300084F83D002068816844F207029143816092
:10104000211D206800F022FE226890689169166ACE
:101050002B68AF69034340F20330814341EA072123
:10106000A868EF6908434FF6FC418843E96840EA05
:101070000720014328692F6A000140EA073008432E
:1010800069686D6926F0220646EA051529439360D2
:101090002268906154F8460B0162012004F81F0990
:1010A000E0752076E0762077A0750020B7E7000095
:1010B00000B585B000210091019102910391006873
:1010C000114988421ED11148C16941F00201C16134
:1010D000C16901F002010491816941F0040181615B
:1010E0008069694600F004000490C0200090084820
:1010F000FFF7E4F9002211461D20FFF73DFB1D20FC
:10110000FFF72CFB05B000BD0004004000100240BA
:1011100000080140704770B50446006801694FF04F
:101120000005C943890715D4C168C943890711D48B
:10113000E91E016101202077206880698007204630
:1011400002D0FFF7E7FF04E000F0D2F8204600F0FD
:1011500075F9257720680169C943490717D4C16823
:10116000C943490713D46FF00401016102202077BD
:101170002068806910F4407F204602D0FFF7CAFF44
:1011800004E000F0B5F8204600F058F92577206813
:101190000169C943090716D4C168C943090712D4B4
:1011A0006FF008010161042020772068C069800782
:1011B000204602D0FFF7AEFF04E000F099F8204689
:1011C00000F03CF9257720680169C943C90617D4A6
:1011D000C168C943C90613D46FF01001016108202A
:1011E00020772068C06910F4407F204602D0FFF7C6
:1011F00091FF04E000F07CF8204600F01FF925770D
:1012000020680169C943C90708D1C168C943C90732
:1012100004D1891E0161204600F012F9206801699D
:10122000C943090609D4C168C943090605D46FF04A
:10123000800101612046FFF7D7FD20680169C9439D
:10124000490609D4C168C943490605D46FF0400175
:101250000161204600F002F920680169C94389064E
:101260000BD4C168C943890607D46FF0200101611E
:101270002046BDE87040FFF7B8BD70BD10B586B020
:101280000021009101910291039100681449884264
:1012900023D11448816941F008018161816901F01D
:1012A00008010491816941F004018161806902248F
:1012B00000F0040004904FF46040CDE9000469465A
:1012C00009480394FFF7FAF84FF4E060CDE9000411
:1012D000694606480394FFF7F1F806B010BD000018
:1012E000002C014000100240000C014000080140A9
:1012F000704770B5044690F83C000D4601280AD0AE
:10130000012084F83C0042B1042A18D0082A2AD0CF
:101310000C2A4DD139E0022070BD206800F0F6FCA7
:101320002068816941F0080181612068816921F0AC
:1013300004018161206881692A69114311E02068F4
:1013400000F00CFD2068816941F400618161206832
:10135000816921F480618161206881692A6941EA9B
:101360000221816124E0206800F024FD2068C16929
:1013700041F00801C1612068C16921F00401C16127
:101380002068C1692A69114311E0206800F03EFD20
:101390002068C16941F40061C1612068C16921F41C
:1013A0008061C1612068C1692A6941EA0221C16185
:1013B000002084F83C0070BD10B5040003D094F800
:1013C0003D0010B107E0012010BD002084F83C0072
:1013D000204600F01FF8022084F83D00211D2068FF
:1013E00000F054FC012084F8460084F83E0084F8A4
:1013F0003F0084F8400084F8410084F8420084F8FB
:10140000430084F8440084F8450084F83D0000203F
:1014100010BD000008B500680649884208D106489A
:10142000816941F400618161806900F4006000908D
:1014300008BD0000002C0140001002407047000071
:10144000044900680968884202D1034901200870F4
:10145000704700009800002000000020704770B521
:10146000040004D094F83D00002510B106E00120EE
:1014700070BD84F83C50204600F022F8242084F807
:101480003D002068C16821F40051C160204600F091
:1014900003FD2068016921F49041016120684169E0
:1014A00021F02A0141612068C16841F40051C16006
:1014B0002564202084F83D0084F83E00002070BDA3
:1014C00030B585B000240094019402940394006820
:1014D0001449884223D11448C16941F40031C161E3
:1014E000C16901F400310491816941F00401816115
:1014F00080690E4D00F0040004900420009002204A
:1015000001900320039069462846FEF7D7FF082084
:10151000CDE90004694628460294FEF7CFFF05B0E6
:1015200030BD0000004400400010024000080140AF
:10153000FEE70020401CC0B20A28FBD37047000021
:1015400030B5104885B0816941F00801816180693A
:10155000112400F0080004904FF40040CDE900048D
:101560000125694603950848FEF7A8FF0820CDE944
:101570000004694603950548FEF7A0FF00F062F8F5
:1015800005B030BD0010024000080140000C0140D1
:101590002DE9F041174FDFF86080054600244FF435
:1015A0000046280601D5012200E00022082140461D
:1015B000FFF771F8FFF7BDFF012231463846FFF70C
:1015C0006AF8FFF7B6FF002231463846FFF763F8A6
:1015D000072C04D1012208214046FFF75CF8680679
:1015E000050EFFF7A6FF641CE4B2082CD9D3BDE8B2
:1015F000F081000000080140000C014070B50F4C64
:10160000012208212046FFF746F801220C4ED5039F
:1016100029463046FFF73FF8FFF78BFF00220821ED
:101620002046FFF738F8FFF784FF002229463046AE
:10163000FFF731F8BDE87040FFF77BBF000C0140B9
:101640000008014010B50A4C002208212046FFF78F
:1016500022F80122D1030748FFF71DF8FFF769FFC1
:1016600020460122BDE810400821FFF714B8000011
:10167000000C01400008014070B5114C0122082106
:101680002046FFF708F8FFF754FF01220D4ED5035F
:1016900029463046FEF7FFFFFFF74BFF08212046A3
:1016A000FEF7ECFF08B1012400E0002400222946E7
:1016B0003046FEF7F0FFFFF73CFF204670BD00000C
:1016C000000C0140000801403EB500241048009481
:1016D000019402940D49846001600473047501252E
:1016E00005614FF460214460C161FEF70BFE08B153
:1016F000FEF76BFDCDE90045694605480294FEF70B
:1017000083FD002801D0FEF760FD3EBD00240140AE
:10171000200000202DE9F04186B0002423480094E9
:10172000019402940394816941F0200181618169EF
:1017300001F020010491816941F004018161816916
:1017400001F004010491816941F00801816180691F
:10175000012200F00800164FD603049031463846A7
:10176000FEF799FFDFF84C80012278214046FEF712
:1017700092FF302001258DE8310069463846FEF79A
:101780009DFECDE900650226CDE902466946384650
:10179000FEF794FE7820CDE90005CDE902466946C2
:1017A0004046FEF78BFE06B0BDE8F0810010024017
:1017B00000080140000C014010B592B000240F94C5
:1017C0001C2168461094FEF7B6FC202107A8FEF7FE
:1017D000B2FC28482649C0E900144FF6FF71C0E961
:1017E0000241046144618461FFF7E6FD08B1FEF740
:1017F000ECFC0F940FA91F481094FFF721FB08B1D0
:10180000FEF7E3FC6020CDE9000402940394049405
:1018100005940022694617480694FFF76AFD08B14F
:10182000FEF7D3FC042269461248FFF762FD08B1B7
:10183000FEF7CBFC082269460E48FFF75AFD08B1B7
:10184000FEF7C3FC0794089409944FF400500A94DF
:10185000CDE90B4007A907480E94FFF7C7FA08B176
:10186000FEF7B3FC0348FFF709FD12B010BD0000FE
:10187000002C01405000002010B586B0002416480E
:10188000009401940294039404944FF080410594D1
:1018900001604721C0E9011440F2E731C0E90314B7
:1018A0008461FFF7FDFA08B1FEF78FFC4FF480501A
:1018B000009069460848FFF73DFB08B1FEF785FC3C
:1018C000049404A904480594FFF7BAFA002801D04B
:1018D000FEF77BFC06B010BD9800002010B58CB060
:1018E00024216846FEF727FC002415480994134973
:1018F0000A94C0E900144FF6FF71C0E90241046187
:1019000084610120CDE90004CDE902040494CDE90D
:101910000540079469460A480894FFF776FB08B12A
:10192000FEF753FC099409A905480A94FFF788FAC1
:10193000002801D0FEF749FC0CB010BD00040040A7
:10194000E00000200C4810B50A4901604FF4E13175
:101950004160002181600C22C160C0E904128161F4
:10196000C161FFF77CFD002803D0BDE81040FEF701
:101970002CBC10BD0044004028010020FEE7FEE71B
:10198000002000F001B8000070B506465FF00004CA
:1019900004F1B000C0B200F0DCFA002000F0D9FA87
:1019A000102000F0D6FA0025304600F0D7FA6D1C62
:1019B000EDB2802DF8D3641CE4B2082CE8D370BDDE
:1019C00010B5FFF7BDFD6420FEF766FDAE2000F008
:1019D000C0FA202000F0BDFA102000F0BAFAB020C2
:1019E00000F0B7FAC02000F0B4FA002000F0B1FA1D
:1019F000102000F0AEFA402000F0ABFA812000F099
:101A0000A8FAFF2000F0A5FAA02000F0A2FAA62074
:101A100000F09FFAA82000F09CFA3F2000F099FA0D
:101A2000A42000F096FAD32000F093FA002000F0F2
:101A300090FAD52000F08DFAF02000F08AFAD92033
:101A400000F087FA222000F084FADA2000F081FA10
:101A5000122000F07EFADB2000F07BFA202000F05C
:101A600078FA8D2000F075FA142000F072FABDE8C3
:101A70001040AF2000F06DBA10B50446B031C8B2C6
:101A800000F067FA102040EA141000F062FA04F047
:101A90000F00BDE8104040F0010000F05ABA00000D
:101AA0002DE9F047002591468A460446012B22D0B5
:101AB000DFF8BC80022B24D155E02038C7B27E2C41
:101AC00004D90AF10100002400F0FF0A5146204623
:101AD000FFF7D2FF07EB4700002608EB4007B85D91
:101AE00000F03CFA761CF6B2062EF8D3A41D6D1C4D
:101AF000E4B2EDB201E0DFF87C8019F805000028BF
:101B0000DBD1BDE8F0872038C7B2782C04D90AF1C0
:101B10000100002400F0FF0A51462046FFF7ACFF09
:101B20005FF0000606EB071118F8010000F016FA46
:101B3000761CF6B2082EF5D30AF10100C1B2204698
:101B4000FFF79AFF5FF0000606EB071101EB0800B4
:101B5000007A00F003FA761CF6B2082EF4D30834AB
:101B60006D1CE4B2EDB219F805000028CBD1C8E72E
:101B7000362500080E230008704770471A4810B534
:101B8000017800292ED00021017018484EF66023FC
:101B90000288521C92B202809A4200D301800088CF
:101BA0000A21B0FBF1F201FB1203104A0121121DC0
:101BB00003B91170C823B0FBF3F403FB140303B99A
:101BC00011714FF4C873B0FBF3F403FB140303B9B2
:101BD00051714FF47A73B0FBF3F403FB1400002847
:101BE00000D1917010BD0000000000201400002002
:101BF000FEF75CBD30B593B028216846FEF79BFA2E
:101C000014210AA8FEF797FA00250F951095119553
:101C100001204FF4A02112958DE8230004900224A6
:101C20000004CDE907404FF4E01009906846FEF744
:101C300037FF08B172B6FEE70AA90F2081E831002C
:101C40004FF48060CDE90D0502210AA8FEF73CFEA5
:101C500008B172B6FEE74FF4004011900F940FA840
:101C6000FEF7BCFD002801D072B6FEE713B030BD10
:101C7000704700000148FFF74EBA000098000020AE
:101C80000148FFF748BA0000E000002070B5026884
:101C9000134B144C4FF08046984203D0B04201D011
:101CA000A04203D122F070054A682A43984203D02B
:101CB000B04201D0A04203D122F44074CA6822434A
:101CC0004C6922F08002224302608A68C2620A687C
:101CD0008262984201D1096901630121416170BDAD
:101CE000002C01400004004010B5846842EA032241
:101CF00024F47F440A432243826010BD826822F0AC
:101D000070020A4342F007018160704730B5026AF1
:101D100022F001020262026A4368846924F07305BA
:101D20000C682C4322F002058A682A430A4DA84217
:101D30000BD122F00805CA6823F440732A434D6989
:101D400022F004021D438B692B4343608461496880
:101D50004163026230BD0000002C014030B5026AD0
:101D600022F010020262026A436884690D6824F45A
:101D7000E64444EA05248D6822F0200242EA051276
:101D80000B4DA8420ED1CD6822F0800242EA051226
:101D90004D6923F4406343EA85038D6922F04002D4
:101DA00043EA85034360846149688163026230BD10
:101DB000002C014030B5026A22F480720262036A8C
:101DC0004268C46923F4007324F073050C682C4343
:101DD0008D6843EA05230C4DA8420ED1CD6823F44B
:101DE000006343EA05234D6922F4405242EA05129A
:101DF0008D6923F4806342EA05124260C461496838
:101E0000C163036230BD0000002C014030B5026A9E
:101E100022F480520262046A4268C3690D6823F4A6
:101E2000E64343EA05238D6824F4005444EA05346C
:101E3000064DA84204D14D6922F4804242EA85123F
:101E40004260C36149680164046230BD002C0140F6
:101E500010B5036A046A24F001040462846924F062
:101E6000F00444EA021423F00A020A438461026285
:101E700010BD10B5036A23F0100303628369046A7E
:101E800023F4704343EA023224F0A00343EA011131
:101E90008261016210BD000070B5044600680169EE
:101EA000E26821F44051114301612169A0680843AF
:101EB000616908432168CA6841F20C639A4302438E
:101EC000CA6020684169A26921F4407111434161EF
:101ED0001E492068884202D1FEF79CFD01E0FEF712
:101EE00089FD00EBC00101EB0012606864218000F5
:101EF000B2FBF0F3B3FBF1F36FF018067343B2FBE0
:101F0000F0F5B2FBF0F605EB8305322303EB051584
:101F1000B5FBF1F5B6FBF1F605F0F00505EB06159E
:101F2000B2FBF0F6B2FBF0F0B0FBF1F06FF018028C
:101F3000504306EB800003EB0010B0FBF1F021688A
:101F400000F00F002844886070BD00000038014098
:101F5000FEE7024600217A2000F054B802464021F4
:101F60007A2000F04FB80907090E002804DB00F1C1
:101F7000E02080F80014704700F00F0000F1E0202E
:101F800080F8141D704702E008C8121F08C1002A1B
:101F9000FAD170477047002001E001C1121F002AEA
:101FA000FBD17047FEF78AFBFFF724FEFFF7B2FB79
:101FB000FFF794FCFFF788FBFFF7FEFBFFF7C2FC7F
:101FC000FFF75AFCFFF7FCFCFFF7DAFC012305A240
:101FD00006211020FFF764FDFFF7D0FD0848FEF74B
:101FE000F7F8F9E753595320696E697420737563E4
:101FF00063656564656420202020202000000000C7
:102000001800002070B515460E460446FFF7F6FA94
:102010002046FFF7BDFAFFF72FFB3046FFF7B8FA6F
:10202000FFF72AFB2846FFF7B3FAFFF725FBBDE8C9
:102030007040FFF707BB0000000000000000010235
:102040000304060708090000000001020304000061
:1020500022322AA6A2622111098101000000004259
:1020600022130B42827E02020A1223460000203015
:10207000AC63300088C8A8998E88A8C888002267F9
:102080002212128040300F00003F404071000808CB
:1020900089EA1888000404FC040404FC000002011E
:1020A00000FF0186402018074080403F00001010CC
:1020B000F01F10F00040E05847405060C000402240
:1020C000150816210000FE42424242FE0000008038
:1020D00060F807000000FF40201008040000010025
:1020E00000FF000402013F404040404078000000F3
:1020F000F010101010FF10101010F0000000000081
:102100000F04040404FF040404040F000000106022
:10211000028C0000FE9292929292FE000000040453
:102120007E01407E42427E427E42427E40001060FE
:10213000028C00FE929292929292FE0000000404A1
:102140007E014448507F40407F504844400000009A
:10215000FC242424FC252624FC24242404004030D0
:102160008F80844C55252525554C808080000000AB
:10217000800000E002041800000040800000100C05
:102180000300003F40404040407800010E00001432
:10219000A4442434AD6624940444A4140000080923
:1021A0000808090909FD09090B08080908000000C9
:1021B000F80808F80C0B08F80808F8000000404080
:1021C0007F40407F4040407F40407F4040000824A7
:1021D000236AAA2AAA6A2A2A2AEA020200001011FD
:1021E000151515FF15151511100F3040F800048452
:1021F000E45C44C42010E82724E4342CE00002010D
:102200007F10103F80601F09093F49897F00100C33
:102210004444444445C64444444444140C0080406F
:10222000201E2040407F4444444444404000020279
:10223000FE929292FE0206FC040404FC00000818C0
:102240000F080804FF04844027182740800010600E
:10225000020CC000E22C203F2028E600000004040D
:102260007C030000FF09090949897F000000060975
:1022700009E6F80C040202020202041E000000003B
:1022800000071F3020404040404020100000807078
:1022900000FF1008FE424242FA424242FE008060C5
:1022A00018070810FF50484641424C40FF00100CF0
:1022B000055555D5057F0555555505140C001010CD
:1022C000108AA96B352525ABE90810101000000213
:1022D00002F2121212F2020202FE020202000000D8
:1022E000000F0404040F0040807F00000000807095
:1022F00000FF10289827C43C907F90121400806043
:1023000018070898640328C621C01126C8000000D9
:10231000000000000000002F000000000700070080
:1023200000147F147F1400242A7F2A12006264089C
:102330001323003649552250000005030000000019
:102340001C224100000041221C000014083E081419
:102350000008083E0808000000A060000008080807
:102360000808000060600000002010080402003E21
:102370005149453E0000427F4000004261514946BC
:10238000002141454B31001814127F1000274545AC
:102390004539003C4A4949300001710905030036BE
:1023A0004949493600064949291E000036360000D1
:1023B00000005636000000081422410000141414D6
:1023C00014140000412214080002015109060032D1
:1023D0004959513E007C1211127C007F494949360F
:1023E000003E41414122007F4141221C007F49497A
:1023F0004941007F09090901003E4149497A007FAE
:102400000808087F0000417F4100002040413F0153
:10241000007F08142241007F40404040007F020CB2
:10242000027F007F0408107F003E4141413E007F53
:1024300009090906003E4151215E007F091929461C
:102440000046494949310001017F0101003F4040F8
:10245000403F001F2040201F003F4038403F0063A6
:1024600014081463000708700807006151494543C8
:1024700000007F41410000552A552A550000414186
:102480007F00000402010204004040404040000080
:1024900001020400002054545478007F484444381A
:1024A00000384444442000384444487F00385454A1
:1024B000541800087E0901020018A4A4A47C007F1F
:1024C000080404780000447D4000004080847D00C2
:1024D000007F102844000000417F4000007C041869
:1024E0000478007C0804047800384444443800FC34
:1024F000242424180018242418FC007C0804040850
:1025000000485454542000043F444020003C4040C4
:10251000207C001C2040201C003C4030403C0044FB
:1025200028102844001CA0A0A07C004464544C4403
:102530001414141414140000000000000000000023
:10254000000000000000000000F800000000000093
:1025500000333000000000100C06100C06000000D4
:1025600000000000000040C07840C0784000043FF8
:1025700004043F040400007088FC083000000018C8
:1025800020FF211E0000F008F000E01800000021EC
:102590001C031E211E0000F00888700000001E2190
:1025A00023241927211010160E000000000000003F
:1025B000000000000000000000E01804020000001D
:1025C00000071820400000020418E000000000404E
:1025D000201807000000404080F0804040000202C8
:1025E000010F01020200000000F0000000000101E4
:1025F000011F01010100000000000000000080B088
:102600007000000000000000000000000000000159
:102610000101010101010000000000000000003084
:10262000300000000000000000008060180400601E
:1026300018060100000000E010080810E000000F7C
:10264000102020100F00001010F8000000000020E3
:10265000203F20200000007008080888700000302B
:1026600028242221300000300888884830000018D3
:10267000202020110E000000C02010F800000007EC
:102680000424243F240000F8088888080800001962
:10269000212020110E0000E0108888180000000F93
:1026A000112020110E0000380808C838080000006A
:1026B000003F000000000070880808887000001CBF
:1026C000222121221C0000E010080810E000000078
:1026D000312222110F00000000C0C00000000000E5
:1026E000003030000000000000800000000000000A
:1026F0008060000000000000804020100800000101
:1027000002040810200040404040404040000404C3
:10271000040404040400000810204080000000208D
:10272000100804020100007048080808F0000000CA
:10273000003036010000C030C828E810E00007185B
:10274000272423140B000000C038E0000000203CC8
:1027500023020227382008F8888888700000203F6C
:10276000202020110E00C030080808083800071883
:1027700020202010080008F808080810E000203F7A
:10278000202020100F0008F88888E8081000203F5B
:1027900020202320180008F88888E8081000203F2F
:1027A000200003000000C0300808083800000718A7
:1027B0002020221E020008F808000008F808203F28
:1027C000210101213F20000808F80808000000202E
:1027D000203F2020000000000808F8080800C08002
:1027E00080807F00000008F888C028180800203F7B
:1027F00020012638200008F8080000000000203FD3
:1028000020202020300008F8F800F8F80800203FC9
:10281000003F003F200008F830C00008F808203FC3
:10282000200007183F00E01008080810E0000F1013
:10283000202020100F0008F808080808F000203FAA
:10284000210101010000E01008080810E0000F1845
:10285000242438504F0008F8888888887000203F6A
:102860002000030C30200070880808083800003869
:10287000202121221C00180808F808081800000070
:10288000203F2000000008F808000008F808001F9A
:10289000202020201F000878880000C83808000089
:1028A00007380E010000F80800F80008F800033CA3
:1028B0000700073C0300081868808068180820306B
:1028C0002C03032C30200838C800C838080000004A
:1028D000203F2000000010080808C83808002038F1
:1028E000262120201800000000FE02020200000045
:1028F000007F40404000000C30C00000000000009D
:1029000000010638C00000020202FE000000004084
:1029100040407F00000000000402020204000000AA
:1029200000000000000000000000000000008080A7
:10293000808080808080000202040000000000008F
:10294000000000000000000080808080000000196E
:10295000242222223F2008F8008080000000003F4F
:10296000112020110E000000008080800000000E69
:10297000112020201100000000808088F800000E47
:10298000112020103F200000808080800000001F68
:10299000222222221300008080F0888888180020DC
:1029A000203F202000000000808080808000006B9D
:1029B00094949493600008F8008080800000203F89
:1029C000210000203F200080989800000000002097
:1029D000203F20200000000000809898000000C0E8
:1029E0008080807F000008F8000080808000203F09
:1029F00024022D302000000808F80000000000200C
:102A0000203F202000008080808080808000203F48
:102A100020003F20003F8080008080800000203F19
:102A2000210000203F200000808080800000001FE7
:102A3000202020201F00808000808000000080FF78
:102A4000A12020110E000000008080808000000E78
:102A5000112020A0FF8080808000808080002020C6
:102A60003F21200001000000808080808000003332
:102A7000242424241900008080E0808000000000CD
:102A8000001F202000008080000000808000001FC8
:102A9000202020103F208080800000808080000166
:102AA0000E300806010080800080008080800F309A
:102AB0000C030C300F00008080008080800000201C
:102AC000312E0E3120008080800000808080808147
:102AD0008E701806010000808080808080000021B8
:102AE000302C2221300000000000807C0202000017
:102AF0000000003F404000000000FF000000000018
:102B00000000FF0000000002027C80000000004086
:102B1000403F000000000006010102020404000022
:102B20000000000000000000482B0008000000200A
:102B300020000000861F0008682B000820000020ED
:102B400050050000961F0008000000000100000072
:102B500010000000000000000024F400000000004D
:082B600000000000000000006D
:04000005080000ED02
:00000001FF
