:020000040800F2
:10000000180A00200501000839200008E11A00083C
:10001000BD1F00089D0200087D27000800000000A9
:10002000000000000000000000000000672300083E
:100030009F0200080000000065230008DD2300087F
:100040001F0100081F0100081F0100081F01000810
:100050001F0100081F0100081F0100081F01000800
:100060001F0100081F0100081F0100081F010008F0
:100070001F0100081F0100081F0100081F010008E0
:100080001F0100081F0100081F0100081F010008D0
:100090001F0100081F0100081F0100081F010008C0
:1000A0001F0100081F0100081F0100081F010008B0
:1000B0006524000871240008000000001F010008EA
:1000C0001F01000800000000000000001F010008E0
:1000D000000000001F010008712700080000000058
:1000E0001F0100081F0100081F010008DFF810D0E1
:1000F00000F02CF800480047952C0008AFF3008072
:10010000180A00200648804706480047FEE7FEE739
:10011000FEE7FEE7FEE7FEE7FEE7FEE7FEE7FEE7B7
:1001200061240008ED000008D2B201E000F8012BC4
:10013000491EFBD270470022F6E710B513460A4667
:1001400004461946FFF7F0FF204610BD064C074D48
:1001500006E0E06840F0010394E807009847103497
:10016000AC42F6D3FFF7C6FF94380008B438000855
:1001700070B58C1810F8015B15F0070301D110F869
:10018000013B2A1106D110F8012B03E010F8016B96
:1001900001F8016B5B1EF9D12B0705D40023521E19
:1001A0000DD401F8013BFAE710F8013BCB1A921C81
:1001B00003E013F8015B01F8015B521EF9D5A1427F
:1001C000D8D3002070BD000070B504460068816877
:1001D000C943C90717D1816821F00101816000F08E
:1001E000AFFB05460AE000BF00F0AAFB401B022857
:1001F00004D920688068C043C00706D020688068A2
:10020000C043C007F0D0002070BDA06A40F01000CD
:10021000A062E06A40F00100E062012070BD0000D1
:10022000F8B500260446009600688168C943C907EE
:100230002DD0816841F0010181601648164900689F
:10024000B0FBF1F000E0401E00900028FBD100F070
:1002500077FB054616E000BF00F072FB401B02284A
:1002600010D920688068C043C0070BD0A06A40F056
:100270001000A062E06A40F00100E06284F82460AF
:100280000120F8BD20688068C043C007E4D1002089
:10029000F8BD00001004002040420F00FEE7704748
:1002A00072B6FEE770B504460078002510B12570DF
:1002B00001F086FE20790C4E20B1257110213046C8
:1002C00000F031FB607920B165712021304600F0EB
:1002D0002AFBA078002805D0A570BDE8704003482F
:1002E00000F061BB70BD0000000C0140F004002074
:1002F000F8B500250446009590F82400012808D0A0
:10030000012084F824002046FFF75EFF060002D09B
:1003100053E00220F8BDA06A20F4885040F00200AB
:10032000A062022000F0DEFB26490968B1FBF0F074
:10033000400000E0401E00900028FBD12046FFF75F
:100340006FFF2068816841F00801816000F0F8FAD1
:10035000074608E000F0F4FAC01B0A2803D9206819
:100360008068000715D4206880680007F2D42068F0
:10037000816841F00401816000F0E2FA074612E072
:1003800000F0DEFAC01B0A280DD9206880684007FB
:1003900009D5A06A20F0020040F01000A06284F8A5
:1003A00024500120F8BD206880684007E8D4A06A86
:1003B00020F0020040F00100A06284F82450304692
:1003C000F8BD000010040020F8B50024009490F857
:1003D00024202546012A12D0012280F824204A68D0
:1003E0001F23072A0DD20668776B521E02EB82028A
:1003F00093409F430B6893401F43776319E00220AB
:10040000F8BD06680D2A0AD2376BD21F02EB8202B2
:1004100093409F430B6893401F43376309E0F76A9B
:100420000D3A02EB820293409F430B6893401F43B7
:10043000F7620A68072306680A2A0AD3F7680A3AA5
:1004400002EB420293409F438B6893401F43F76047
:1004500008E0376902EB420293409F438B68934068
:100460001F4337610A68102A01D0112A20D1124B8C
:1004700002689A4217D193681B0219D4936843F417
:10048000000393600968102912D10C490C4A0968CD
:10049000B1FBF2F101EB8101490000E0491E00913E
:1004A0000029FBD104E0816A41F02001816201242E
:1004B00080F824502046F8BD00240140100400209C
:1004C00040420F002DE9F0414FF0000704003D4687
:1004D0007ED0A06A002628B9E66284F8246020460F
:1004E00000F07EF82046FFF76FFEA16AC90600D42F
:1004F00020B1A06A40F01000A06269E0A16A21F476
:10050000885141F00201A1626268E169237B0A43DC
:1005100047EA43010A43A1684FF48077B94209D002
:10052000012907D05FF0000194F814C0BCF1010F5D
:1005300002D00AE03946F7E7F3B1A36A43F020039B
:10054000A362E36A43F00103E3622368D3F804C0C3
:100550002CF4694C4CEA010CC3F804C021688B6888
:10056000DFF870C003EA0C0313438B60A168B94243
:100570000BD0012909D00CE0DFF85CC0A3690CEBBB
:1005800043330B4343F40061DFE7218A0D05A5F5F2
:1005900080152168CB6A23F470032B43CB6221685A
:1005A00089680E4B1940914208D1E662A16A21F098
:1005B000020141F00101A162BDE8F081A06A20F0D2
:1005C000020040F01000A062E06A40F00100E0622A
:1005D0000120F1E7FDF7E1FF00E0FFFFFE0E1FFF46
:1005E00010B586B00021009101910291039100683D
:1005F0001549884225D11548816941F4007181610E
:10060000816901F400710491816941F00401816103
:10061000816901F004010491816941F0080181615F
:100620008069032400F00800049000946946019456
:10063000074800F093F8009469460648019400F0DA
:100640008DF806B010BD00000024014000100240EB
:1006500000080140000C014010B590F82110002264
:10066000022905D00421816380F82020012010BDDB
:1006700001680B6823F00E030B6001680B6823F020
:1006800001030B6090F84030C46B012101FA03F3C1
:10069000636080F8211080F82020104610BD000013
:1006A00010B590F821100024022903D004218163A1
:1006B00001243DE001680A6822F00E020A60016828
:1006C0000A6822F001020A601A4A0168914201D1C7
:1006D000012121E0174A1432914201D110211BE07F
:1006E000144A2832914201D1891515E0114A3C3251
:1006F000914201D189140FE00E4A5032914202D149
:100700004FF4803108E00B4A6432914202D14FF439
:10071000801101E04FF08071064A083A51600121D2
:1007200080F82110002180F82010416B01B188472A
:10073000204610BD0800024070B5044600F000F9E4
:100740000546601C02D004480078044400F0F8F824
:10075000401BA042FAD370BD040400202DE9F84FDD
:10076000DFF89C91002409F1040A0AF1040B2346E6
:100770000F270BF1040EBBE00125A5402A40AA4239
:1007800076D1DFF880C14E68A6EB0C0866452BD009
:100790000DDC032E34D005DC36B3012E19D0022E29
:1007A0002FD11BE0112E16D0122E2AD119E0B8F548
:1007B000881F19D006DCB8F5803F15D0B8F5801F2A
:1007C0001FD111E0B8F5001F0ED0B8F5041F18D1E5
:1007D0000AE0CB6815E0CB681B1D12E0CB6808333C
:1007E0000FE0CB680C330CE08B682BB1012B4FF082
:1007F000080303D0456104E0042302E0056100E042
:100800000023FF2A01D8064601E000F104064FEA62
:10081000840501D9A5F12005D6F8008007FA05FC6A
:1008200028EA0C0803FA05F548EA0508C6F800802E
:100830004D68ED005BD5344DAE6946F00106AE6102
:10084000AD6924F0030605F0010500952F4D06EB78
:10085000050CDCF80850A607360F07FA06F825EA5B
:100860000805DFF8AC80404503D14FF0000810E0E8
:100870003DE0DFF8A080404502D14FF0010808E0DC
:10088000DFF89480404502D14FF0020801E04FF0BC
:10089000030808FA06F848EA0508CCF808804D680D
:1008A000D9F80060ED034D4601D5164300E09643AC
:1008B0002E604D68DAF80060AD03554601D5164349
:1008C00000E096432E604D68DBF80060ED025D4667
:1008D00001D5164300E096432E604D68DEF80060B7
:1008E000AD02754601D5164300E096432E60641CA8
:1008F0000A6832FA04F57FF43FAFBDE8F88F0000D4
:1009000000040140000011100010024000000140EE
:1009100000080140000C01400010014080680840C0
:1009200000D001207047C26821EA02030A4043EA6E
:100930000241016170470AB1016170470904FBE798
:1009400001488068704700000404002070B504006E
:1009500011D021684CF6CC400860216845F2555012
:100960000860D4E9000141602168A0688860FFF751
:10097000E7FF05460DE0012070BD00BFFFF7E0FF77
:10098000401B272805D92068C068800701D00320B4
:1009900070BD2068C0688007F0D121684AF6AA209F
:1009A0000860002070BD00684AF6AA21016000209E
:1009B00070470000024881680278114481607047E6
:1009C00004040020074810B5016841F010010160DF
:1009D000032000F075F80F2000F006F800F024F86E
:1009E000002010BD0020024070B50D4D04464FF4AC
:1009F0007A712878B1FBF0F00A490968B1FBF0F090
:100A000000F0C6FB48B9102C07D200222146501E28
:100A100000F036F800206C6070BD012070BD000051
:100A200004040020100400200C4808B5816941F03E
:100A300001018161816901F001010091C16941F009
:100A40008051C161C06900F0805000900448416845
:100A500021F0E06141F00071416008BD00100240EA
:100A600000000140002809DB00F01F020121914035
:100A70004009800000F1E020C0F80011704700003C
:100A8000F0B40E4B1B680C46C3F30223C3F10705F9
:100A9000042D00D90425191D072901D2002300E0E7
:100AA000DB1E012606FA05F1491E214099409E40B1
:100AB000761E16403143F0BC01F074BE0CED00E030
:100AC000064900F0070208684FF6FF03184040EAA5
:100AD0000220034A10430860704700000CED00E05C
:100AE0000000FA0510B529A401461DCC86B08DE89A
:100AF0001D002AA02A4C006804900020012923D060
:100B000002293AD010291DD161682268D20119D575
:100B1000C1F38342C9031DF8020009D5616804AA24
:100B2000C1F34041515C1F4AB2FBF1F1484301E07F
:100B30001D4948436168490204D440005FF0030145
:100B4000B0FBF1F006B010BD226AC2F30121012909
:100B500003D1920701D5C803F4E7022905D1626ADF
:100B6000920702D549F64040ECE70329EAD1216813
:100B70008903E7D54FF22440E4E700F033F96168D8
:100B8000C1F38131491C4900DAE700000203040582
:100B9000060708090A0B0C0D0E0F101001020000C9
:100BA0000010024000127A0000093D002DE9F843D0
:100BB00005460078354CC00754D0E0690026C000D7
:100BC00008D4E06940F08050E061E069012600F05F
:100BD000805000902E480168C90512D401688046F3
:100BE00041F480710160FFF7ABFE074605E000BFEE
:100BF000FFF7A6FEC01B642823D8D8F80000C00564
:100C0000F6D5206A10F4407021D0A98801F4407113
:100C100081421CD0206A1F49012220F440700A60E2
:100C200000220A602062C00711D0FFF789FE074644
:100C300041F2883808E000BFFFF782FEC11B414542
:100C400002D90320BDE8F883206A8007F4D5206A22
:100C5000696820F44070084320621EB1E06920F00A
:100C60008050E0612878800705D56068A96820F485
:100C70004040084360602878C00605D56068E96890
:100C800020F48000084360600020DBE70010024091
:100C900000700040400442422DE9F0470F46050035
:100CA00061D0434E306800F00700B84209D2306886
:100CB00020F0070038433060306800F00700B84289
:100CC00051D128683B4C810712D5400703D5606895
:100CD00040F4E06060602878000703D5606840F465
:100CE000605060606068A96820F0F00008436060B0
:100CF0002878C00728D06868012810D02168022809
:100D000010D0890700292EDA616821F00301014320
:100D10006160FFF715FE804641F288390DE02168D9
:100D20008903EFE78901EDE7FFF70AFEA0EB080171
:100D3000494502D90320BDE8F0876068696800F082
:100D40000C00B0EB810FEFD1306800F00700B84223
:100D50000BD9306820F0070038433060306800F06D
:100D60000700B84201D00120E5E72878400705D503
:100D70006068E96820F4E060084360602878000754
:100D800006D56068296920F4605040EAC1006060BF
:100D900000F038F86168084AC1F30311515CC8409B
:100DA0000649086006480068FFF71EFE0020C2E7FB
:100DB0000020024000100240A22D00081004002074
:100DC000080400200448054900684968044AC1F342
:100DD0000221515CC84070471004002000100240FE
:100DE000B22D00080448054900684968044AC1F367
:100DF000C221515CC840704710040020001002401E
:100E0000B22D000812A185B00FC98DE80F0014A003
:100E1000144A006804905168134801F00C03042B35
:100E200010D0082B0ED1C1F38343C9031DF8030072
:100E30000AD5516804AAC1F34041515C0A4A5043A3
:100E4000B0FBF1F005B0704708494843FAE70000ED
:100E500002030405060708090A0B0C0D0E0F1010FB
:100E6000010200000010024000127A0000093D005B
:100E70002DE9F84F040070D02078C04DC00749D04C
:100E80006868C0F38100012807D06868C0F381005A
:100E9000022809D16868C00306D52868800339D5BF
:100EA00060680028E7D035E06068B0F5803F0BD07F
:100EB00010B1B0F5A02F11D0286820F48030286040
:100EC000286820F4802002E0286840F48030286000
:100ED000606890B1FFF734FD06460AE0286840F4E8
:100EE00080202860F0E700BFFFF72AFD801B642800
:100EF00073D828688003F7D50CE0FFF721FD06467C
:100F000005E000BFFFF71CFD801B6428F0D82868AF
:100F10008003F7D420789A4E80074FF001094FF0F4
:100F2000000839D5686810F00C0F07D06868C0F366
:100F30008100022809D16868C00306D428688007A8
:100F400014D52069012808D110E02069B0B1C6F895
:100F50000090FFF7F5FC074605E00AE1FFF7F0FC1B
:100F6000C01B0228C4D828688007F7D528686169A3
:100F700020F0F80040EAC10028600DE0C6F80080CB
:100F8000FFF7DEFC074604E0FFF7DAFCC01B02288F
:100F900023D828688007F7D4207800072CD5794813
:100FA000A169D9B1C0F80090FFF7CAFC074604E078
:100FB000FFF7C6FCC01B02280FD8686A8007F7D568
:100FC00071484FF4FA510068B0FBF1F0009000BF97
:100FD0000098411E0091FAD20EE080E0C0F8008037
:100FE000FFF7AEFC074604E0FFF7AAFCC01B02288F
:100FF00075D8686A8007F7D42078400760D5E8691B
:101000000027C00008D4E86940F08050E861E86932
:10101000012700F0805000905C480168C90513D496
:101020000168834641F480710160FFF789FC8246C4
:1010300006E000BFFFF784FCA0EB0A0064284ED84E
:10104000DBF80000C005F5D5E06801280AD008B13A
:10105000052813D0286A20F001002862286A20F0B1
:10106000040002E0286A40F001002862E06841F2D2
:10107000883B98B1FFF764FC82460BE0286A40F099
:1010800004002862EEE700BFFFF75AFCA0EB0A015C
:1010900059455AD8286A8007F6D50CE0FFF750FC6E
:1010A000824605E0FFF74CFCA0EB0A0159454CD8FD
:1010B000286A8007F6D41FB1E86920F08050E86103
:1010C000E06988B36968C1F38101022944D002282C
:1010D000C6F8608004D0FFF733FC044638E034E003
:1010E000FFF72EFC074604E0FFF72AFCC01B02288E
:1010F0002BD828688001F7D4206AB0F5803F05D14D
:101100006868A16820F4003008436860D4E90801E9
:101110000843696821F4741108436860C6F8609058
:10112000FFF70EFC044606E025E000BFFFF708FCD1
:10113000001B022809D828688001F7D51BE000BFF2
:10114000FFF7FEFB001B022802D90320BDE8F88F41
:1011500028688001F4D40EE00128F7D06868226A7C
:1011600000F48031914204D1616A00F47010884229
:1011700001D00120EAE70020E8E70000001002406B
:1011800000004242800442421004002000700040EF
:1011900010B5401EB0F1807F01D3012010BD4FF08B
:1011A000E02460610F21601701F0FCFA0020A061CB
:1011B00007202061002010BD7047704770B590F87F
:1011C0003C20012A23D0012480F83C40022280F8F0
:1011D0003D2003685A689D6822F070060A68324311
:1011E0005A600C4B02689A4205D0B2F1804F02D08F
:1011F000094B9A4204D1496825F080031943916054
:1012000080F83D40002180F83C10084670BD022067
:1012100070BD0000002C01400004004010B5040027
:1012200003D094F83D0010B107E0012010BD00206C
:1012300084F83C00204600F01FF8022084F83D00AE
:10124000211D206801F01AF9012084F8460084F875
:101250003E0084F83F0084F8400084F8410084F8A0
:10126000420084F8430084F8440084F8450084F880
:101270003D00002010BD000008B5114A016811486A
:10128000914208D1816941F400618161806900F473
:101290000060009008BDB1F1804FFBD1C16941F001
:1012A0000101C161C069002200F0010000901146F7
:1012B0001C20FFF7E5FBBDE808401C20FFF7D2BB70
:1012C000002C01400010024090F83D10012901D08F
:1012D00001207047022180F83D100168CA6842F081
:1012E0000102CA6000680A49884205D0B0F1804F07
:1012F00002D00849884204D1816801F0070106291B
:1013000003D0016841F00101016000207047000036
:10131000002C01400004004070B5044690F83C00E9
:10132000012817D0012584F83C50022084F83D00A4
:101330002068826822F0770222F47F428260086887
:10134000502830D00DDC20284DD005DC98B3102873
:101350003BD148E0022070BD302844D0402834D131
:1013600039E0602828D0702806D0B0F5805F2CD0F6
:10137000B0F5005F29D10AE0CB68D1E901212068EE
:1013800001F0B7F82068816841F0770109E0CB6887
:10139000D1E90121206801F0ACF82068816841F4AE
:1013A0008041816011E0CA684968206801F0B3F8A3
:1013B0005021206807E016E0CA684968206801F0FB
:1013C000BBF86021206801F09EF884F83D500020B1
:1013D00084F83C0070BDCA684968206801F09BF839
:1013E00040212068EFE7226801461046EBE72DE92F
:1013F000F0410D46040003D094F83D0018B108E018
:101400000120BDE8F081002084F83C00204600F077
:1014100041F8022084F83D002068816844F2070208
:1014200091438160211D206801F028F822689068AE
:101430009169166A2B68AF69034340F20330814318
:1014400041EA0721A868EF6908434FF6FC41884349
:10145000E96840EA0720014328692F6A000140EA51
:101460000730084369686D6926F0220646EA0515CB
:10147000294393602268906154F8460B0162012071
:1014800004F81F09E0752076E0762077A07500202B
:10149000B7E7000000B585B00021009101910291ED
:1014A00003910068114988421ED11148C16941F079
:1014B0000201C161C16901F002010491816941F039
:1014C000040181618069694600F004000490C02035
:1014D00000900848FFF742F9002205211D20FFF780
:1014E000CFFA1D20FFF7BEFA05B000BD0004004092
:1014F000001002400008014070B590F83E600446BC
:1015000090F83F5090F8423090F84320022021B1EB
:1015100004290ED0012E1BD114E0012E18D1012B6D
:1015200016D184F83E0084F8420001220021206890
:1015300020E0012D0CD1012A0AD184F83F0084F863
:10154000430014E0012D03D1012B01D1012A01D068
:10155000012070BD84F83E0084F83F0084F842000A
:1015600084F8430001220021206800F0B5FF012229
:101570000421206800F0B0FF2068016841F00101FB
:101580000160002070BD704770B5044600680169B5
:101590004FF00005C943890715D4C168C9438907BD
:1015A00011D4E91E0161012020772068806980073D
:1015B000204602D0FFF7E7FF04E000F098F820464D
:1015C00000F096F8257720680169C943490717D4C8
:1015D000C168C943490713D46FF0040101610220B7
:1015E00020772068806910F4407F204602D0FFF702
:1015F000CAFF04E000F07BF8204600F079F8257778
:1016000020680169C943090716D4C168C94309079D
:1016100012D46FF008010161042020772068C069AE
:101620008007204602D0FFF7AEFF04E000F05FF82D
:10163000204600F05DF8257720680169C943C90696
:1016400017D4C168C943C90613D46FF010010161F2
:10165000082020772068C06910F4407F204602D01F
:10166000FFF791FF04E000F042F8204600F040F858
:10167000257720680169C943C90708D1C168C943F2
:10168000C90704D1891E0161204600F033F82068A3
:101690000169C943090609D4C168C943090605D4CB
:1016A0006FF0800101612046FFF786FD2068016927
:1016B000C943490609D4C168C943490605D46FF036
:1016C00040010161204600F033F820680169C943F8
:1016D00089060BD4C168C943890607D46FF020017D
:1016E00001612046BDE87040FFF767BD70BD7047DF
:1016F0007047000001680A480068814202D1094A27
:101700000120107008480068814208D10068C04379
:10171000C106064801D5042100E00321017070478D
:1017200044050020000000208C0500201404002047
:101730007047704770470000F8B5026804461068AB
:10174000D168536910F00F0F4FF0000553D003F02C
:10175000010601F4907737435FD0C20705D0CA0570
:1017600003D5226C42F001022264420705D5DA0754
:1017700003D0226C42F002022264820705D5DA0708
:1017800003D0226C42F004022264020707D501F064
:101790002002324303D0226C42F008022264226C01
:1017A000002A34D0800604D5880602D5204600F0F1
:1017B000F5FE20684069216CC0F38010090700D451
:1017C00030B3204600F0D2FE2068416949061BD59F
:1017D000416921F040014161A06BA8B158494163C2
:1017E000A06BFEF75DFF002811D0A06B416B01B02C
:1017F000BDE8F040084783060FD58B060DD520467F
:10180000BDE8F84000F0CABE2046FFF793FFF8BDE0
:101810002046FFF78FFF2564F8BD266B2023012E9D
:1018200052D1C60650D5CE064ED5106850680090ED
:10183000506940062AD5A16B086840680004000C76
:10184000EAD0A68D8642E7D9E0858869202818D09D
:10185000D06820F48070D0602068416921F00101D7
:1018600041612068416921F04001416184F83E30C6
:1018700025632068C16821F01001C160A06BFEF7EC
:10188000EBFEA08DE18D401A81B219E0A08DE18DB3
:10189000401A81B2E08D0028BED00029BCD0D068AB
:1018A00020F49070D0602068426922F00102426109
:1018B00084F83E3025632068C26822F01002C260BE
:1018C0002046FFF736FFF8BD05062BD50D0629D5B6
:1018D00094F83D002128F6D1A068B0F5805F01D1D1
:1018E0002069B0B1206A411C2162216800784860FB
:1018F000E08C401E0004000CE084E4D12068C16844
:1019000021F08001C1602068C16841F04001C160E0
:10191000F8BD206A0088C0F308005060206A801C6F
:101920002062E5E74006F3D54806F1D5D1682046A8
:1019300021F04001D16084F83D3000F0D0F8F8BDCE
:101940005D25000870B5040004D094F83D00002522
:1019500010B106E0012070BD84F83C50204600F034
:1019600023F8242084F83D002068C16821F4005148
:10197000C160204600F06EFE2068016921F49041AC
:1019800001612068416921F02A0141612068C16834
:1019900041F40051C1602564202084F83D0084F8A2
:1019A0003E00002070BD000030B585B000240094DA
:1019B0000194029403940068184988422BD1184876
:1019C000C16941F40031C161C16901F40031049180
:1019D000816941F0040181618069124D00F00400C9
:1019E0000490042000900220019003200390694697
:1019F0002846FEF7B3FE0820CDE9000469462846D4
:101A00000294FEF7ABFE002204212620FFF738F8EF
:101A10002620FFF727F805B030BD00000044004045
:101A20000010024000080140704700002DE9F84313
:101A3000044690F83D001F4616460D4620284CD11E
:101A4000C5B1BEB194F83C00012846D0012084F80D
:101A50003C004FF00008C4F84080212084F83D008D
:101A6000FEF76EFFA6848146E684A068B0F5805F2D
:101A700003D004E00120BDE8F883206928B12E4698
:101A80005FF0000584F83C800EE00026FAE7802134
:101A9000204600F03BFEA0B9AEB116F8010B21685C
:101AA0004860E08C401EE084E08C4B464FF0000222
:101AB00000970028EBD14FF04001204600F026FEB1
:101AC00030B10320D7E735F8020BC0F30800E6E792
:101AD000202084F83D000020CDE70220CBE77047AE
:101AE000FEE70020401CC0B20A28FBD3704700006C
:101AF00030B5104885B0816941F008018161806985
:101B0000112400F0080004904FF40040CDE90004D7
:101B10000125694603950848FEF720FE0820CDE917
:101B20000004694603950548FEF718FE00F062F8C8
:101B300005B030BD0010024000080140000C01401B
:101B40002DE9F041174FDFF86080054600244FF47F
:101B50000046280601D5012200E000220821404667
:101B6000FEF7E9FEFFF7BDFF012231463846FEF7DA
:101B7000E2FEFFF7B6FF002231463846FEF7DBFEF5
:101B8000072C04D1012208214046FEF7D4FE680646
:101B9000050EFFF7A6FF641CE4B2082CD9D3BDE8FC
:101BA000F081000000080140000C014070B50F4CAE
:101BB000012208212046FEF7BEFE01220C4ED5036D
:101BC00029463046FEF7B7FEFFF78BFF00220821BB
:101BD0002046FEF7B0FEFFF784FF0022294630467C
:101BE000FEF7A9FEBDE87040FFF77BBF000C014087
:101BF0000008014010B50A4C002208212046FEF7DB
:101C00009AFE0122D1030748FEF795FEFFF769FF10
:101C100020460122BDE810400821FEF78CBE0000DE
:101C2000000C01400008014070B5114C0122082150
:101C30002046FEF780FEFFF754FF01220D4ED5032C
:101C400029463046FEF777FEFFF74BFF0821204676
:101C5000FEF764FE08B1012400E0002400222946BA
:101C60003046FEF768FEFFF73CFF204670BD0000DF
:101C7000000C01400008014070B5174800240078AE
:101C8000002828D1154D10212846FEF747FE20B127
:101C900020212846FEF742FEE0B90520FEF74CFD64
:101CA00010212846FEF73AFE28B120212846FEF7EB
:101CB00035FE40B10EE0012410212846FEF72EFE2D
:101CC0000028F9D006E0022420212846FEF726FE4F
:101CD0000028F9D0204670BD1404002000080140FF
:101CE000FEB500252148009501951F490295016028
:101CF00089158160057301240475042606614FF47B
:101D000060214560C0E90641FEF7DCFB08B1FEF743
:101D1000C7FACDE90054694614480295FEF754FB12
:101D200008B1FEF7BDFA0220CDE9004069460F4830
:101D3000FEF74AFB08B1FEF7B3FA08200090032033
:101D4000019069460948FEF73FFB08B1FEF7A8FA83
:101D50000920CDE9000669460448FEF735FB002856
:101D600001D0FEF79DFAFEBD00240140C004002012
:101D70002DE9F04385B00024254800940194029495
:101D80000394816941F020018161816901F02001A2
:101D90000491816941F004018161816901F00401CC
:101DA0000491816941F0080181618069DFF86480F4
:101DB00000F008004EF278050490012229464046C2
:101DC000FEF7B9FDDFF850904FF40747012239467E
:101DD0004846FEF7B0FD3020CDE90004694648468C
:101DE0000294FEF7BBFC0095022601250396CDE97F
:101DF000015469464046FEF7B1FC00970396CDE9D1
:101E0000015469464846FEF7A9FC05B0BDE8F083D9
:101E100000100240000C014000080140094810B5C4
:101E2000074901600421416040F6FF718160FEF7BF
:101E30008DFD002803D0BDE81040FEF731BA10BD7B
:101E400000300040F004002010B586B00024174890
:101E5000009401940294039404941349059401603E
:101E60003F21C0E901144521C0E903148021C0E9E4
:101E70000541FFF7D3F908B1FEF712FA4FF480508D
:101E8000009069460948FFF747FA08B1FEF708FADB
:101E9000049404A905480594FFF790F9002801D09F
:101EA000FEF7FEF906B010BD002C0140FC04002036
:101EB00010B586B00024174800940194029403944E
:101EC00004944FF08041059401604721C0E901145A
:101ED00040F2E731C0E9031480218161FFF79EF9E8
:101EE00008B1FEF7DDF94FF48050009069460948CB
:101EF000FFF712FA08B1FEF7D3F9049404A90548D4
:101F00000594FFF75BF9002801D0FEF7C9F906B088
:101F100010BD00004405002010B58CB02421684697
:101F2000FEF709F900241648099414490A9401603F
:101F30000121C0E9011480228261C0E90314032059
:101F4000CDE900040420CDE902100F22CDE90610EE
:101F5000CDE90424089269460948FFF748FA08B118
:101F6000FEF79EF9099409A905480A94FFF726F996
:101F7000002801D0FEF794F90CB010BD0004004019
:101F80008C0500200C4810B50A4901604FF4E1317E
:101F90004160002181600C22C160C0E904128161AE
:101FA000C161FFF7CFFC002803D0BDE81040FEF769
:101FB00077B910BD00440040D4050020FEE70000C2
:101FC00070B5FFF759FE1A4C1A49002520700128F8
:101FD00006D002280CD0032819D0042815D11EE001
:101FE0002570607800EB400001EB8000C07806E0CF
:101FF0002570607800EB400001EB80000079607094
:1020000000F000FC2078002800D0257070BD2570FD
:10201000607800EB400001EB80008078EFE72570EE
:10202000607800EB400001EB80004078E7E70000BB
:10203000140400202C040020FEE7002000F020B84B
:102040002DE9F04798461746824600260C46DDF8F3
:10205000209010E02146504600F08AF8554606E0F0
:1020600019F80600761C00F08FFB6D1CEDB2BD4226
:10207000F6D3641CE4B24445ECD3BDE8F08700001D
:1020800070B506465FF0000404F1B000C0B200F085
:1020900076FB002000F073FB102000F070FB0025A1
:1020A000304600F071FB6D1CEDB2802DF8D3641C3E
:1020B000E4B2082CE8D370BD10B5FFF719FD642019
:1020C000FEF73AFBAE2000F05AFB202000F057FB51
:1020D000102000F054FBB02000F051FBC02000F0B5
:1020E0004EFB002000F04BFB102000F048FB40208E
:1020F00000F045FB812000F042FBFF2000F03FFB99
:10210000A02000F03CFBA62000F039FBA82000F046
:1021100036FB3F2000F033FBA42000F030FBD3203F
:1021200000F02DFB002000F02AFBD52000F027FB5B
:10213000F02000F024FBD92000F021FB222000F049
:102140001EFBDA2000F01BFB122000F018FBDB2046
:1021500000F015FB202000F012FB8D2000F00FFB9B
:10216000142000F00CFBBDE81040AF2000F007BBCE
:1021700010B50446B031C8B200F001FB102040EAAF
:10218000141000F0FCFA04F00F00BDE8104040F01D
:10219000010000F0F4BA00002DE9F041203A0024DB
:1021A0000D468046D6B27F2803D900208D1C80467C
:1021B000EDB2102B29460FD0FFF7DAFF164906EBD8
:1021C000460001EB4005285D00F0DEFA641CE4B235
:1021D000062CF8D3BDE8F081FFF7CAFF0F4F00BF10
:1021E00004EB0610385C00F0CFFA641CE4B2082C53
:1021F000F6D36D1CE9B24046FFF7BAFF5FF000046A
:1022000004EB06103844007A00F0BEFA641CE4B215
:10221000082CF5D3DEE700007A300008A23200086F
:102220002DE9F05F0026DDF828901D4692468B468A
:10223000804634464FEA590723E0281B401EC1B2AE
:102240000A2000F08DFDBAFBF0F00A21B0FBF1F29C
:1022500001FB120026B9691E8C4201DA38B1012651
:102260003030C2B207FB0480C0B24B4604E007FB2B
:102270000480C0B24B4620225946FFF78DFF641CF4
:10228000E4B2AC42D9D3BDE8F09F00002DE9F0479D
:10229000002591468A460446012B22D0DFF8BC80F7
:1022A000022B24D155E02038C7B27E2C04D90AF184
:1022B0000100002400F0FF0A51462046FFF758FFB6
:1022C00007EB4700002608EB4007B85D00F05CFA1A
:1022D000761CF6B2062EF8D3A41D6D1CE4B2EDB246
:1022E00001E0DFF87C8019F805000028DBD1BDE8AB
:1022F000F0872038C7B2782C04D90AF101000024F5
:1023000000F0FF0A51462046FFF732FF5FF000065B
:1023100006EB071118F8010000F036FA761CF6B249
:10232000082EF5D30AF10100C1B22046FFF720FFC5
:102330005FF0000606EB071101EB0800007A00F0E1
:1023400023FA761CF6B2082EF4D308346D1CE4B2DE
:10235000EDB219F805000028CBD1C8E7A232000879
:102360007A300008704770471A4810B50178002984
:102370002ED00021017018484EF660230288521CAE
:1023800092B202809A4200D3018000880A21B0FBF9
:10239000F1F201FB1203104A0121121D03B9117061
:1023A000C823B0FBF3F403FB140303B911714FF41A
:1023B000C873B0FBF3F403FB140303B951714FF47A
:1023C0007A73B0FBF3F403FB1400002800D1917082
:1023D00010BD00000000002020040020FEF7EABA33
:1023E00030B593B028216846FDF7A5FE14210AA850
:1023F000FDF7A1FE00250F95092001211095009001
:10240000119512954FF4803004910691CDE90105A4
:102410000224CDE907404FF4E01009906846FEF72A
:1024200027FD08B172B6FEE70AA90F2081E8310046
:102430004FF48060CDE90D0502210AA8FEF72CFCBF
:1024400008B172B6FEE74FF4004011900F940FA848
:10245000FEF7ACFB002801D072B6FEE713B030BD2A
:10246000704700000148FFF78FB8000044050020C6
:102470000148FFF789B800008C05002070B502689C
:10248000134B144C4FF08046984203D0B04201D019
:10249000A04203D122F070054A682A43984203D033
:1024A000B04201D0A04203D122F44074CA68224352
:1024B0004C6922F08002224302608A68C2620A6884
:1024C0008262984201D1096901630121416170BDB5
:1024D000002C01400004004010B501F01F03012151
:1024E000046A99408C430462016A9A401143016274
:1024F00010BD10B5846842EA032224F47F440A43E5
:102500002243826010BD826822F070020A4342F0CA
:1025100007018160704710B5036A046A24F0010462
:102520000462846924F0F00444EA021423F00A02ED
:102530000A438461026210BD10B5036A23F01003E0
:1025400003628369046A23F4704343EA023224F08D
:10255000A00343EA01118261016210BD10B5406A17
:102560000021C185C184FFF7E5F810BD0168CA6884
:1025700022F49072CA6001684A6922F001024A613D
:10258000016B012904D10168CA6822F01002CA60F7
:10259000202180F83E1000210163704708B590F8B3
:1025A0003E10222901D0022008BD82684FF48053DA
:1025B0009A4201D1016921B1816A9A421BD04AB184
:1025C0000AE00268816A5268C2F308020A80816ADE
:1025D000891C08E0026972B10268526802F07F0249
:1025E0000A70816A491C8162C18D491E0904090C67
:1025F000C18503D019E002685268F1E70168CA6832
:1026000022F02002CA600168CA6822F48072CA609F
:1026100001684A6922F001024A61202180F83E10D7
:10262000016B012903D0FFF7FFF9002008BD00214D
:1026300001630168CA6822F01002CA6001680A6872
:10264000D20602D50A6849680091818DFFF771F8BA
:10265000EBE7000070B5044600680169E26821F408
:102660004051114301612169A06808436169084331
:102670002168CA6841F20C639A430243CA60206829
:102680004169A26921F44071114341611E492068EA
:10269000884202D1FEF7A6FB01E0FEF793FB00EBB8
:1026A000C00101EB0012606864218000B2FBF0F30E
:1026B000B3FBF1F36FF018067343B2FBF0F5B2FB16
:1026C000F0F605EB8305322303EB0515B5FBF1F5B9
:1026D000B6FBF1F605F0F00505EB0615B2FBF0F6DA
:1026E000B2FBF0F0B0FBF1F06FF01802504306EBD4
:1026F000800003EB0010B0FBF1F0216800F00F0048
:102700002844886070BD0000003801402DE9F04188
:10271000984617460E460446069D1DE0681C1BD0D1
:102720002DB1FEF70DF9A0EB0800A84214D92068DE
:10273000C16821F4D071C1602068416921F00101B4
:102740004161202084F83D0084F83E00002084F898
:102750003C000320BDE8F0812068006836EA0000F4
:1027600004D00020B842D9D00020F3E70120F9E7D7
:102770000148FEF7E1BF0000D4050020FEE7024655
:1027800000217A2000F0F4BA024640217A2000F0BD
:10279000EFBA0000014A024900F023B82D280008D2
:1027A000BC0400200907090E002804DB00F1E0202A
:1027B00080F80014704700F00F0000F1E02080F86E
:1027C000141D704702E008C8121F08C1002AFAD180
:1027D00070477047002001E001C1121F002AFBD1A1
:1027E00070472DE9F04116460F460446002503E0E8
:1027F0003946B047641C6D1C20780028F8D1284663
:10280000BDE8F08110B5074900EB400001EB800006
:10281000054C80686060FFF710FC6068BDE8104000
:10282000004700002C0400201404002038B50446A2
:102830008DF800000223012269460248FFF7F6F8EE
:10284000204638BDD405002008B50448002100907A
:10285000082380220846FFF7F3FB08BD0100002093
:1028600010B5002101230FA20846FFF70FFD012339
:102870000DA200211020FFF709FD01230EA2022165
:102880001020FFF703FD01230EA204211020FFF703
:10289000FDFC01230621BDE810400EA21020FFF729
:1028A000F5BC00003E0000005B315D2044697265AC
:1028B0006374696F6E0000005B325D205370656564
:1028C000640000005B335D204465766963652049E0
:1028D0006E666F005B345D2053595320536574005E
:1028E00010B501230CA202210020FFF7CFFC012329
:1028F0000AA200211020FFF7C9FC01230BA202212C
:102900001020FFF7C3FC01230421BDE810400AA2F8
:102910001020FFF7BBBC00003E0000002020204438
:102920006972656374696F6E000000005B315D2041
:10293000466F7277617264005B325D204F70706F1A
:10294000736974652000000010B501230CA20421F6
:102950000020FFF79BFC01230AA200211020FFF7B3
:1029600095FC01230BA202211020FFF78FFC01230D
:102970000421BDE810400AA21020FFF787BC000028
:102980003E000000202020446972656374696F6E08
:10299000000000005B315D20466F72776172640059
:1029A0005B325D204F70706F7369746520000000AA
:1029B00010B501230FA202210020FFF767FC0123BD
:1029C0000DA200211020FFF761FC01230EA20221BD
:1029D0001020FFF75BFC01230EA204211020FFF75B
:1029E00055FC01230621BDE810400EA21020FFF780
:1029F0004DBC00003E0000005B315D204469726503
:102A00006374696F6E0000005B325D205370656512
:102A1000640000005B335D2044657669636520498E
:102A20006E666F005B345D2053595320536574000C
:102A300038B50B4C207880B1401E2070022309A2CB
:102A400000211020FFF722FC1020009003232278A1
:102A500004213C20FFF7E4FB38BD6420EDE70000D3
:102A60001C040020202020537065656400000000D5
:102A700008B5022307A200211020FFF707FC102051
:102A8000009007480323042102783C20FFF7C8FB8D
:102A900008BD000020202053706565640000000020
:102AA0001C04002038B50B4C2078642801D300208A
:102AB00000E0401C2070022307A200211020FFF735
:102AC000E5FB102000900323227804213C20FFF72F
:102AD000A7FB38BD1C0400202020205370656564CE
:102AE0000000000010B501230FA204210020FFF711
:102AF000CDFB01230DA200211020FFF7C7FB01230E
:102B00000EA202211020FFF7C1FB01230EA2042117
:102B10001020FFF7BBFB01230621BDE810400EA2E9
:102B20001020FFF7B3BB00003E0000005B315D20CA
:102B3000446972656374696F6E0000005B325D20EA
:102B400053706565640000005B335D204465766901
:102B5000636520496E666F005B345D2053595320D6
:102B60005365740010B501230CA200211020FFF75B
:102B70008DFB01230DA202211020FFF787FB01230B
:102B80000EA204211020FFF781FB01230621BDE8DE
:102B900010400EA21020FFF779BB00002020204437
:102BA000657669636520496E666F000041757468DB
:102BB0006F723A5A686F7551690000004441544180
:102BC0003A323032332F332F32340000766572734D
:102BD000696F6E3A4130312E3037000010B5012355
:102BE0000FA206210020FFF751FB01230DA20021B7
:102BF0001020FFF74BFB01230EA202211020FFF74C
:102C000045FB01230EA204211020FFF73FFB012307
:102C10000621BDE810400EA21020FFF737BB0000D0
:102C20003E0000005B315D20446972656374696F2A
:102C30006E0000005B325D2053706565640000002B
:102C40005B335D2044657669636520496E666F007D
:102C50005B345D20535953205365740010B5012334
:102C600006A200211020FFF711FB01230421BDE87B
:102C7000104005A21020FFF709BB000020202053C0
:102C8000595320536574000053746F726167653A3D
:102C90005945530008B5FDF795FEFFF7A1FBFFF777
:102CA00067F8FFF739F9FFF71BF8FFF7CDF8FFF7E3
:102CB00069F9FFF7B3F8FFF7FBF81748FEF704FBD5
:102CC000164C6FF00100216808613C212046FEF798
:102CD00013FC2068C16841F00101C1601048FDF794
:102CE00007FB002240210F48FDF725FEFFF7E4F91E
:102CF000FFF7A3F90C480021009008238022084622
:102D0000FFF79EF909A0FFF745FD00BFFFF72CFB79
:102D10001248FDF7C7FAF9E7440500208C050020AA
:102D2000C0040020000C0140010000205B6D6169BF
:102D30006E5D696E666F3A53797374656D20696E66
:102D4000697469616C697A6174696F6E2073756307
:102D5000636565646564A3A10D0A00002404002076
:102D60000246012000E05043491EC9B2FBD2704721
:102D700070B515460E460446FEF718FF2046FEF7CE
:102D8000DFFEFEF751FF3046FEF7DAFEFEF74CFF9E
:102D90002846FEF7D5FEFEF747FFBDE87040FEF778
:102DA00029BF000000000000000001020304060724
:102DB00008090000000001020304000022322AA6D4
:102DC000A2622111098101000000004222130B427E
:102DD000827E02020A12234600002030AC633000DB
:102DE00088C8A8998E88A8C88800226722121280F5
:102DF00040300F00003F40407100080889EA188801
:102E0000000404FC040404FC0000020100FF01862D
:102E1000402018074080403F00001010F01F10F0C5
:102E20000040E05847405060C0004022150816217D
:102E30000000FE42424242FE0000008060F80700AF
:102E40000000FF40201008040000010000FF000403
:102E500002013F404040404078000000F010101058
:102E600010FF10101010F000000000000F04040408
:102E700004FF040404040F0000001060028C000032
:102E8000FE9292929292FE00000004047E01407E27
:102E900042427E427E42427E40001060028C00FE32
:102EA000929292929292FE00000004047E014448A5
:102EB000507F40407F50484440000000FC242424C0
:102EC000FC252624FC242424040040308F80844CDC
:102ED00055252525554C808080000000800000E0AD
:102EE00002041800000040800000100C0300003FA6
:102EF00040404040407800010E000014A4442434B7
:102F0000AD6624940444A4140000080908080909C3
:102F100009FD09090B08080908000000F80808F86D
:102F20000C0B08F80808F800000040407F40407F84
:102F30004040407F40407F4040000824236AAA2A46
:102F4000AA6A2A2A2AEA020200001011151515FFA2
:102F500015151511100F3040F8000484E45C44C4CA
:102F60002010E82724E4342CE00002017F10103FF9
:102F700080601F09093F49897F00100C4444444484
:102F800045C64444444444140C008040201E204064
:102F9000407F44444444444040000202FE929292E6
:102FA000FE0206FC040404FC000008180F080804D4
:102FB000FF0484402718274080001060020CC000E6
:102FC000E22C203F2028E600000004047C030000DF
:102FD000FF09090949897F000000060909E6F80C84
:102FE000040202020202041E0000000000071F305B
:102FF00020404040404020100000807000FF10083A
:10300000FE424242FA424242FE0080601807081027
:10301000FF50484641424C40FF00100C055555D525
:10302000057F0555555505140C001010108AA96B25
:10303000352525ABE90810101000000202F212122B
:1030400012F2020202FE020202000000000F04045B
:10305000040F0040807F00000000807000FF1028F7
:103060009827C43C907F901214008060180708983D
:10307000640328C621C01126C8000000000000001B
:103080000000002F000000000700070000147F145C
:103090007F1400242A7F2A1200626408132300365A
:1030A0004955225000000503000000001C22410089
:1030B000000041221C000014083E08140008083ECD
:1030C0000808000000A060000008080808080000C8
:1030D00060600000002010080402003E5149453E97
:1030E0000000427F400000426151494600214145B5
:1030F0004B31001814127F10002745454539003C1C
:103100004A494930000171090503003649494936E9
:1031100000064949291E00003636000000005636D8
:1031200000000008142241000014141414140000BC
:103130004122140800020151090600324959513E4A
:10314000007C1211127C007F49494936003E414102
:103150004122007F4141221C007F49494941007FB3
:1031600009090901003E4149497A007F0808087FA2
:103170000000417F4100002040413F01007F0814D2
:103180002241007F40404040007F020C027F007FD0
:103190000408107F003E4141413E007F09090906B5
:1031A000003E4151215E007F0919294600464949E8
:1031B00049310001017F0101003F4040403F001FB5
:1031C0002040201F003F4038403F00631408146334
:1031D00000070870080700615149454300007F411E
:1031E000410000552A552A55000041417F00000446
:1031F000020102040040404040400000010204007F
:10320000002054545478007F4844443800384444E3
:10321000442000384444487F00385454541800086F
:103220007E0901020018A4A4A47C007F080404788D
:103230000000447D4000004080847D00007F102815
:1032400044000000417F4000007C04180478007CAA
:103250000804047800384444443800FC242424182A
:103260000018242418FC007C080404080048545466
:10327000542000043F444020003C4040207C001C7F
:103280002040201C003C4030403C00442810284492
:10329000001CA0A0A07C004464544C4414141414DA
:1032A00014140000000000000000000000000000F6
:1032B0000000000000F800000000000000333000B3
:1032C000000000100C06100C0600000000000000BA
:1032D000000040C07840C0784000043F04043F0430
:1032E0000400007088FC08300000001820FF211E38
:1032F0000000F008F000E018000000211C031E216F
:103300001E0000F00888700000001E2123241927E9
:10331000211010160E000000000000000000000048
:103320000000000000E01804020000000007182060
:10333000400000020418E0000000004020180700D0
:103340000000404080F0804040000202010F010276
:103350000200000000F0000000000101011F010157
:103360000100000000000000000080B070000000BC
:103370000000000000000000000000010101010148
:1033800001010000000000000000003030000000DB
:1033900000000000000080601804006018060100B2
:1033A000000000E010080810E000000F10202010BE
:1033B0000F00001010F8000000000020203F202027
:1033C00000000070080808887000003028242221BE
:1033D0003000003008888848300000182020201174
:1033E0000E000000C02010F8000000070424243F55
:1033F000240000F8088888080800001921202011FE
:103400000E0000E0108888180000000F1120201125
:103410000E0000380808C83808000000003F00000F
:1034200000000070880808887000001C22212122FA
:103430001C0000E010080810E000000031222211FA
:103440000F00000000C0C00000000000003030008D
:10345000000000000080000000000000806000000C
:103460000000000080402010080000010204081045
:103470002000404040404040400004040404040454
:103480000400000810204080000000201008040202
:103490000100007048080808F00000000030360104
:1034A0000000C030C828E810E000071827242314C3
:1034B0000B000000C038E0000000203C230202277F
:1034C000382008F8888888700000203F20202011CC
:1034D0000E00C03008080808380007182020201007
:1034E000080008F808080810E000203F20202010FD
:1034F0000F0008F88888E8081000203F20202320CB
:10350000180008F88888E8081000203F2000030011
:103510000000C03008080838000007182020221ECC
:10352000020008F808000008F808203F21010121E6
:103530003F20000808F8080800000020203F202055
:10354000000000000808F8080800C08080807F00A4
:10355000000008F888C028180800203F20012638FD
:10356000200008F8080000000000203F2020202054
:10357000300008F8F800F8F80800203F003F003F4E
:10358000200008F830C00008F808203F2000071885
:103590003F00E01008080810E0000F102020201065
:1035A0000F0008F808080808F000203F2101010179
:1035B0000000E01008080810E0000F18242438501C
:1035C0004F0008F8888888887000203F2000030C8E
:1035D0003020007088080808380000382021212297
:1035E0001C00180808F8080818000000203F2000F8
:1035F000000008F808000008F808001F202020201C
:103600001F000878880000C83808000007380E013D
:103610000000F80800F80008F800033C0700073C29
:103620000300081868808068180820302C03032CD9
:1036300030200838C800C83808000000203F2000AB
:10364000000010080808C83808002038262120206B
:103650001800000000FE020202000000007F40404F
:103660004000000C30C000000000000000010638DF
:10367000C00000020202FE000000004040407F0047
:10368000000000000402020204000000000000002C
:10369000000000000000000000008080808080802A
:1036A0008080000202040000000000000000000012
:1036B0000000000080808080000000192422222267
:1036C0003F2008F8008080000000003F11202011FA
:1036D0000E000000008080800000000E11202020DD
:1036E0001100000000808088F800000E11202010DA
:1036F0003F200000808080800000001F22222222C4
:103700001300008080F0888888180020203F202047
:1037100000000000808080808000006B949494936F
:10372000600008F8008080800000203F2100002019
:103730003F2000809898000000000020203F2020BB
:103740000000000000809898000000C08080807F0A
:10375000000008F8000080808000203F24022D3007
:103760002000000808F8000000000020203F202072
:1037700000008080808080808000203F20003F20EB
:10378000003F8080008080800000203F21000020DA
:103790003F200000808080800000001F202020202B
:1037A0001F00808000808000000080FFA120201189
:1037B0000E000000008080808000000E112020A0FC
:1037C000FF80808080008080800020203F212000BA
:1037D00001000000808080808000003324242424A5
:1037E0001900008080E0808000000000001F202081
:1037F00000008080000000808000001F202020103A
:103800003F20808080000080808000010E3008060C
:10381000010080800080008080800F300C030C301D
:103820000F0000808000808080000020312E0E314B
:103830002000808080000080808080818E7018064B
:10384000010000808080808080000021302C2221B7
:10385000300000000000807C020200000000003FF9
:10386000404000000000FF00000000000000FF00DA
:1038700000000002027C800000000040403F000089
:103880000000000601010202040400000000000024
:1038900000000000B438000800000020C004000050
:1038A00070010008AC3A0008C00400205805000070
:1038B000D4270008110E3AF8FCFEFEFF010A341F5F
:1038C0000108093B3F7FFFFFFEFEFCF87C29010158
:1038D0001F180A6060E0F8FEFE383E3E03190567D7
:1038E000FEFEF8F06060794322013A30014C10018D
:1038F0004352895F191C1AF001280EF1F1E103030C
:103900000FFFFF3F0703C1F1111901092380BBED30
:10391000ED25290DDB6D6D804DE0C0C0C6011BC0DB
:10392000E0565DC0C0C0C701990D880BC3E0F0F838
:10393000FFFFFEF0E0C11D495B5A80010115280917
:10394000818183071F3F073F0339051C070701D407
:10395000B9802BFF7F01890F9917091015E90139EB
:10396000481A816714EFFFFE1009F8FCFC6E667EB2
:103970003C182008BCBCBCFCECECEC14FDFDFD10BC
:103980000978FCFCCC8CFCFCFC19041B0C1C08E921
:103990008021191A12F81B01070B3F011F9FCFC787
:1039A000E3172C0C0C0C072809CF070FFFFF3F0F64
:1039B0008F052D076767670FA93C6A010131690A06
:1039C0007912390519494D0F0F07070D3928C9809C
:1039D000280AC0C0C3C3E3F1F0F8FE0B9AC0175920
:1039E0000C1EFCF0E1F0FC082808F8F0E0E3E3F33B
:1039F000F60B9980280B7F7F6D6D6F7F30DCFCE0CC
:103A0000DB22781763737B6F6763157F04047C1078
:103A10000C3C7C666E7C103C7C60607C2F3E7F633F
:103A200061737E318980AD1F3F7F7F4F092F010A6F
:103A300034F0013009F8FCFEFF7F7F3F1F32018226
:103A4000109324F40212322A012C1349281508017C
:103A5000040232051A610C14020103320813B12961
:103A60001508030204320A13E52A1508040301327B
:103A70000B13DD2B2D080506063B111AE1303C0621
:103A800005050C1A493045070709021A31305A0852
:103A90000C1A710C5A090C1AA50C450A0A0A031AC9
:0C3AA0006548450B0B0B043B5D2C7311BB
:04000005080000ED02
:00000001FF
