:020000040800F2
:100000008005002005010008FF210008ED1C000804
:10001000FD2100087102000891290008000000007D
:10002000000000000000000000000000FB230008AA
:100030007302000800000000F92300087124000882
:100040001F0100081F0100081F0100081F01000810
:100050001F0100081F0100081F0100081F01000800
:100060001F0100081F0100081F0100081F010008F0
:100070001F0100081F0100081F0100081F010008E0
:100080001F0100081F0100081F0100081F010008D0
:100090001F0100081F0100081F0100081F010008C0
:1000A0001F0100081F0100081F0100081F010008B0
:1000B000F924000805250008000000001F010008C1
:1000C0001F01000800000000000000001F010008E0
:1000D000000000001F010008852900080000000042
:1000E0001F0100081F0100081F010008DFF810D0E1
:1000F00000F042F800480047792B0008AFF3008079
:10010000800500200648804706480047FEE7FEE7D6
:10011000FEE7FEE7FEE7FEE7FEE7FEE7FEE7FEE7B7
:10012000F5240008ED000008D2B201E000F8012B30
:10013000491EFBD270470022F6E710B513460A4667
:1001400004461946FFF7F0FF204610BD30B50B46B8
:10015000014600202022012409E021FA02F59D42F7
:1001600005D303FA02F5491B04FA02F52844151ECB
:10017000A2F10102F1DC30BD064C074D06E0E0685B
:1001800040F0010394E8070098471034AC42F6D3DE
:10019000FFF7B0FF583700087837000870B50446FD
:1001A00000688168C943C90717D1816821F001013E
:1001B000816000F0DDFB05460AE000BF00F0D8FBDF
:1001C000401B022804D920688068C043C00706D0BD
:1001D00020688068C043C007F0D0002070BDA06ACE
:1001E00040F01000A062E06A40F00100E0620120EF
:1001F00070BD0000F8B500260446009600688168CE
:10020000C943C9072DD0816841F0010181601648BA
:1002100016490068B0FBF1F000E0401E0090002895
:10022000FBD100F0A5FB054616E000BF00F0A0FBE7
:10023000401B022810D920688068C043C0070BD03B
:10024000A06A40F01000A062E06A40F00100E062A5
:1002500084F824600120F8BD20688068C043C0078E
:10026000E4D10020F8BD00001000002040420F0043
:10027000FEE7704772B6FEE770B5044600780025C9
:1002800030B1257001F0FEFD0F49087000F022F832
:1002900020790E4E30B125711021304600F05BFB05
:1002A00002F04AFA607920B165712021304600F0F1
:1002B00052FBA078002805D0A570BDE87040044826
:1002C00000F089BB70BD000014000020000C01404C
:1002D00058000020064800680168064AC1F3001172
:1002E0001170406AC2B20448027004A002F05CBB04
:1002F000F400002015000020160000205B6D6169ED
:100300006E5D696E666F3AB7BDCFF2A3BA25640D14
:100310000ABCC6CAFDD6B5A3BA25640D0A0D0A00EB
:10032000F8B500250446009590F82400012808D06F
:10033000012084F824002046FFF730FF060002D099
:1003400053E00220F8BDA06A20F4885040F002007B
:10035000A062022000F0DEFB26490968B1FBF0F044
:10036000400000E0401E00900028FBD12046FFF72F
:1003700041FF2068816841F00801816000F0F8FACF
:10038000074608E000F0F4FAC01B0A2803D92068E9
:100390008068000715D4206880680007F2D42068C0
:1003A000816841F00401816000F0E2FA074612E042
:1003B00000F0DEFAC01B0A280DD9206880684007CB
:1003C00009D5A06A20F0020040F01000A06284F875
:1003D00024500120F8BD206880684007E8D4A06A56
:1003E00020F0020040F00100A06284F82450304662
:1003F000F8BD000010000020F8B50024009490F82B
:1004000024202546012A12D0012280F824204A689F
:100410001F23072A0DD20668776B521E02EB820259
:1004200093409F430B6893401F43776319E002207A
:10043000F8BD06680D2A0AD2376BD21F02EB820282
:1004400093409F430B6893401F43376309E0F76A6B
:100450000D3A02EB820293409F430B6893401F4387
:10046000F7620A68072306680A2A0AD3F7680A3A75
:1004700002EB420293409F438B6893401F43F76017
:1004800008E0376902EB420293409F438B68934038
:100490001F4337610A68102A01D0112A20D1124B5C
:1004A00002689A4217D193681B0219D4936843F4E7
:1004B000000393600968102912D10C490C4A09689D
:1004C000B1FBF2F101EB8101490000E0491E00910E
:1004D0000029FBD104E0816A41F0200181620124FE
:1004E00080F824502046F8BD002401401000002070
:1004F00040420F002DE9F0414FF0000704003D4657
:100500007ED0A06A002628B9E66284F824602046DE
:1005100000F07EF82046FFF741FEA16AC90600D42C
:1005200020B1A06A40F01000A06269E0A16A21F445
:10053000885141F00201A1626268E169237B0A43AC
:1005400047EA43010A43A1684FF48077B94209D0D2
:10055000012907D05FF0000194F814C0BCF1010F2D
:1005600002D00AE03946F7E7F3B1A36A43F020036B
:10057000A362E36A43F00103E3622368D3F804C093
:100580002CF4694C4CEA010CC3F804C021688B6858
:10059000DFF870C003EA0C0313438B60A168B94213
:1005A0000BD0012909D00CE0DFF85CC0A3690CEB8B
:1005B00043330B4343F40061DFE7218A0D05A5F5C2
:1005C00080152168CB6A23F470032B43CB6221682A
:1005D00089680E4B1940914208D1E662A16A21F068
:1005E000020141F00101A162BDE8F081A06A20F0A2
:1005F000020040F01000A062E06A40F00100E062FA
:100600000120F1E7FDF7E1FF00E0FFFFFE0E1FFF15
:1006100010B586B00021009101910291039100680C
:100620001549884225D11548816941F400718161DD
:10063000816901F400710491816941F004018161D3
:10064000816901F004010491816941F0080181612F
:100650008069032400F00800049000946946019426
:10066000074800F093F8009469460648019400F0AA
:100670008DF806B010BD00000024014000100240BB
:1006800000080140000C014010B590F82110002234
:10069000022905D00421816380F82020012010BDAB
:1006A00001680B6823F00E030B6001680B6823F0F0
:1006B00001030B6090F84030C46B012101FA03F391
:1006C000636080F8211080F82020104610BD0000E3
:1006D00010B590F821100024022903D00421816371
:1006E00001243DE001680A6822F00E020A600168F8
:1006F0000A6822F001020A601A4A0168914201D197
:10070000012121E0174A1432914201D110211BE04E
:10071000144A2832914201D1891515E0114A3C3220
:10072000914201D189140FE00E4A5032914202D118
:100730004FF4803108E00B4A6432914202D14FF409
:10074000801101E04FF08071064A083A51600121A2
:1007500080F82110002180F82010416B01B18847FA
:10076000204610BD0800024070B5044600F000F9B4
:100770000546601C02D004480078044400F0F8F8F4
:10078000401BA042FAD370BD040000202DE9F84FB1
:10079000DFF89C91002409F1040A0AF1040B2346B6
:1007A0000F270BF1040EBBE00125A5402A40AA4209
:1007B00076D1DFF880C14E68A6EB0C0866452BD0D9
:1007C0000DDC032E34D005DC36B3012E19D0022EF9
:1007D0002FD11BE0112E16D0122E2AD119E0B8F518
:1007E000881F19D006DCB8F5803F15D0B8F5801FFA
:1007F0001FD111E0B8F5001F0ED0B8F5041F18D1B5
:100800000AE0CB6815E0CB681B1D12E0CB6808330B
:100810000FE0CB680C330CE08B682BB1012B4FF051
:10082000080303D0456104E0042302E0056100E011
:100830000023FF2A01D8064601E000F104064FEA32
:10084000840501D9A5F12005D6F8008007FA05FC3A
:1008500028EA0C0803FA05F548EA0508C6F80080FE
:100860004D68ED005BD5344DAE6946F00106AE61D2
:10087000AD6924F0030605F0010500952F4D06EB48
:10088000050CDCF80850A607360F07FA06F825EA2B
:100890000805DFF8AC80404503D14FF0000810E0B8
:1008A0003DE0DFF8A080404502D14FF0010808E0AC
:1008B000DFF89480404502D14FF0020801E04FF08C
:1008C000030808FA06F848EA0508CCF808804D68DD
:1008D000D9F80060ED034D4601D5164300E096437C
:1008E0002E604D68DAF80060AD03554601D5164319
:1008F00000E096432E604D68DBF80060ED025D4637
:1009000001D5164300E096432E604D68DEF8006086
:10091000AD02754601D5164300E096432E60641C77
:100920000A6832FA04F57FF43FAFBDE8F88F0000A3
:1009300000040140000011100010024000000140BE
:1009400000080140000C0140001001408068084090
:1009500000D001207047C26821EA02030A4043EA3E
:100960000241016170470AB1016170470904FBE768
:1009700001488068704700000400002070B5040042
:1009800011D021684CF6CC400860216845F25550E2
:100990000860D4E9000141602168A0688860FFF721
:1009A000E7FF05460DE0012070BD00BFFFF7E0FF47
:1009B000401B272805D92068C068800701D0032084
:1009C00070BD2068C0688007F0D121684AF6AA206F
:1009D0000860002070BD00684AF6AA21016000206E
:1009E00070470000024881680278114481607047B6
:1009F00004000020074810B5016841F010010160B3
:100A0000032000F075F80F2000F006F800F024F83D
:100A1000002010BD0020024070B50D4D04464FF47B
:100A20007A712878B1FBF0F00A490968B1FBF0F05F
:100A300000F0C6FB48B9102C07D200222146501EF8
:100A400000F036F800206C6070BD012070BD000021
:100A500004000020100000200C4808B5816941F016
:100A600001018161816901F001010091C16941F0D9
:100A70008051C161C06900F0805000900448416815
:100A800021F0E06141F00071416008BD00100240BA
:100A900000000140002809DB00F01F020121914005
:100AA0004009800000F1E020C0F80011704700000C
:100AB000F0B40E4B1B680C46C3F30223C3F10705C9
:100AC000042D00D90425191D072901D2002300E0B7
:100AD000DB1E012606FA05F1491E214099409E4081
:100AE000761E16403143F0BC01F06EBF0CED00E005
:100AF000064900F0070208684FF6FF03184040EA75
:100B00000220034A10430860704700000CED00E02B
:100B10000000FA0510B529A401461DCC86B08DE869
:100B20001D002AA02A4C006804900020012923D02F
:100B300002293AD010291DD161682268D20119D545
:100B4000C1F38342C9031DF8020009D5616804AAF4
:100B5000C1F34041515C1F4AB2FBF1F1484301E04F
:100B60001D4948436168490204D440005FF0030115
:100B7000B0FBF1F006B010BD226AC2F301210129D9
:100B800003D1920701D5C803F4E7022905D1626AAF
:100B9000920702D549F64040ECE70329EAD12168E3
:100BA0008903E7D54FF22440E4E700F033F96168A8
:100BB000C1F38131491C4900DAE700000203040552
:100BC000060708090A0B0C0D0E0F10100102000099
:100BD0000010024000127A0000093D002DE9F843A0
:100BE00005460078354CC00754D0E0690026C000A7
:100BF00008D4E06940F08050E061E069012600F02F
:100C0000805000902E480168C90512D401688046C2
:100C100041F480710160FFF7ABFE074605E000BFBD
:100C2000FFF7A6FEC01B642823D8D8F80000C00533
:100C3000F6D5206A10F4407021D0A98801F44071E3
:100C400081421CD0206A1F49012220F440700A60B2
:100C500000220A602062C00711D0FFF789FE074614
:100C600041F2883808E000BFFFF782FEC11B414512
:100C700002D90320BDE8F883206A8007F4D5206AF2
:100C8000696820F44070084320621EB1E06920F0DA
:100C90008050E0612878800705D56068A96820F455
:100CA0004040084360602878C00605D56068E96860
:100CB00020F48000084360600020DBE70010024061
:100CC00000700040400442422DE9F0470F46050005
:100CD00061D0434E306800F00700B84209D2306856
:100CE00020F0070038433060306800F00700B84259
:100CF00051D128683B4C810712D5400703D5606865
:100D000040F4E06060602878000703D5606840F434
:100D1000605060606068A96820F0F000084360607F
:100D20002878C00728D06868012810D021680228D8
:100D300010D0890700292EDA616821F003010143F0
:100D40006160FFF715FE804641F288390DE02168A9
:100D50008903EFE78901EDE7FFF70AFEA0EB080141
:100D6000494502D90320BDE8F0876068696800F052
:100D70000C00B0EB810FEFD1306800F00700B842F3
:100D80000BD9306820F0070038433060306800F03D
:100D90000700B84201D00120E5E72878400705D5D3
:100DA0006068E96820F4E060084360602878000724
:100DB00006D56068296920F4605040EAC10060608F
:100DC00000F038F86168084AC1F30311515CC8406B
:100DD0000649086006480068FFF71EFE0020C2E7CB
:100DE0000020024000100240662C00081000002085
:100DF000080000200448054900684968044AC1F316
:100E00000221515CC84070471000002000100240D1
:100E1000762C00080448054900684968044AC1F373
:100E2000C221515CC84070471000002000100240F1
:100E3000762C000812A185B00FC98DE80F0014A010
:100E4000144A006804905168134801F00C03042B05
:100E500010D0082B0ED1C1F38343C9031DF8030042
:100E60000AD5516804AAC1F34041515C0A4A504373
:100E7000B0FBF1F005B0704708494843FAE70000BD
:100E800002030405060708090A0B0C0D0E0F1010CB
:100E9000010200000010024000127A0000093D002B
:100EA0002DE9F84F040070D02078C04DC00749D01C
:100EB0006868C0F38100012807D06868C0F381002A
:100EC000022809D16868C00306D52868800339D58F
:100ED00060680028E7D035E06068B0F5803F0BD04F
:100EE00010B1B0F5A02F11D0286820F48030286010
:100EF000286820F4802002E0286840F480302860D0
:100F0000606890B1FFF734FD06460AE0286840F4B7
:100F100080202860F0E700BFFFF72AFD801B6428CF
:100F200073D828688003F7D50CE0FFF721FD06464B
:100F300005E000BFFFF71CFD801B6428F0D828687F
:100F40008003F7D420789A4E80074FF001094FF0C4
:100F5000000839D5686810F00C0F07D06868C0F336
:100F60008100022809D16868C00306D42868800778
:100F700014D52069012808D110E02069B0B1C6F865
:100F80000090FFF7F5FC074605E00AE1FFF7F0FCEB
:100F9000C01B0228C4D828688007F7D52868616973
:100FA00020F0F80040EAC10028600DE0C6F800809B
:100FB000FFF7DEFC074604E0FFF7DAFCC01B02285F
:100FC00023D828688007F7D4207800072CD57948E3
:100FD000A169D9B1C0F80090FFF7CAFC074604E048
:100FE000FFF7C6FCC01B02280FD8686A8007F7D538
:100FF00071484FF4FA510068B0FBF1F0009000BF67
:101000000098411E0091FAD20EE080E0C0F8008006
:10101000FFF7AEFC074604E0FFF7AAFCC01B02285E
:1010200075D8686A8007F7D42078400760D5E869EA
:101030000027C00008D4E86940F08050E861E86902
:10104000012700F0805000905C480168C90513D466
:101050000168834641F480710160FFF789FC824694
:1010600006E000BFFFF784FCA0EB0A0064284ED81E
:10107000DBF80000C005F5D5E06801280AD008B10A
:10108000052813D0286A20F001002862286A20F081
:10109000040002E0286A40F001002862E06841F2A2
:1010A000883B98B1FFF764FC82460BE0286A40F069
:1010B00004002862EEE700BFFFF75AFCA0EB0A012C
:1010C00059455AD8286A8007F6D50CE0FFF750FC3E
:1010D000824605E0FFF74CFCA0EB0A0159454CD8CD
:1010E000286A8007F6D41FB1E86920F08050E861D3
:1010F000E06988B36968C1F38101022944D00228FC
:10110000C6F8608004D0FFF733FC044638E034E0D2
:10111000FFF72EFC074604E0FFF72AFCC01B02285D
:101120002BD828688001F7D4206AB0F5803F05D11C
:101130006868A16820F4003008436860D4E90801B9
:101140000843696821F4741108436860C6F8609028
:10115000FFF70EFC044606E025E000BFFFF708FCA1
:10116000001B022809D828688001F7D51BE000BFC2
:10117000FFF7FEFB001B022802D90320BDE8F88F11
:1011800028688001F4D40EE00128F7D06868226A4C
:1011900000F48031914204D1616A00F470108842F9
:1011A00001D00120EAE70020E8E70000001002403B
:1011B00000004242800442421000002000700040C3
:1011C00010B5401EB0F1807F01D3012010BD4FF05B
:1011D000E02460610F21601701F0F6FB0020A061A0
:1011E00007202061002010BD7047704710B590F8AF
:1011F0003C20012A22D0012280F83C20CA688C6859
:1012000022F4407222434C6822F4806222430C682C
:1012100022F4006222430C6922F4805222434C697A
:1012200022F400522243C969002322F480420A4377
:1012300001684A6480F83C30002010BD022010BDD7
:1012400070B590F83C20012A23D0012480F83C405E
:10125000022280F83D2003685A689D6822F07006DB
:101260000A6832435A600C4B02689A4205D0B2F1C8
:10127000804F02D0094B9A4204D1496825F080037F
:101280001943916080F83D40002180F83C100846E9
:1012900070BD022070BD0000002C01400004004021
:1012A00010B5040003D094F83D0010B107E0012010
:1012B00010BD002084F83C00204600F01FF80220FA
:1012C00084F83D00211D206801F022F9012084F8F6
:1012D000460084F83E0084F83F0084F8400084F81B
:1012E000410084F8420084F8430084F8440084F804
:1012F000450084F83D00002010BD000008B50068DE
:10130000B0F1804F12D10A48C16941F00101C161B9
:10131000C069002200F00100009011461C20FFF778
:10132000C7FBBDE808401C20FFF7B4BB08BD0000A8
:101330000010024090F83D10012901D001207047B3
:10134000022180F83D100168CA6842F00102CA60BB
:1013500000680A49884205D0B0F1804F02D00849A0
:10136000884204D1816801F00701062903D0016891
:1013700041F001010160002070470000002C014095
:101380000004004070B5044690F83C00012817D0D6
:10139000012584F83C50022084F83D0020688268D2
:1013A00022F0770222F47F4282600868502830D011
:1013B0000DDC20284DD005DC98B310283BD148E047
:1013C000022070BD302844D0402834D139E0602854
:1013D00028D0702806D0B0F5805F2CD0B0F5005F23
:1013E00029D10AE0CB68D1E90121206801F0CBF8CE
:1013F0002068816841F0770109E0CB68D1E90121DB
:10140000206801F0C0F82068816841F48041816063
:1014100011E0CA684968206801F06AF95021206823
:1014200007E016E0CA684968206801F072F9602197
:10143000206801F0B2F884F83D50002084F83C00A8
:1014400070BDCA684968206801F052F940212068DF
:10145000EFE7226801461046EBE72DE9F0410D4623
:10146000040003D094F83D0018B108E00120BDE865
:10147000F081002084F83C00204600F041F8022072
:1014800084F83D002068816844F20702914381603E
:10149000211D206801F03CF8226890689169166A65
:1014A0002B68AF69034340F20330814341EA0721CF
:1014B000A868EF6908434FF6FC418843E96840EAB1
:1014C0000720014328692F6A000140EA07300843DA
:1014D00069686D6926F0220646EA0515294393607E
:1014E0002268906154F8460B0162012004F81F093C
:1014F000E0752076E0762077A0750020B7E7000041
:1015000000B585B00021009101910291039100681E
:10151000114988421ED11148C16941F00201C161DF
:10152000C16901F002010491816941F00401816106
:101530008069694600F004000490C02000900848CB
:10154000FFF724F9002205211D20FFF7B1FA1D2025
:10155000FFF7A0FA05B000BD0004004000100240F3
:101560000008014070B590F83E60044690F83F5086
:1015700090F8423090F84320022021B104290ED087
:10158000012E1BD114E0012E18D1012B16D184F8A5
:101590003E0084F8420001220021206820E0012D55
:1015A0000CD1012A0AD184F83F0084F8430014E0EA
:1015B000012D03D1012B01D1012A01D0012070BDE1
:1015C00084F83E0084F83F0084F8420084F8430029
:1015D00001220021206800F0C9FF012204212068B7
:1015E00000F0C4FF2068016841F0010101600020A3
:1015F00070BD704770B50446006801694FF0000582
:10160000C943890715D4C168C943890711D4E91EA4
:10161000016101202077206880698007204602D080
:10162000FFF7E7FF04E000F0D3F8204600F076F97A
:10163000257720680169C943490717D4C168C943A0
:10164000490713D46FF0040101610220207720685C
:10165000806910F4407F204602D0FFF7CAFF04E003
:1016600000F0B6F8204600F059F9257720680169A6
:10167000C943090716D4C168C943090712D46FF0DA
:1016800008010161042020772068C0698007204696
:1016900002D0FFF7AEFF04E000F09AF8204600F019
:1016A0003DF9257720680169C943C90617D4C16887
:1016B000C943C90613D46FF01001016108202077D7
:1016C0002068C06910F4407F204602D0FFF791FFE8
:1016D00004E000F07DF8204600F020F9257720682E
:1016E0000169C943C90708D1C168C943C90704D101
:1016F000891E0161204600F013F920680169C94381
:10170000090609D4C168C943090605D46FF08001F0
:1017100001612046FFF768FD20680169C943490659
:1017200009D4C168C943490605D46FF0400101617D
:10173000204600F003F920680169C94389060BD4EB
:10174000C168C943890607D46FF0200101612046B2
:10175000BDE87040FFF749BD70BD000010B586B010
:10176000002100910191029103910068144988427F
:1017700023D11448816941F008018161816901F038
:1017800008010491816941F00401816180690224AA
:1017900000F0040004904FF46040CDE90004694675
:1017A00009480394FEF7F2FF4FF4E060CDE900042E
:1017B000694606480394FEF7E9FF06B010BD000035
:1017C000002C014000100240000C014000080140C4
:1017D000704770B5044690F83C000D4601280AD0C9
:1017E000012084F83C0042B1042A18D0082A2AD0EB
:1017F0000C2A4DD139E0022070BD206800F0D6FEE1
:101800002068816941F0080181612068816921F0C7
:1018100004018161206881692A69114311E020680F
:1018200000F0ECFE2068816941F40061816120686C
:10183000816921F480618161206881692A6941EAB6
:101840000221816124E0206800F004FF2068C16962
:1018500041F00801C1612068C16921F00401C16142
:101860002068C1692A69114311E0206800F01EFF59
:101870002068C16941F40061C1612068C16921F437
:101880008061C1612068C1692A6941EA0221C161A0
:10189000002084F83C0070BD10B5040003D094F81B
:1018A0003D0010B107E0012010BD002084F83C008D
:1018B000204600F01FF8022084F83D00211D20681A
:1018C00000F026FE012084F8460084F83E0084F8EB
:1018D0003F0084F8400084F8410084F8420084F816
:1018E000430084F8440084F8450084F83D0000205B
:1018F00010BD000008B500680649884208D10648B6
:10190000816941F400618161806900F400600090A8
:1019100008BD0000002C014000100240704700008C
:10192000044900680968884202D10349012008700F
:1019300070470000AC000020000000207047704796
:1019400070470000F8B5026804461068D168536912
:1019500010F00F0F4FF0000553D003F0010601F413
:10196000907737435FD0C20705D0CA0503D5226CF4
:1019700042F001022264420705D5DA0703D0226C47
:1019800042F002022264820705D5DA0703D0226CF6
:1019900042F004022264020707D501F0200232431C
:1019A00003D0226C42F008022264226C002A34D058
:1019B000800604D5880602D5204600F0F9FE20688E
:1019C0004069216CC0F38010090700D430B3204671
:1019D00000F0D6FE2068416949061BD5416921F017
:1019E00040014161A06BA8B158494163A06BFEF76B
:1019F0006FFE002811D0A06B416B01B0BDE8F04034
:101A0000084783060FD58B060DD52046BDE8F84064
:101A100000F0CEBE2046FFF793FFF8BD2046FFF74B
:101A20008FFF2564F8BD266B2023012E52D1C606F8
:101A300050D5CE064ED510685068009050694006CB
:101A40002AD5A16B086840680004000CEAD0A68D76
:101A50008642E7D9E0858869202818D0D06820F42C
:101A60008070D0602068416921F0010141612068E7
:101A7000416921F04001416184F83E3025632068CE
:101A8000C16821F01001C160A06BFEF7FDFDA08DC3
:101A9000E18D401A81B219E0A08DE18D401A81B22A
:101AA000E08D0028BED00029BCD0D06820F4907012
:101AB000D0602068426922F00102426184F83E3021
:101AC00025632068C26822F01002C2602046FFF73A
:101AD00036FFF8BD05062BD50D0629D594F83D0037
:101AE0002128F6D1A068B0F5805F01D12069B0B19E
:101AF000206A411C2162216800784860E08C401E09
:101B00000004000CE084E4D12068C16821F0800169
:101B1000C1602068C16841F04001C160F8BD206A21
:101B20000088C0F308005060206A801C2062E5E74E
:101B30004006F3D54806F1D5D168204621F0400192
:101B4000D16084F83D3000F0D0F8F8BD712700086E
:101B500070B5040004D094F83D00002510B106E0F3
:101B6000012070BD84F83C50204600F023F824206A
:101B700084F83D002068C16821F40051C16020460E
:101B800000F072FE2068016921F490410161206833
:101B9000416921F02A0141612068C16841F4005186
:101BA000C1602564202084F83D0084F83E000020B8
:101BB00070BD000030B585B00024009401940294FB
:101BC00003940068184988422BD11848C16941F430
:101BD0000031C161C16901F400310491816941F0B2
:101BE000040181618069124D00F00400049004201A
:101BF0000090022001900320039069462846FEF7DA
:101C0000C5FD0820CDE90004694628460294FEF788
:101C1000BDFD002204212620FEF74AFF2620FEF704
:101C200039FF05B030BD0000004400400010024004
:101C300000080140704700002DE9F843044690F881
:101C40003D001F4616460D4620284CD1C5B1BEB1F9
:101C500094F83C00012846D0012084F83C004FF065
:101C60000008C4F84080212084F83D00FEF780FE83
:101C7000A6848146E684A068B0F5805F03D004E0C6
:101C80000120BDE8F883206928B12E465FF00005E9
:101C900084F83C800EE00026FAE78021204600F020
:101CA0003FFEA0B9AEB116F8010B21684860E08C88
:101CB000401EE084E08C4B464FF000020097002865
:101CC000EBD14FF04001204600F02AFE30B1032056
:101CD000D7E735F8020BC0F30800E6E7202084F8C8
:101CE0003D000020CDE70220CBE77047FEE7002053
:101CF000401CC0B20A28FBD37047000030B5104822
:101D000085B0816941F0080181618069112400F08A
:101D1000080004904FF40040CDE900040125694615
:101D200003950848FEF732FD0820CDE90004694616
:101D300003950548FEF72AFD00F062F805B030BDB6
:101D40000010024000080140000C01402DE9F04164
:101D5000174FDFF86080054600244FF40046280640
:101D600001D5012200E0002208214046FEF7FBFDDC
:101D7000FFF7BDFF012231463846FEF7F4FDFFF7BD
:101D8000B6FF002231463846FEF7EDFD072C04D1A0
:101D9000012208214046FEF7E6FD6806050EFFF722
:101DA000A6FF641CE4B2082CD9D3BDE8F081000082
:101DB00000080140000C014070B50F4C01220821C1
:101DC0002046FEF7D0FD01220C4ED50329463046B1
:101DD000FEF7C9FDFFF78BFF002208212046FEF722
:101DE000C2FDFFF784FF002229463046FEF7BBFD07
:101DF000BDE87040FFF77BBF000C014000080140C8
:101E000010B50A4C002208212046FEF7ACFD012245
:101E1000D1030748FEF7A7FDFFF769FF204601221F
:101E2000BDE810400821FEF79EBD0000000C0140F7
:101E30000008014070B5114C012208212046FEF730
:101E400092FDFFF754FF01220D4ED503294630467F
:101E5000FEF789FDFFF74BFF08212046FEF776FDD0
:101E600008B1012400E00024002229463046FEF794
:101E70007AFDFFF73CFF204670BD0000000C0140DA
:101E80000008014070B50F4D002410212846FEF7D0
:101E90005DFD20B120212846FEF758FD80B90520C0
:101EA000FEF762FC10212846FEF750FD28B12021E4
:101EB0002846FEF74BFD10B102E0012400E00224A9
:101EC000204670BD00080140FEB500252148009560
:101ED00001951F49029501608915816005730124F0
:101EE0000475042606614FF460214560C0E906418F
:101EF000FEF700FB08B1FEF7BDF9CDE900546946D5
:101F000014480295FEF778FA08B1FEF7B3F90220FB
:101F1000CDE9004069460F48FEF76EFA08B1FEF7BA
:101F2000A9F9082000900320019069460948FEF7AE
:101F300063FA08B1FEF79EF90920CDE9000669466B
:101F40000448FEF759FA002801D0FEF793F9FEBDC8
:101F500000240140280000202DE9F04186B0002433
:101F600024480094019402940394816941F0200173
:101F70008161816901F020010491816941F00401CE
:101F80008161816901F004010491816941F00801D6
:101F900081618069012200F00800174FD503049089
:101FA00029463846FEF7DFFCDFF850800122782111
:101FB0004046FEF7D8FC3020CDE90004694638469B
:101FC0000294FEF7E3FB0095022601250396CDE976
:101FD000015469463846FEF7D9FB7820CDE9000563
:101FE000CDE9024669464046FEF7D0FB06B0BDE8A3
:101FF000F08100000010024000080140000C014088
:10200000094810B5074901600421416040F6FF719D
:102010008160FEF7B3FC002803D0BDE81040FEF756
:1020200029B910BD003000405800002010B592B012
:1020300000240F941C2168461094FEF77CF82021A0
:1020400007A8FEF778F828482649C0E900144FF69B
:10205000FF71C0E90241046144618461FFF71CFC27
:1020600008B1FEF707F90F940FA91F481094FFF766
:10207000E7F808B1FEF7FEF86020CDE9000402940D
:102080000394049405940022694617480694FFF7C8
:10209000A0FB08B1FEF7EEF8042269461248FFF7EC
:1020A00098FB08B1FEF7E6F8082269460E48FFF7EC
:1020B00090FB08B1FEF7DEF80794089409944FF4FA
:1020C00000500A94CDE90B4007A907480E94FFF78A
:1020D0008DF808B1FEF7CEF80348FFF73FFB12B0CA
:1020E00010BD0000002C01406400002010B586B037
:1020F00000241748009401940294039404944FF030
:102100008041059401604721C0E9011440F2E731A4
:10211000C0E9031480218161FFF7C2F808B1FEF71E
:10212000A9F84FF48050009069460948FFF72AF952
:1021300008B1FEF79FF8049404A905480594FFF739
:102140007FF8002801D0FEF795F806B010BD00001A
:10215000AC00002010B58CB024216846FDF7EBFFE1
:1021600000241748099415490A94C0E900144FF651
:10217000FF71C0E9024180210461816101200422D4
:102180000221CDE90202CDE90001CDE90602CDE947
:102190000401089069460A48FFF75FF908B1FEF7A5
:1021A00069F8099409A906480A94FFF749F8002834
:1021B00001D0FEF75FF80CB010BD00000004004035
:1021C000F40000200C4810B50A4901604FF4E131D9
:1021D0004160002181600C22C160C0E9041281616C
:1021E000C161FFF7B5FC002803D0BDE81040FEF741
:1021F00041B810BD004400403C010020FEE7FEE76E
:10220000002000F001B8000070B506465FF0000441
:1022100004F1B000C0B200F0BCFB002000F0B9FB3C
:10222000102000F0B6FB0025304600F0B7FB6D1C17
:10223000EDB2802DF8D3641CE4B2082CE8D370BD55
:1022400010B5FFF75BFD6420FEF78EFAAE2000F0BC
:10225000A0FB202000F09DFB102000F09AFBB02096
:1022600000F097FBC02000F094FB002000F091FBF1
:10227000102000F08EFB402000F08BFB812000F04E
:1022800088FBFF2000F085FBA02000F082FBA62049
:1022900000F07FFBA82000F07CFB3F2000F079FBE2
:1022A000A42000F076FBD32000F073FB002000F0A8
:1022B00070FBD52000F06DFBF02000F06AFBD92008
:1022C00000F067FB222000F064FBDA2000F061FBE5
:1022D000122000F05EFBDB2000F05BFB202000F012
:1022E00058FB8D2000F055FB142000F052FBBDE898
:1022F0001040AF2000F04DBB10B50446B031C8B25D
:1023000000F047FB102040EA141000F042FB04F0FC
:102310000F00BDE8104040F0010000F03ABB0000A3
:102320002DE9F047002591468A460446012B22D02C
:10233000DFF8BC80022B24D155E02038C7B27E2CB8
:1023400004D90AF10100002400F0FF0A514620469A
:10235000FFF7D2FF07EB4700002608EB4007B85D08
:1023600000F01CFB761CF6B2062EF8D3A41D6D1CE3
:10237000E4B2EDB201E0DFF87C8019F80500002836
:10238000DBD1BDE8F0872038C7B2782C04D90AF138
:102390000100002400F0FF0A51462046FFF7ACFF81
:1023A0005FF0000606EB071118F8010000F0F6FADE
:1023B000761CF6B2082EF5D30AF10100C1B2204610
:1023C000FFF79AFF5FF0000606EB071101EB08002C
:1023D000007A00F0E3FA761CF6B2082EF4D3083443
:1023E0006D1CE4B2EDB219F805000028CBD1C8E7A6
:1023F000663100083E2F0008704770471A4810B534
:10240000017800292ED00021017018484EF6602373
:102410000288521C92B202809A4200D30180008846
:102420000A21B0FBF1F201FB1203104A0121121D37
:1024300003B91170C823B0FBF3F403FB140303B911
:1024400011714FF4C873B0FBF3F403FB140303B929
:1024500051714FF47A73B0FBF3F403FB14000028BE
:1024600000D1917010BD0000000000201800002075
:10247000FEF7B8BA30B593B028216846FDF75BFE89
:1024800014210AA8FDF757FE00250F950920012108
:1024900010950090119512954FF48030049106919B
:1024A000CDE901050224CDE907404FF4E010099081
:1024B0006846FEF7F5FC08B172B6FEE70AA90F20E0
:1024C00081E831004FF48060CDE90D0502210AA8B2
:1024D000FEF7FAFB08B172B6FEE74FF40040119028
:1024E0000F940FA8FEF77AFB002801D072B6FEE722
:1024F00013B030BD704700000148FFF77BB8000003
:10250000AC0000200148FFF775B80000F40000207F
:1025100070B50268134B144C4FF08046984203D0BC
:10252000B04201D0A04203D122F070054A682A438C
:10253000984203D0B04201D0A04203D122F44074AB
:10254000CA6822434C6922F08002224302608A68F2
:10255000C2620A688262984201D10969016301215D
:10256000416170BD002C01400004004010B501F035
:102570001F030121046A99408C430462016A9A4056
:102580001143016210BD10B5846842EA032224F4AD
:102590007F440A432243826010BD826822F07002A9
:1025A0000A4342F0070181607047000030B5026ABB
:1025B00022F001020262026A4368846924F0730512
:1025C0000C682C4322F002058A682A430A4DA8426F
:1025D0000BD122F00805CA6823F440732A434D69E1
:1025E00022F004021D438B692B43436084614968D8
:1025F0004163026230BD0000002C014030B5026A28
:1026000022F010020262026A436884690D6824F4B1
:10261000E64444EA05248D6822F0200242EA0512CD
:102620000B4DA8420ED1CD6822F0800242EA05127D
:102630004D6923F4406343EA85038D6922F040022B
:1026400043EA85034360846149688163026230BD67
:10265000002C014030B5026A22F480720262036AE3
:102660004268C46923F4007324F073050C682C439A
:102670008D6843EA05230C4DA8420ED1CD6823F4A2
:10268000006343EA05234D6922F4405242EA0512F1
:102690008D6923F4806342EA05124260C46149688F
:1026A000C163036230BD0000002C014030B5026AF6
:1026B00022F480520262046A4268C3690D6823F4FE
:1026C000E64343EA05238D6824F4005444EA0534C4
:1026D000064DA84204D14D6922F4804242EA851297
:1026E0004260C36149680164046230BD002C01404E
:1026F00010B5036A046A24F001040462846924F0BA
:10270000F00444EA021423F00A020A4384610262DC
:1027100010BD10B5036A23F0100303628369046AD5
:1027200023F4704343EA023224F0A00343EA011188
:102730008261016210BD000010B5054C21780029AE
:1027400004D004A000F030F90020207010BD00007B
:10275000140000205B6D61696E5D696E666F3AB052
:10276000B4BCFC2564B1BBB0B4CFC20D0A0D0A00E5
:1027700010B5406A0021C185C184FFF7E1F810BDA2
:102780000168CA6822F49072CA6001684A6922F03E
:1027900001024A61016B012904D10168CA6822F073
:1027A0001002CA60202180F83E10002101637047AA
:1027B00008B590F83E10222901D0022008BD826899
:1027C0004FF480539A4201D1016921B1816A9A4242
:1027D0001BD04AB10AE00268816A5268C2F308025B
:1027E0000A80816A891C08E0026972B10268526835
:1027F00002F07F020A70816A491C8162C18D491E04
:102800000904090CC18503D019E002685268F1E798
:102810000168CA6822F02002CA600168CA6822F40E
:102820008072CA6001684A6922F001024A6120216F
:1028300080F83E10016B012903D0FFF7FBF900205F
:1028400008BD002101630168CA6822F01002CA6055
:1028500001680A68D20602D50A6849680091818D2C
:10286000FFF76DF8EBE7000070B5044600680169FA
:10287000E26821F44051114301612169A0680843D5
:10288000616908432168CA6841F20C639A430243B4
:10289000CA6020684169A26921F440711143416115
:1028A0001E492068884202D1FEF7B4FA01E0FEF723
:1028B000A1FA00EBC00101EB001260686421800006
:1028C000B2FBF0F3B3FBF1F36FF018067343B2FB06
:1028D000F0F5B2FBF0F605EB8305322303EB0515AB
:1028E000B5FBF1F5B6FBF1F605F0F00505EB0615C5
:1028F000B2FBF0F6B2FBF0F0B0FBF1F06FF01802B3
:10290000504306EB800003EB0010B0FBF1F02168B0
:1029100000F00F002844886070BD000000380140BE
:102920002DE9F041984617460E460446069D1DE0E7
:10293000681C1BD02DB1FEF71BF8A0EB0800A842C5
:1029400014D92068C16821F4D071C1602068416940
:1029500021F001014161202084F83D0084F83E000F
:10296000002084F83C000320BDE8F0812068006866
:1029700036EA000004D00020B842D9D00020F3E7A6
:102980000120F9E70148FEF7DDBF00003C0100200F
:10299000FEE7024600217A2000F04CB902464021B1
:1029A0007A2000F047B900000FB4054B10B503A919
:1029B000044A029800F028F810BC5DF814FB0000EF
:1029C0005D2B0008240000200907090E002804DB05
:1029D00000F1E02080F80014704700F00F0000F1D3
:1029E000E02080F8141D704702E008C8121F08C1DB
:1029F000002AFAD170477047002001E001C1121F80
:102A0000002AFBD1704700002DE9FF4F89B09B469B
:102A10000446002506E025280BD05A460B9990471E
:102A2000641C6D1C20780028F5D10DB02846BDE847
:102A3000F08F0027B8460122474900E0074314F809
:102A4000013F203B02FA03F00842F7D120782E28FC
:102A500019D114F8010F47F004072A280ED06FF09F
:102A60002F022078A0F1300109290CD808EB880149
:102A700002EB410100EB0108641CF2E70A98641CB8
:102A800050F8048B0A9020780028CED0642808D013
:102A9000692806D075281ED05A460B9990476D1CA0
:102AA00058E00A994FF00A0901C90A91002802DA90
:102AB00040422D2102E0390504D52B218DF820104C
:102AC000012103E0F90704D02021F7E78A4608AE88
:102AD0000DE00021FAE70A994FF00A0901C90A91AD
:102AE000F7E74946FDF732FB303106F8011D0028B3
:102AF000F7D1ADEB060000F12009780701D44FF0C3
:102B00000108C84502DDA8EB090000E0002080466E
:102B1000002706E008A85A46C05D0B9990476D1C37
:102B20007F1C5745F6DB04E030205A460B9990474E
:102B30006D1CB8F10001A8F10108F5DC05E016F8FC
:102B4000010B5A460B9990476D1CB9F10001A9F190
:102B50000109F4DC641C65E70928010038B5044666
:102B60008DF800000223012269460248FFF764F84D
:102B7000204638BD3C010020FDF73CFFFFF77AFC02
:102B8000FFF7EAF9FFF7E6FAFFF79EF9FFF74EFACB
:102B9000FFF718FBFFF734FAFFF7A8FA1148FEF722
:102BA000C9FB3C211048FEF7DDFC1048FDF7B8FBDF
:102BB000002240210E48FDF7D6FEFFF741FBFFF74C
:102BC0001FFB01230BA204211020FFF7A9FB10A07B
:102BD000FFF7EAFEFFF714FAFFF710FC1448FDF7C1
:102BE0004BFBF9E7AC000020F40000202800002097
:102BF000000C014053595320696E6974207375634A
:102C000063656564656420202020202000000000AA
:102C10005B6D61696E5D696E666F3ACFB5CDB3B3BA
:102C2000F5CABCBBAFB3C9B9A6A3A10D0A00000089
:102C30001C00002070B515460E460446FFF7BCF890
:102C40002046FFF783F8FFF7F5F83046FFF77EF8E8
:102C5000FFF7F0F82846FFF779F8FFF7EBF8BDE843
:102C60007040FFF7CDB80000000000000000010236
:102C70000304060708090000000001020304000025
:102C800022322AA6A262211109810100000000421D
:102C900022130B42827E02020A12234600002030D9
:102CA000AC63300088C8A8998E88A8C888002267BD
:102CB0002212128040300F00003F4040710008088F
:102CC00089EA1888000404FC040404FC00000201E2
:102CD00000FF0186402018074080403F0000101090
:102CE000F01F10F00040E05847405060C000402204
:102CF000150816210000FE42424242FE00000080FC
:102D000060F807000000FF402010080400000100E8
:102D100000FF000402013F404040404078000000B6
:102D2000F010101010FF10101010F0000000000044
:102D30000F04040404FF040404040F0000001060E6
:102D4000028C0000FE9292929292FE000000040417
:102D50007E01407E42427E427E42427E40001060C2
:102D6000028C00FE929292929292FE000000040465
:102D70007E014448507F40407F504844400000005E
:102D8000FC242424FC252624FC2424240400403094
:102D90008F80844C55252525554C8080800000006F
:102DA000800000E002041800000040800000100CC9
:102DB0000300003F40404040407800010E000014F6
:102DC000A4442434AD6624940444A41400000809E7
:102DD0000808090909FD09090B080809080000008D
:102DE000F80808F80C0B08F80808F8000000404044
:102DF0007F40407F4040407F40407F40400008246B
:102E0000236AAA2AAA6A2A2A2AEA020200001011C0
:102E1000151515FF15151511100F3040F800048415
:102E2000E45C44C42010E82724E4342CE0000201D0
:102E30007F10103F80601F09093F49897F00100CF7
:102E40004444444445C64444444444140C00804033
:102E5000201E2040407F444444444440400002023D
:102E6000FE929292FE0206FC040404FC0000081884
:102E70000F080804FF0484402718274080001060D2
:102E8000020CC000E22C203F2028E60000000404D1
:102E90007C030000FF09090949897F000000060939
:102EA00009E6F80C040202020202041E00000000FF
:102EB00000071F302040404040402010000080703C
:102EC00000FF1008FE424242FA424242FE00806089
:102ED00018070810FF50484641424C40FF00100CB4
:102EE000055555D5057F0555555505140C00101091
:102EF000108AA96B352525ABE908101010000002D7
:102F000002F2121212F2020202FE0202020000009B
:102F1000000F0404040F0040807F00000000807058
:102F200000FF10289827C43C907F90121400806006
:102F300018070898640328C621C01126C80000009D
:102F4000000000000000002F000000000700070044
:102F500000147F147F1400242A7F2A120062640860
:102F600013230036495522500000050300000000DD
:102F70001C224100000041221C000014083E0814DD
:102F80000008083E0808000000A0600000080808CB
:102F90000808000060600000002010080402003EE5
:102FA0005149453E0000427F400000426151494680
:102FB000002141454B31001814127F100027454570
:102FC0004539003C4A494930000171090503003682
:102FD0004949493600064949291E00003636000095
:102FE000000056360000000814224100001414149A
:102FF0001414000041221408000201510906003295
:103000004959513E007C1211127C007F49494936D2
:10301000003E41414122007F4141221C007F49493D
:103020004941007F09090901003E4149497A007F71
:103030000808087F0000417F4100002040413F0117
:10304000007F08142241007F40404040007F020C76
:10305000027F007F0408107F003E4141413E007F17
:1030600009090906003E4151215E007F09192946E0
:103070000046494949310001017F0101003F4040BC
:10308000403F001F2040201F003F4038403F00636A
:10309000140814630007087008070061514945438C
:1030A00000007F41410000552A552A55000041414A
:1030B0007F00000402010204004040404040000044
:1030C00001020400002054545478007F48444438DE
:1030D00000384444442000384444487F0038545465
:1030E000541800087E0901020018A4A4A47C007FE3
:1030F000080404780000447D4000004080847D0086
:10310000007F102844000000417F4000007C04182C
:103110000478007C0804047800384444443800FCF7
:10312000242424180018242418FC007C0804040813
:1031300000485454542000043F444020003C404088
:10314000207C001C2040201C003C4030403C0044BF
:1031500028102844001CA0A0A07C004464544C44C7
:1031600014141414141400000000000000000000E7
:10317000000000000000000000F800000000000057
:1031800000333000000000100C06100C0600000098
:1031900000000000000040C07840C0784000043FBC
:1031A00004043F040400007088FC0830000000188C
:1031B00020FF211E0000F008F000E01800000021B0
:1031C0001C031E211E0000F00888700000001E2154
:1031D00023241927211010160E0000000000000003
:1031E000000000000000000000E0180402000000E1
:1031F00000071820400000020418E0000000004012
:10320000201807000000404080F08040400002028B
:10321000010F01020200000000F0000000000101A7
:10322000011F01010100000000000000000080B04B
:10323000700000000000000000000000000000011D
:103240000101010101010000000000000000003048
:1032500030000000000000000000806018040060E2
:1032600018060100000000E010080810E000000F40
:10327000102020100F00001010F8000000000020A7
:10328000203F2020000000700808088870000030EF
:103290002824222130000030088888483000001897
:1032A000202020110E000000C02010F800000007B0
:1032B0000424243F240000F8088888080800001926
:1032C000212020110E0000E0108888180000000F57
:1032D000112020110E0000380808C838080000002E
:1032E000003F000000000070880808887000001C83
:1032F000222121221C0000E010080810E00000003C
:10330000312222110F00000000C0C00000000000A8
:1033100000303000000000000080000000000000CD
:1033200080600000000000008040201008000001C4
:103330000204081020004040404040404000040487
:103340000404040404000008102040800000002051
:10335000100804020100007048080808F00000008E
:10336000003036010000C030C828E810E00007181F
:10337000272423140B000000C038E0000000203C8C
:1033800023020227382008F8888888700000203F30
:10339000202020110E00C030080808083800071847
:1033A00020202010080008F808080810E000203F3E
:1033B000202020100F0008F88888E8081000203F1F
:1033C00020202320180008F88888E8081000203FF3
:1033D000200003000000C03008080838000007186B
:1033E0002020221E020008F808000008F808203FEC
:1033F000210101213F20000808F8080800000020F2
:10340000203F2020000000000808F8080800C080C5
:1034100080807F00000008F888C028180800203F3E
:1034200020012638200008F8080000000000203F96
:1034300020202020300008F8F800F8F80800203F8D
:10344000003F003F200008F830C00008F808203F87
:10345000200007183F00E01008080810E0000F10D7
:10346000202020100F0008F808080808F000203F6E
:10347000210101010000E01008080810E0000F1809
:10348000242438504F0008F8888888887000203F2E
:103490002000030C3020007088080808380000382D
:1034A000202121221C00180808F808081800000034
:1034B000203F2000000008F808000008F808001F5E
:1034C000202020201F000878880000C8380800004D
:1034D00007380E010000F80800F80008F800033C67
:1034E0000700073C0300081868808068180820302F
:1034F0002C03032C30200838C800C838080000000E
:10350000203F2000000010080808C83808002038B4
:10351000262120201800000000FE02020200000008
:10352000007F40404000000C30C000000000000060
:1035300000010638C00000020202FE000000004048
:1035400040407F000000000004020202040000006E
:10355000000000000000000000000000000080806B
:103560008080808080800002020400000000000053
:103570000000000000000000808080800000001932
:10358000242222223F2008F8008080000000003F13
:10359000112020110E000000008080800000000E2D
:1035A000112020201100000000808088F800000E0B
:1035B000112020103F200000808080800000001F2C
:1035C000222222221300008080F0888888180020A0
:1035D000203F202000000000808080808000006B61
:1035E00094949493600008F8008080800000203F4D
:1035F000210000203F20008098980000000000205B
:10360000203F20200000000000809898000000C0AB
:103610008080807F000008F8000080808000203FCC
:1036200024022D302000000808F8000000000020CF
:10363000203F202000008080808080808000203F0C
:1036400020003F20003F8080008080800000203FDD
:10365000210000203F200000808080800000001FAB
:10366000202020201F00808000808000000080FF3C
:10367000A12020110E000000008080808000000E3C
:10368000112020A0FF80808080008080800020208A
:103690003F212000010000008080808080000033F6
:1036A000242424241900008080E080800000000091
:1036B000001F202000008080000000808000001F8C
:1036C000202020103F20808080000080808000012A
:1036D0000E300806010080800080008080800F305E
:1036E0000C030C300F0000808000808080000020E0
:1036F000312E0E312000808080000080808080810B
:103700008E7018060100008080808080800000217B
:10371000302C2221300000000000807C02020000DA
:103720000000003F404000000000FF0000000000DB
:103730000000FF0000000002027C8000000000404A
:10374000403F0000000000060101020204040000E6
:103750000000000000000000783700080000002092
:1037600028000000E8290008A037000828000020F1
:1037700058050000F82900080000000001000000C2
:1037800010000000000000000024F4000000000011
:103790000000000000000000000000000000000029
:04000005080000ED02
:00000001FF
