:020000040800F2
:1000000068050020050100080F1E0008091B0008F4
:100010000D1E000845020008DD2200080000000057
:10002000000000000000000000000000131E000897
:100030004702000800000000111E0008151E0008FD
:100040001F0100081F0100081F0100081F01000810
:100050001F0100081F0100081F0100081F01000800
:100060001F0100081F0100081F0100081F010008F0
:100070001F0100081F0100081F0100081F010008E0
:100080001F0100081F0100081F0100081F010008D0
:100090001F0100081F0100081F0100081F010008C0
:1000A0001F0100081F0100081F0100081F010008B0
:1000B0009D1E0008A91E0008000000001F01000886
:1000C0001F01000800000000000000001F010008E0
:1000D000000000001F010008D122000800000000FD
:1000E0001F0100081F0100081F010008DFF810D0E1
:1000F00000F02CF8004800476D230008AFF30080A3
:10010000680500200648804706480047FEE7FEE7EE
:10011000FEE7FEE7FEE7FEE7FEE7FEE7FEE7FEE7B7
:100120009B1E0008ED000008D2B201E000F8012B90
:10013000491EFBD270470022F6E710B513460A4667
:1001400004461946FFF7F0FF204610BD064C074D48
:1001500006E0E06840F0010394E807009847103497
:10016000AC42F6D3FFF7C6FF082400082824000895
:1001700070B5044600688168C943C90717D1816812
:1001800021F00101816000F07DFB05460AE000BF1F
:1001900000F078FB401B022804D920688068C04327
:1001A000C00706D020688068C043C007F0D0002098
:1001B00070BDA06A40F01000A062E06A40F001004B
:1001C000E062012070BD0000F8B5002604460096EC
:1001D00000688168C943C9072DD0816841F00101D9
:1001E0008160164816490068B0FBF1F000E0401E3F
:1001F00000900028FBD100F045FB054616E000BF4B
:1002000000F040FB401B022810D920688068C043E2
:10021000C0070BD0A06A40F01000A062E06A40F076
:100220000100E06284F824600120F8BD2068806845
:10023000C043C007E4D10020F8BD0000100000203A
:1002400040420F00FEE7704772B6FEE7F8B50025A2
:100250000446009590F82400012808D0012084F875
:1002600024002046FFF784FF060002D053E002205E
:10027000F8BDA06A20F4885040F00200A06202207D
:1002800000F09EFB26490968B1FBF0F0400000E059
:10029000401E00900028FBD12046FFF795FF206804
:1002A000816841F00801816000F0ECFA074608E03F
:1002B00000F0E8FAC01B0A2803D92068806800070C
:1002C00015D4206880680007F2D42068816841F066
:1002D0000401816000F0D6FA074612E000F0D2FA7D
:1002E000C01B0A280DD920688068400709D5A06A7C
:1002F00020F0020040F01000A06284F82450012099
:10030000F8BD206880684007E8D4A06A20F00200A9
:1003100040F00100A06284F824503046F8BD00008F
:1003200010000020F8B50024009490F82420254601
:10033000012A12D0012280F824204A681F23072AAC
:100340000DD20668776B521E02EB820293409F43E8
:100350000B6893401F43776319E00220F8BD0668DD
:100360000D2A0AD2376BD21F02EB820293409F43C1
:100370000B6893401F43376309E0F76A0D3A02EBBD
:10038000820293409F430B6893401F43F7620A68C1
:10039000072306680A2A0AD3F7680A3A02EB4202E0
:1003A00093409F438B6893401F43F76008E0376991
:1003B00002EB420293409F438B6893401F43376197
:1003C0000A68102A01D0112A20D1124B02689A42E1
:1003D00017D193681B0219D4936843F40003936008
:1003E0000968102912D10C490C4A0968B1FBF2F1D5
:1003F00001EB8101490000E0491E00910029FBD179
:1004000004E0816A41F020018162012480F82450D7
:100410002046F8BD002401401000002040420F009B
:100420002DE9F0414FF0000704003D467ED0A06A60
:10043000002628B9E66284F82460204600F07EF8A1
:100440002046FFF795FEA16AC90600D420B1A06A34
:1004500040F01000A06269E0A16A21F4885141F0E7
:100460000201A1626268E169237B0A4347EA430112
:100470000A43A1684FF48077B94209D0012907D017
:100480005FF0000194F814C0BCF1010F02D00AE043
:100490003946F7E7F3B1A36A43F02003A362E36AA6
:1004A00043F00103E3622368D3F804C02CF4694CE1
:1004B0004CEA010CC3F804C021688B68DFF870C0F7
:1004C00003EA0C0313438B60A168B9420BD00129E6
:1004D00009D00CE0DFF85CC0A3690CEB43330B439D
:1004E00043F40061DFE7218A0D05A5F58015216839
:1004F000CB6A23F470032B43CB62216889680E4BCF
:100500001940914208D1E662A16A21F0020141F04E
:100510000101A162BDE8F081A06A20F0020040F074
:100520001000A062E06A40F00100E0620120F1E703
:10053000FDF7E1FF00E0FFFFFE0E1FFF10B586B0E4
:1005400000210091019102910391006815498842B0
:1005500025D11548816941F400718161816901F4F7
:1005600000710491816941F004018161816901F0A8
:1005700004010491816941F00801816180690324CB
:1005800000F008000490009469460194074800F0C8
:1005900093F8009469460648019400F08DF806B07F
:1005A00010BD00000024014000100240000801407E
:1005B000000C014010B590F821100022022905D04E
:1005C0000421816380F82020012010BD01680B68A0
:1005D00023F00E030B6001680B6823F001030B602E
:1005E00090F84030C46B012101FA03F3636080F896
:1005F000211080F82020104610BD000010B590F8A2
:1006000021100024022903D00421816301243DE04C
:1006100001680A6822F00E020A6001680A6822F086
:1006200001020A601A4A0168914201D1012121E0C8
:10063000174A1432914201D110211BE0144A28328A
:10064000914201D1891515E0114A3C32914201D104
:1006500089140FE00E4A5032914202D14FF480319A
:1006600008E00B4A6432914202D14FF4801101E05C
:100670004FF08071064A083A5160012180F821103C
:10068000002180F82010416B01B18847204610BD41
:100690000800024070B5044600F0F4F80546601CFE
:1006A00002D004480078044400F0ECF8401BA0425B
:1006B000FAD370BD040000202DE9F84FDFF89C91BB
:1006C000002409F1040A0AF1040B23460F270BF159
:1006D000040EBBE00125A5402A40AA4276D1DFF8EE
:1006E00080C14E68A6EB0C0866452BD00DDC032EAE
:1006F00034D005DC36B3012E19D0022E2FD11BE0E9
:10070000112E16D0122E2AD119E0B8F5881F19D053
:1007100006DCB8F5803F15D0B8F5801F1FD111E079
:10072000B8F5001F0ED0B8F5041F18D10AE0CB6849
:1007300015E0CB681B1D12E0CB6808330FE0CB68D7
:100740000C330CE08B682BB1012B4FF0080303D066
:10075000456104E0042302E0056100E00023FF2A74
:1007600001D8064601E000F104064FEA840501D9EC
:10077000A5F12005D6F8008007FA05FC28EA0C0848
:1007800003FA05F548EA0508C6F800804D68ED0053
:100790005BD5344DAE6946F00106AE61AD6924F01B
:1007A000030605F0010500952F4D06EB050CDCF85E
:1007B0000850A607360F07FA06F825EA0805DFF8FD
:1007C000AC80404503D14FF0000810E03DE0DFF879
:1007D000A080404502D14FF0010808E0DFF8948086
:1007E000404502D14FF0020801E04FF0030808FA3B
:1007F00006F848EA0508CCF808804D68D9F800608A
:10080000ED034D4601D5164300E096432E604D683A
:10081000DAF80060AD03554601D5164300E0964373
:100820002E604D68DBF80060ED025D4601D5164391
:1008300000E096432E604D68DEF80060AD0275461C
:1008400001D5164300E096432E60641C0A6832FA14
:1008500004F57FF43FAFBDE8F88F000000040140CD
:10086000000011100010024000000140000801408B
:10087000000C0140001001400AB1016170470904F9
:10088000FBE700000148806870470000040000207A
:10089000024881680278114481607047040000209A
:1008A000074810B5016841F010010160032000F015
:1008B00075F80F2000F006F800F024F8002010BDB5
:1008C0000020024070B50D4D04464FF47A7128782F
:1008D000B1FBF0F00A490968B1FBF0F000F0C6FB8B
:1008E00048B9102C07D200222146501E00F036F8DD
:1008F00000206C6070BD012070BD0000040000206D
:10090000100000200C4808B5816941F001018161A7
:10091000816901F001010091C16941F08051C1611B
:10092000C06900F0805000900448416821F0E06107
:1009300041F00071416008BD00100240000001401C
:10094000002809DB00F01F020121914040098000CE
:1009500000F1E020C0F8001170470000F0B40E4B29
:100960001B680C46C3F30223C3F10705042D00D90D
:100970000425191D072901D2002300E0DB1E0126F2
:1009800006FA05F1491E214099409E40761E164008
:100990003143F0BC01F0ACBC0CED00E0064900F0C6
:1009A000070208684FF6FF03184040EA0220034A96
:1009B00010430860704700000CED00E00000FA05ED
:1009C00010B529A401461DCC86B08DE81D002AA0D3
:1009D0002A4C006804900020012923D002293AD033
:1009E00010291DD161682268D20119D5C1F3834253
:1009F000C9031DF8020009D5616804AAC1F340418A
:100A0000515C1F4AB2FBF1F1484301E01D494843E4
:100A10006168490204D440005FF00301B0FBF1F0CB
:100A200006B010BD226AC2F30121012903D1920749
:100A300001D5C803F4E7022905D1626A920702D5FD
:100A400049F64040ECE70329EAD121688903E7D55C
:100A50004FF22440E4E700F033F96168C1F38131DB
:100A6000491C4900DAE700000203040506070809EB
:100A70000A0B0C0D0E0F10100102000000100240B6
:100A800000127A0000093D002DE9F8430546007880
:100A9000354CC00754D0E0690026C00008D4E06996
:100AA00040F08050E061E069012600F08050009045
:100AB0002E480168C90512D40168804641F480714E
:100AC0000160FFF7DFFE074605E000BFFFF7DAFE33
:100AD000C01B642823D8D8F80000C005F6D5206ACA
:100AE00010F4407021D0A98801F4407181421CD0DB
:100AF000206A1F49012220F440700A6000220A6027
:100B00002062C00711D0FFF7BDFE074641F28838CA
:100B100008E000BFFFF7B6FEC11B414502D9032024
:100B2000BDE8F883206A8007F4D5206A696820F45C
:100B30004070084320621EB1E06920F08050E061FF
:100B40002878800705D56068A96820F440400843EC
:100B500060602878C00605D56068E96820F48000E8
:100B6000084360600020DBE7001002400070004096
:100B7000400442422DE9F0470F46050061D0434E44
:100B8000306800F00700B84209D2306820F0070052
:100B900038433060306800F00700B84251D128680F
:100BA0003B4C810712D5400703D5606840F4E060F4
:100BB00060602878000703D5606840F4605060608A
:100BC0006068A96820F0F000084360602878C007DA
:100BD00028D06868012810D02168022810D0890721
:100BE00000292EDA616821F0030101436160FFF7FB
:100BF00049FE804641F288390DE021688903EFE71C
:100C00008901EDE7FFF73EFEA0EB0801494502D957
:100C10000320BDE8F0876068696800F00C00B0EB65
:100C2000810FEFD1306800F00700B8420BD930686F
:100C300020F0070038433060306800F00700B84209
:100C400001D00120E5E72878400705D56068E9680C
:100C500020F4E060084360602878000706D56068EB
:100C6000296920F4605040EAC100606000F038F863
:100C70006168084AC1F30311515CC8400649086025
:100C800006480068FFF71EFE0020C2E70020024071
:100C900000100240F023000810000020080000208F
:100CA0000448054900684968044AC1F30221515CBF
:100CB000C8407047100000200010024000240008C7
:100CC0000448054900684968044AC1F3C221515CDF
:100CD000C8407047100000200010024000240008A7
:100CE00012A185B00FC98DE80F0014A0144A006846
:100CF00004905168134801F00C03042B10D0082B0A
:100D00000ED1C1F38343C9031DF803000AD551680E
:100D100004AAC1F34041515C0A4A5043B0FBF1F0D0
:100D200005B0704708494843FAE70000020304058C
:100D3000060708090A0B0C0D0E0F10100102000027
:100D40000010024000127A0000093D002DE9F84F22
:100D5000040070D02078C04DC00749D06868C0F347
:100D60008100012807D06868C0F38100022809D1FA
:100D70006868C00306D52868800339D560680028F4
:100D8000E7D035E06068B0F5803F0BD010B1B0F52A
:100D9000A02F11D0286820F480302860286820F423
:100DA000802002E0286840F480302860606890B1BC
:100DB000FFF768FD06460AE0286840F480202860B6
:100DC000F0E700BFFFF75EFD801B642873D828683A
:100DD0008003F7D50CE0FFF755FD064605E000BFA0
:100DE000FFF750FD801B6428F0D828688003F7D4F3
:100DF00020789A4E80074FF001094FF0000839D54E
:100E0000686810F00C0F07D06868C0F381000228F2
:100E100009D16868C00306D42868800714D5206902
:100E2000012808D110E02069B0B1C6F80090FFF7A2
:100E300029FD074605E00AE1FFF724FDC01B022853
:100E4000C4D828688007F7D52868616920F0F800C1
:100E500040EAC10028600DE0C6F80080FFF712FDEF
:100E6000074604E0FFF70EFDC01B022823D82868C0
:100E70008007F7D4207800072CD57948A169D9B12B
:100E8000C0F80090FFF7FEFC074604E0FFF7FAFC0D
:100E9000C01B02280FD8686A8007F7D571484FF445
:100EA000FA510068B0FBF1F0009000BF0098411EBD
:100EB0000091FAD20EE080E0C0F80080FFF7E2FC7B
:100EC000074604E0FFF7DEFCC01B022875D8686AFD
:100ED0008007F7D42078400760D5E8690027C00074
:100EE00008D4E86940F08050E861E869012700F023
:100EF000805000905C480168C90513D4016883469E
:100F000041F480710160FFF7BDFC824606E000BF3E
:100F1000FFF7B8FCA0EB0A0064284ED8DBF800000D
:100F2000C005F5D5E06801280AD008B1052813D01E
:100F3000286A20F001002862286A20F0040002E0FC
:100F4000286A40F001002862E06841F2883B98B1CD
:100F5000FFF798FC82460BE0286A40F00400286204
:100F6000EEE700BFFFF78EFCA0EB0A0159455AD807
:100F7000286A8007F6D50CE0FFF784FC824605E07E
:100F8000FFF780FCA0EB0A0159454CD8286A80077E
:100F9000F6D41FB1E86920F08050E861E06988B3B9
:100FA0006968C1F38101022944D00228C6F8608033
:100FB00004D0FFF767FC044638E034E0FFF762FC3A
:100FC000074604E0FFF75EFCC01B02282BD8286808
:100FD0008001F7D4206AB0F5803F05D16868A16828
:100FE00020F4003008436860D4E9080108436968C8
:100FF00021F4741108436860C6F86090FFF742FC62
:10100000044606E025E000BFFFF73CFC001B022879
:1010100009D828688001F7D51BE000BFFFF732FC34
:10102000001B022802D90320BDE8F88F2868800140
:10103000F4D40EE00128F7D06868226A00F4803109
:10104000914204D1616A00F47010884201D00120FD
:10105000EAE70020E8E700000010024000004242FA
:1010600080044242100000200070004010B5401E75
:10107000B0F1807F01D3012010BD4FF0E02460610A
:101080000F21601701F034F90020A06107202061D2
:10109000002010BD7047704710B590F83C20012A21
:1010A00022D0012280F83C20CA688C6822F4407269
:1010B00022434C6822F4806222430C6822F40062CE
:1010C00022430C6922F4805222434C6922F40052DC
:1010D0002243C969002322F480420A4301684A641A
:1010E00080F83C30002010BD022010BD70B590F893
:1010F0003C20012A23D0012480F83C40022280F8C1
:101100003D2003685A689D6822F070060A683243E1
:101110005A600C4B02689A4205D0B2F1804F02D05F
:10112000094B9A4204D1496825F080031943916024
:1011300080F83D40002180F83C10084670BD022038
:1011400070BD0000002C01400004004010B50400F8
:1011500003D094F83D0010B107E0012010BD00203D
:1011600084F83C00204600F01FF8022084F83D007F
:10117000211D206800F09EFE012084F8460084F8BE
:101180003E0084F83F0084F8400084F8410084F871
:10119000420084F8430084F8440084F8450084F851
:1011A0003D00002010BD000008B50068B0F1804F80
:1011B00012D10A48C16941F00101C161C069002230
:1011C00000F00100009011461C20FFF7C7FBBDE8AE
:1011D00008401C20FFF7B4BB08BD0000001002400F
:1011E00090F83D10012901D001207047022180F8BC
:1011F0003D100168CA6842F00102CA6000680A49ED
:10120000884205D0B0F1804F02D00849884204D10D
:10121000816801F00701062903D0016841F001014E
:101220000160002070470000002C014000040040D5
:1012300070B5044690F83C00012817D0012584F8C9
:101240003C50022084F83D002068826822F077023A
:1012500022F47F4282600868502830D00DDC2028BC
:101260004DD005DC98B310283BD148E0022070BD7A
:10127000302844D0402834D139E0602828D0702864
:1012800006D0B0F5805F2CD0B0F5005F29D10AE020
:10129000CB68D1E90121206800F03AFE206881681E
:1012A00041F0770109E0CB68D1E90121206800F025
:1012B0002FFE2068816841F48041816011E0CA6896
:1012C0004968206800F0D8FE5021206807E016E049
:1012D000CA684968206800F0E0FE6021206800F0DC
:1012E00021FE84F83D50002084F83C0070BDCA689F
:1012F0004968206800F0C0FE40212068EFE72268BE
:1013000001461046EBE72DE9F0410D46040003D0FD
:1013100094F83D0018B108E00120BDE8F0810020FC
:1013200084F83C00204600F041F8022084F83D009B
:101330002068816844F2070291438160211D206882
:1013400000F0B8FD226890689169166A2B68AF6951
:10135000034340F20330814341EA0721A868EF6963
:1013600008434FF6FC418843E96840EA07200143FF
:1013700028692F6A000140EA0730084369686D69EF
:1013800026F0220646EA05152943936022689061FB
:1013900054F8460B0162012004F81F09E07520761D
:1013A000E0762077A0750020B7E7000000B585B093
:1013B0000021009101910291039100681149884236
:1013C0001ED11148C16941F00201C161C16901F03A
:1013D00002010491816941F00401816180696946DB
:1013E00000F004000490C02000900848FFF764F962
:1013F000002205211D20FFF7B1FA1D20FFF7A0FAFA
:1014000005B000BD0004004000100240000801408B
:10141000704770B50446006801694FF00005C94384
:10142000890715D4C168C943890711D4E91E016130
:1014300001202077206880698007204602D0FFF7CE
:10144000E7FF04E000F0D2F8204600F075F92577B8
:1014500020680169C943490717D4C168C9434907CE
:1014600013D46FF0040101610220207720688069A5
:1014700010F4407F204602D0FFF7CAFF04E000F0DE
:10148000B5F8204600F058F9257720680169C9436E
:10149000090716D4C168C943090712D46FF00801BF
:1014A0000161042020772068C0698007204602D0AF
:1014B000FFF7AEFF04E000F099F8204600F03CF999
:1014C000257720680169C943C90617D4C168C94393
:1014D000C90613D46FF0100101610820207720683D
:1014E000C06910F4407F204602D0FFF791FF04E06E
:1014F00000F07CF8204600F01FF92577206801698C
:10150000C943C90708D1C168C943C90704D1891EA5
:101510000161204600F012F920680169C9430906FB
:1015200009D4C168C943090605D46FF0800101617F
:101530002046FFF7AFFD20680169C943490609D479
:10154000C168C943490605D46FF0400101612046D6
:1015500000F002F920680169C94389060BD4C1680B
:10156000C943890607D46FF0200101612046BDE818
:101570007040FFF790BD70BD10B586B0002100919E
:1015800001910291039100681449884223D11448C3
:10159000816941F008018161816901F008010491CC
:1015A000816941F0040181618069022400F0040036
:1015B00004904FF46040CDE9000469460948039463
:1015C000FFF77AF84FF4E060CDE900046946064879
:1015D0000394FFF771F806B010BD0000002C014025
:1015E00000100240000C014000080140704770B537
:1015F000044690F83C000D4601280AD0012084F8EA
:101600003C0042B1042A18D0082A2AD00C2A4DD115
:1016100039E0022070BD206800F08CFC20688169F0
:1016200041F0080181612068816921F00401816134
:10163000206881692A69114311E0206800F0A2FC4A
:101640002068816941F4006181612068816921F429
:1016500080618161206881692A6941EA0221816192
:1016600024E0206800F0BAFC2068C16941F008015C
:10167000C1612068C16921F00401C1612068C169AC
:101680002A69114311E0206800F0D4FC2068C16988
:1016900041F40061C1612068C16921F48061C161C8
:1016A0002068C1692A6941EA0221C161002084F8E9
:1016B0003C0070BD10B5040003D094F83D0010B19B
:1016C00007E0012010BD002084F83C00204600F017
:1016D0001FF8022084F83D00211D206800F0EAFB7D
:1016E000012084F8460084F83E0084F83F0084F826
:1016F000400084F8410084F8420084F8430084F8F4
:10170000440084F8450084F83D00002010BD00002E
:1017100008B500680649884208D10648816941F445
:1017200000618161806900F40060009008BD0000E4
:10173000002C01400010024070470000044900687E
:101740000968884202D103490120087070470000EF
:101750009000002000000020704770477047000094
:10176000F8B5026804461068D168536910F00F0F8D
:101770004FF0000553D003F0010601F49077374392
:101780005FD0C20705D0CA0503D5226C42F0010222
:101790002264420705D5DA0703D0226C42F0020228
:1017A0002264820705D5DA0703D0226C42F00402D6
:1017B0002264020707D501F02002324303D0226CD5
:1017C00042F008022264226C002A34D0800604D53C
:1017D000880602D5204600F092FC20684069216C02
:1017E000C0F38010090700D430B3204600F06FFC2E
:1017F0002068416949061BD5416921F040014161DA
:10180000A06BA8B158494163A06BFEF7F7FE002812
:1018100011D0A06B416B01B0BDE8F04008478306D2
:101820000FD58B060DD52046BDE8F84000F067BC0B
:101830002046FFF793FFF8BD2046FFF78FFF256492
:10184000F8BD266B2023012E52D1C60650D5CE06F8
:101850004ED5106850680090506940062AD5A16B9B
:10186000086840680004000CEAD0A68D8642E7D9DB
:10187000E0858869202818D0D06820F48070D06076
:101880002068416921F0010141612068416921F02E
:101890004001416184F83E3025632068C16821F031
:1018A0001001C160A06BFEF785FEA08DE18D401A8E
:1018B00081B219E0A08DE18D401A81B2E08D00283F
:1018C000BED00029BCD0D06820F49070D0602068D1
:1018D000426922F00102426184F83E3025632068AB
:1018E000C26822F01002C2602046FFF736FFF8BD42
:1018F00005062BD50D0629D594F83D002128F6D1F3
:10190000A068B0F5805F01D12069B0B1206A411CA8
:101910002162216800784860E08C401E0004000CC1
:10192000E084E4D12068C16821F08001C1602068B2
:10193000C16841F04001C160F8BD206A0088C0F371
:1019400008005060206A801C2062E5E74006F3D55D
:101950004806F1D5D168204621F04001D16084F8D5
:101960003D3000F0D0F8F8BDBF20000870B504008D
:1019700004D094F83D00002510B106E0012070BDB0
:1019800084F83C50204600F023F8242084F83D00E1
:101990002068C16821F40051C160204600F00AFCB3
:1019A0002068016921F4904101612068416921F0BA
:1019B0002A0141612068C16841F40051C160256479
:1019C000202084F83D0084F83E00002070BD000017
:1019D00030B585B00024009401940294039400680B
:1019E000184988422BD11848C16941F40031C161BE
:1019F000C16901F400310491816941F00401816100
:101A00008069124D00F00400049004200090022030
:101A100001900320039069462846FEF74DFE0820FA
:101A2000CDE90004694628460294FEF745FE0022EF
:101A300004212620FEF792FF2620FEF781FF05B045
:101A400030BD00000044004000100240000801408A
:101A5000704700002DE9F843044690F83D001F460A
:101A600016460D4620284CD1C5B1BEB194F83C00B5
:101A7000012846D0012084F83C004FF00008C4F84B
:101A80004080212084F83D00FEF7FCFEA6848146BC
:101A9000E684A068B0F5805F03D004E00120BDE8D3
:101AA000F883206928B12E465FF0000584F83C8059
:101AB0000EE00026FAE78021204600F0D7FBA0B90F
:101AC000AEB116F8010B21684860E08C401EE0843E
:101AD000E08C4B464FF0000200970028EBD14FF00E
:101AE0004001204600F0C2FB30B10320D7E735F8B3
:101AF000020BC0F30800E6E7202084F83D00002038
:101B0000CDE70220CBE77047FEE70000FEB50025D9
:101B10002148009501951F49029501608915816052
:101B2000057301240475042606614FF460214560A5
:101B3000C0E90641FEF774FC08B1FEF785FBCDE96C
:101B40000054694614480295FEF7ECFB08B1FEF715
:101B50007BFB0220CDE9004069460F48FEF7E2FB1F
:101B600008B1FEF771FB0820009003200190694640
:101B70000948FEF7D7FB08B1FEF766FB0920CDE95F
:101B8000000669460448FEF7CDFB002801D0FEF7A9
:101B90005BFBFEBD00240140180000202DE9F04150
:101BA00086B000242448009401940294039481692F
:101BB00041F020018161816901F020010491816976
:101BC00041F004018161816901F00401049181699E
:101BD00041F0080181618069012200F00800174F7F
:101BE000D503049029463846FEF746FEDFF85080BC
:101BF000012278214046FEF73FFE3020CDE9000467
:101C0000694638460294FEF757FD009502260125E5
:101C10000396CDE9015469463846FEF74DFD78201C
:101C2000CDE90005CDE9024669464046FEF744FD90
:101C300006B0BDE8F081000000100240000801403D
:101C4000000C014010B592B000240F941C2168468E
:101C50001094FEF770FA202107A8FEF76CFA2848C6
:101C60002649C0E900144FF6FF71C0E90241046142
:101C700044618461FFF71EFD08B1FEF7E5FA0F9499
:101C80000FA91F481094FFF731FA08B1FEF7DCFAEC
:101C90006020CDE90004029403940494059400228A
:101CA000694617480694FFF7A2FC08B1FEF7CCFA84
:101CB000042269461248FFF79AFC08B1FEF7C4FAFD
:101CC000082269460E48FFF792FC08B1FEF7BCFAFD
:101CD0000794089409944FF400500A94CDE90B40FE
:101CE00007A907480E94FFF7D7F908B1FEF7ACFA39
:101CF0000348FFF741FC12B010BD0000002C01406A
:101D00004800002010B586B00024174800940194C4
:101D10000294039404944FF080410594016047219C
:101D2000C0E9011440F2E731C0E903148021816168
:101D3000FFF70CFA08B1FEF787FA4FF480500090D5
:101D400069460948FFF774FA08B1FEF77DFA049472
:101D500004A905480594FFF7C9F9002801D0FEF74A
:101D600073FA06B010BD00009000002010B58CB0D2
:101D700024216846FEF7DFF9002415480994134929
:101D80000A94C0E900144FF6FF71C0E902410461F2
:101D900084610120CDE90004CDE902040494CDE979
:101DA0000540079469460A480894FFF7ACFA08B161
:101DB000FEF74AFA099409A905480A94FFF796F92B
:101DC000002801D0FEF740FA0CB010BD000400401E
:101DD000D80000200C4810B50A4901604FF4E131E9
:101DE0004160002181600C22C160C0E90412816160
:101DF000C161FFF7BBFD002803D0BDE81040FEF72E
:101E000023BA10BD0044004020010020FEE7FEE799
:101E100070477047FEF73CBD30B593B02821684647
:101E2000FEF789F914210AA8FEF785F900250F9518
:101E3000092000901095119512954FF4A020CDE93E
:101E4000010501200224CDE9060404900004089055
:101E50004FF4E01009906846FEF778FF08B172B6BB
:101E6000FEE70AA90F2081E831004FF48060CDE938
:101E70000D0502210AA8FEF77DFE08B172B6FEE745
:101E80004FF4004011900F940FA8FEF7FDFD0028BD
:101E900001D072B6FEE713B030BD70470148FFF7BE
:101EA000B8BA0000900000200148FFF7B2BA000065
:101EB000D800002070B50268134B144C4FF08046D8
:101EC000984203D0B04201D0A04203D122F0700565
:101ED0004A682A43984203D0B04201D0A04203D1BD
:101EE00022F44074CA6822434C6922F080022243E3
:101EF00002608A68C2620A688262984201D10969F6
:101F000001630121416170BD002C014000040040CB
:101F100010B5846842EA032224F47F440A43224332
:101F2000826010BD826822F070020A4342F007010D
:101F30008160704730B5026A22F001020262026AD3
:101F40004368846924F073050C682C4322F0020571
:101F50008A682A430A4DA8420BD122F00805CA68B4
:101F600023F440732A434D6922F004021D438B6918
:101F70002B434360846149684163026230BD0000C5
:101F8000002C014030B5026A22F010020262026A9F
:101F9000436884690D6824F4E64444EA05248D68A6
:101FA00022F0200242EA05120B4DA8420ED1CD6864
:101FB00022F0800242EA05124D6923F4406343EAAD
:101FC00085038D6922F0400243EA85034360846102
:101FD00049688163026230BD002C014030B5026A5D
:101FE00022F480720262036A4268C46923F40073B7
:101FF00024F073050C682C438D6843EA05230C4DCF
:10200000A8420ED1CD6823F4006343EA05234D694D
:1020100022F4405242EA05128D6923F4806342EAB9
:1020200005124260C4614968C163036230BD0000AB
:10203000002C014030B5026A22F480520262046A28
:102040004268C3690D6823F4E64343EA05238D68BB
:1020500024F4005444EA0534064DA84204D14D69E5
:1020600022F4804242EA85124260C36149680164F9
:10207000046230BD002C014010B5036A046A24F0EC
:1020800001040462846924F0F00444EA021423F099
:102090000A020A438461026210BD10B5036A23F08C
:1020A000100303628369046A23F4704343EA023233
:1020B00024F0A00343EA01118261016210BD10B552
:1020C000406A0021C185C184FFF748FB10BD01684B
:1020D000CA6822F49072CA6001684A6922F001025B
:1020E0004A61016B012904D10168CA6822F010021B
:1020F000CA60202180F83E1000210163704708B5B6
:1021000090F83E10222901D0022008BD82684FF4C9
:1021100080539A4201D1016921B1816A9A421BD050
:102120004AB10AE00268816A5268C2F308020A8072
:10213000816A891C08E0026972B10268526802F083
:102140007F020A70816A491C8162C18D491E09049F
:10215000090CC18503D019E002685268F1E70168F3
:10216000CA6822F02002CA600168CA6822F480723C
:10217000CA6001684A6922F001024A61202180F8A0
:102180003E10016B012903D0FFF762FC002008BD5F
:10219000002101630168CA6822F01002CA60016868
:1021A0000A68D20602D50A6849680091818DFFF756
:1021B000D4FAEBE770B5044600680169E26821F4DF
:1021C0004051114301612169A068084361690843D6
:1021D0002168CA6841F20C639A430243CA602068CE
:1021E0004169A26921F44071114341611E4920688F
:1021F000884202D1FEF764FD01E0FEF751FD00EBDD
:10220000C00101EB0012606864218000B2FBF0F3B2
:10221000B3FBF1F36FF018067343B2FBF0F5B2FBBA
:10222000F0F605EB8305322303EB0515B5FBF1F55D
:10223000B6FBF1F605F0F00505EB0615B2FBF0F67E
:10224000B2FBF0F0B0FBF1F06FF01802504306EB78
:10225000800003EB0010B0FBF1F0216800F00F00EC
:102260002844886070BD0000003801402DE9F0412D
:10227000984617460E460446069D1DE0681C1BD076
:102280002DB1FEF7FFFAA0EB0800A84214D9206890
:10229000C16821F4D071C1602068416921F0010159
:1022A0004161202084F83D0084F83E00002084F83D
:1022B0003C000320BDE8F0812068006836EA000099
:1022C00004D00020B842D9D00020F3E70120F9E77C
:1022D0000148FFF745BA000020010020FEE700009A
:1022E000014A024900F023B85123000814000020DD
:1022F0000907090E002804DB00F1E02080F8001433
:10230000704700F00F0000F1E02080F8141D7047C6
:1023100002E008C8121F08C1002AFAD170477047AE
:10232000002001E001C1121F002AFBD170472DE9F6
:10233000F04116460F460446002503E03946B047F3
:10234000641C6D1C20780028F8D12846BDE8F08177
:1023500038B504468DF80000022301226946024880
:10236000FFF778FB204638BD20010020FEF798FAE1
:10237000FFF752FDFFF712FCFFF7F8FCFFF7C6FB73
:10238000FFF760FCFFF726FDFFF7BCFC0D48FEF7EA
:1023900027FF0D48FDF75AFF0CA0FFF7A1FF134CD4
:1023A000002220212046FEF767FA0A20FEF772F984
:1023B000012220212046FEF75FFA0A20FEF76AF983
:1023C000EEE7000090000020180000205B6D6169BE
:1023D0006E5D696E666F3ACFB5CDB3B3F5CABCBB5F
:1023E000AFB3C9B9A6A3A10D0A000000000C0140BB
:1023F00000000000000000000102030406070809B5
:10240000000000000102030428240008000000204E
:1024100018000000102300084024000818000020C5
:10242000500500002023000800000000010000000B
:1024300010000000000000000024F4000000000074
:04000005080000ED02
:00000001FF
